:1000000017C1000046C1000044C1000042C1000009
:1000100040C100003EC100003CC100003AC10000E8
:1000200038C1000036C1000034C1000032C10000F8
:1000300030C100002EC100002CC100002AC1000008
:1000400028C1000026C1000024C1000022C1000018
:100050000C94C1081EC100001CC100000C9477085C
:1000600018C100003FC5000014C5000012C1000007
:1000700010C100000EC100000CC100000AC1000048
:1000800008C1000006C1000004C1000002C1000058
:1000900000C10000FEC00000FCC00000FAC000006B
:1000A000F8C00000F6C00000F4C00000F2C000007C
:1000B000F0C00000EEC00000ECC00000EAC000008C
:1000C000E8C00000E6C00000E4C00000E2C000009C
:1000D000E0C00000DEC00000DCC00000DAC00000AC
:1000E000D8C000005A025E02620266026A026E0214
:1000F0007202A403AB03B203B903C003D803C7035E
:10010000D803CE03D705DA05C905CD05D1051106FB
:10011000DE05E205E805EC05F005F605FA05FE0545
:100120001106040608060C0600000A0B02090C0D55
:100130000E0807030401000000000000000000009A
:1001400000000000000000000000000000000000AF
:10015000000000001211100000000000000000006C
:10016000000000000000000000000000000000008F
:100170002200250028002B002E003100340002014F
:100180000000050108010B010000210024002700E8
:100190002A002D0030003300010100000401070196
:1001A0000A010505050507050808080802020202FC
:1001B0000A0A080804040404010101010101010103
:1001C0000303030303030303040707070C0C0C0CCE
:1001D0000C0C0C0C020202020606060606060606B7
:1001E0000B0B0B0B0B0B0B0B010210202008081044
:1001F0002040102040800201020108040201010297
:10020000040810204080804020100804020180046F
:1002100002018040201008040201080402010102CA
:1002200004081020408001020408102040800012C1
:1002300011241FBECFEFD1E2DEBFCDBF00E00CBF67
:1002400024E0A8E3B2E001C01D92AC38B207E1F7A8
:1002500012E0A0E0B2E0ECE9FEE200E00BBF02C079
:1002600007900D92A833B107D9F711E0C8E1D1E0AA
:1002700000E006C021970109802FFE010E94F214C0
:10028000C731D10780E00807A9F70E94790B0C94C9
:100290004C17B6CE089580E090E00895FC01538D90
:1002A000448D252F30E0842F90E0821B930B541750
:1002B00010F0CF96089501970895FC01918D828DDD
:1002C000981761F0828DDF01A80FB11D5D968C91AA
:1002D000928D9F5F9F73928F90E008958FEF9FEFB5
:1002E0000895FC01918D828D981731F0828DE80F71
:1002F000F11D858D90E008958FEF9FEF0895FC012B
:10030000918D228D892F90E0805C9F4F821B9109F7
:100310008F739927089588E492E0F1DF21E0892B1B
:1003200009F420E0822F0895FC01848DDF01A80FDD
:10033000B11DA35ABF4F2C91848D90E001968F730D
:100340009927848FA689B7892C93A089B1898C912C
:1003500080648C93938D848D981306C00288F389F2
:10036000E02D80818F7D80830895EF92FF920F931F
:100370001F93CF93DF93EC0181E0888F9B8D8C8D51
:10038000981305C0E889F989808185FD23C0F62E80
:100390000B8D10E00F5F1F4F0F731127E02E8C8D18
:1003A000E8120BC00FB607FCFACFE889F989808103
:1003B00085FFF5CFCE01B8DFF2CF8B8DFE01E80FC0
:1003C000F11DE35AFF4FF0820B8FEA89FB89808190
:1003D000806207C0EE89FF896083E889F98980819E
:1003E0008064808381E090E0DF91CF911F910F9135
:1003F000FF90EF900895CF93DF93EC01888D8823D1
:10040000C1F0EA89FB89808185FD05C0A889B98989
:100410008C9186FD0EC00FB607FCF5CF808185FF5D
:10042000F2CFA889B9898C9185FFEDCFCE017CDF11
:10043000E8CFDF91CF9108953FB7F89480913E02C5
:1004400090913F02A0914002B091410226B5A89B35
:1004500005C02F3F19F00196A11DB11D3FBFBA2F56
:10046000A92F982F8827820F911DA11DB11DBC01B6
:10047000CD0142E0660F771F881F991F4A95D1F77B
:100480000895CF93DF93DC014770552766277727C0
:10049000FA013197CD91DC911197E730F10530F4F5
:1004A0008827EE58FF4F8F4F0C94F214EC81FD819A
:1004B00061E01BC0EC81FD8165E017C0EC81FD812E
:1004C00064E013C0EC81FD8166E00FC0EC81FD812A
:1004D00062E00BC0EC81FD816AE007C0EC81FD8128
:1004E00068E003C0EC81FD8169E0CD01DF91CF912F
:1004F0001994CF93DF93EC01CB01BA0126E030E0F1
:1005000040E050E00E94D6146230710581059105EB
:1005100059F18CF46115710581059105F1F0613097
:10052000710581059105C1F5E881F9810480F581A6
:10053000E02D65E02DC0643071058105910511F154
:10054000D4F0653071058105910531F5E881F981B7
:100550000480F581E02D66E01BC0E881F98104800C
:10056000F581E02D64E014C0E881F9810480F58113
:10057000E02D61E00DC0E881F9810480F581E02D76
:1005800063E006C0E881F9810480F581E02D62E036
:10059000CE01DF91CF911994DF91CF9108954370EF
:1005A000552766277727DC01ED91FC910480F581C2
:1005B000E02D423051056105710571F04330510560
:1005C0006105710559F0413051056105710511F062
:1005D00065E005C066E003C06AE001C069E0199407
:1005E000CF93DF93EC01CB01BA0123E030E040E090
:1005F00050E00E94D614613071058105910581F0AB
:10060000623071058105910591F0672B682B692B8C
:10061000C1F4E881F9810480F581E02D64E00DC02A
:10062000E881F9810480F581E02D61E006C0E88170
:10063000F9810480F581E02D62E0CE01DF91CF9158
:100640001994DF91CF910895437055276627772736
:10065000DC01ED91FC910480F581E02D42305105E3
:100660006105710571F0433051056105710559F05F
:10067000413051056105710511F062E005C063E08C
:1006800003C061E001C060E01994CF93DF93EC01F7
:10069000E881F9810480F581E02D8A81811102C011
:1006A00060E001C062E0CE011995E881F981048023
:1006B000F581E02D8A81811102C061E001C063E013
:1006C000CE0119958CA59DA58230910538F0880F33
:1006D000991F880F991F05970197F1F7E881F98114
:1006E0000480F581E02D8A81811102C060E001C0A3
:1006F00062E0CE01DF91CF911994CF93DF93EC01AB
:1007000020E030E0A9016C897D898E899F890E9453
:100710007B1418161CF4E8A9F9A902C0EAA9FBA9E0
:10072000DF91CF9119940F931F93DC0113960C91D5
:10073000139710E009301105D8F5F8018827E7581C
:10074000FF4F8F4F0C94F214ED91FC9111970084A0
:10075000F185E02D29C0ED91FC9111970284F3857C
:10076000E02D22C0ED91FC9111970484F585E02DD8
:100770001BC0ED91FC9111970684F785E02D14C004
:10078000ED91FC9111970088F189E02D0DC0ED915C
:10079000FC9111970288F389E02D06C0ED91FC9140
:1007A00011970488F589E02DCD011F910F911994BF
:1007B0001F910F9108952F923F924F925F926F92E7
:1007C0007F928F929F92AF92BF92CF92DF92EF92E1
:1007D000FF920F931F93CF93DF9300D01F92CDB75B
:1007E000DEB71C01FC01C088D188E288F3888485CB
:1007F0009585A685B785C81AD90AEA0AFB0A6489CD
:100800007589868997899B01AC010E94C9124B01A9
:100810005C01F101648D758D868D978D9B01AC0116
:100820000E947E139B01AC01C501B4010E94E2133A
:100830000E944A14C114D104E104F104A1F462300D
:100840007105810591050CF07CC0F10114A215A27F
:1008500016A217A2148A158A168A178A14AA15AA2C
:1008600016AA17AAFFC0F10104A915A926A937A93C
:100870001C141D041E041F0404F510161106120694
:1008800013064CF46C157D058E059F055CF52281E1
:10089000211157C027C0011511052105310509F4A3
:1008A00050C06C157D058E059F050CF04AC0F10106
:1008B0008281882309F445C039C01016110612063A
:1008C0001306FCF40027112798010C191D092E09A5
:1008D0003F09601771078207930724F4F101228111
:1008E000222379F19B01AC0188279927DC01821B27
:1008F000930BA40BB50BF10184AB95ABA6ABB7ABD7
:1009000020C00115110521053105D9F0882499244D
:1009100054018C189D08AE08BF08681579058A0532
:100920009B057CF4F101828181110BC030952095EB
:10093000109501951F4F2F4F3F4F04AB15AB26ABC2
:1009400037ABF10184A895A8A6A8B7A88114910493
:10095000A104B10491F480AD91ADA2ADB3AD84AF6B
:1009600095AFA6AFB7AF81E01C141D041E041F0491
:100970000CF080E0F101828341C0F101C4ACD5AC40
:10098000E6ACF7ACA7019601C701B6010E947E1341
:100990002B013C01C501B4010E946A1220E030E045
:1009A00040E850E40E94C91220E030E040E85FE3F4
:1009B0000E947E139B01AC01C301B2010E94E213AD
:1009C0009B01AC01C701B6010E947D137B018C0124
:1009D000F101E05CFF4F60807180C280D3809301A1
:1009E000A6010E947B14181614F073018601A7015A
:1009F000B801F10144AF55AF66AF77AFFFEF8F1A83
:100A00009F0AAF0ABF0AF10184AA95AAA6AAB7AAAB
:100A100024AD35AD46AD57ADCA01B90129833A833E
:100A20004B835C830E944F14F10164A375A386A3DA
:100A300097A329813A814B815C8160E074E284E76D
:100A400099E40E94E213F101648B758B868B978B7E
:100A50002281211107C0DC01CB01B058848B958B1A
:100A6000A68BB78B0F900F900F900F90DF91CF91C7
:100A70001F910F91FF90EF90DF90CF90BF90AF90BC
:100A80009F908F907F906F905F904F903F902F90AE
:100A900008951F920F920FB60F9211240BB60F926A
:100AA0002F933F934F935F936F937F938F939F9376
:100AB000AF93BF93EF93FF9388E492E035DCFF910F
:100AC000EF91BF91AF919F918F917F916F915F91C6
:100AD0004F913F912F910F900BBE0F900FBE0F9033
:100AE0001F9018951F920F920FB60F9211240BB6FC
:100AF0000F922F938F939F93EF93FF93E091580260
:100B0000F09159028081E0915E02F0915F0282FDD6
:100B100012C09081809161028F5F8F732091620279
:100B2000821751F0E0916102F0E0E85BFD4F958F94
:100B30008093610201C08081FF91EF919F918F911D
:100B40002F910F900BBE0F900FBE0F901F90189516
:100B5000362F90E0FC01E85DFE4F4491FC01E85126
:100B6000FE4F2491FC01EE55FE4F9491992309F418
:100B70006BC0442309F455C050E0FA013197E231CB
:100B8000F10508F04EC08827EE57FF4F8F4F0C94A9
:100B9000F214809180008F7707C0809180008F7D54
:100BA00003C080918000877F809380003AC084B525
:100BB0008F7702C084B58F7D84BD33C08091B00033
:100BC0008F7703C08091B0008F7D8093B00029C0E3
:100BD000809190008F7707C0809190008F7D03C037
:100BE00080919000877F809390001BC08091A0002F
:100BF0008F7707C08091A0008F7D03C08091A000F7
:100C0000877F8093A0000DC0809120018F7707C05F
:100C1000809120018F7D03C080912001877F809388
:100C20002001E92FF0E0EE0FFF1FE259FE4FA591E2
:100C3000B4918FB7F894EC91311103C020952E2315
:100C400001C02E2B2C938FBF08958F929F92AF924D
:100C5000BF92CF92DF92EF92FF92CF93DF93CDB707
:100C6000DEB728970FB6F894DEBF0FBECDBF6091F8
:100C7000380281E06827609338028DE069DF1A82CC
:100C800019821C821B821E821D8260E070E0CE01F0
:100C9000019608D529813A8181110DC021153105B0
:100CA00019F0C9010E94B1151A8219821E821D8293
:100CB0001C821B824EC01E821D8267E372E0C90146
:100CC0000E94451746C088E492E0F7DA8F831886C1
:100CD000ED80FE802FEFE21AF20AB701CE010196F5
:100CE000E1D4882369F029813A818D819E81BE01FA
:100CF000695F7F4F820F931F0E944517FE82ED822E
:100D00009BDB4B015C0183E0C82ED12CE12CF12C44
:100D100093DBDC01CB0188199909AA09BB09883E3C
:100D20009340A105B10580F081E0C81AD108E1081F
:100D3000F108E8EE8E0EE3E09E1EA11CB11CC1146A
:100D4000D104E104F10421F7C114D104E104F10458
:100D5000F9F688E492E0D3DA181619060CF4B3CF4A
:100D600060E070E0CE0101968BD4FC018081863476
:100D700069F160E070E0CE01019682D4FC018081CF
:100D8000823421F160E070E0CE01019679D4FC015B
:100D900080818C34D9F060E070E0CE01019670D48F
:100DA000FC018081823591F060E070E0CE01019617
:100DB00067D4FC018081853549F060E070E0CE01A8
:100DC00001965ED4FC0180818434C9F581E0809372
:100DD000E50260E070E0CE01019652D4FC01808112
:100DE0008093EA028D819E81892B09F445C0E980B8
:100DF000FA8067E270E0C7010E943A170097E1F1BC
:100E00008E199F090196C1F18FEF9FEF9093EE022B
:100E10008093ED0261E070E0CE01019631D4FC01D7
:100E20008081823361F581E090E09093EE028093BF
:100E3000ED0282E090E09093EC028093EB026091EF
:100E4000380281E06827609338028DE081DE898175
:100E50009A810E94B11528960FB6F894DEBF0FBE96
:100E6000CDBFDF91CF91FF90EF90DF90CF90BF90FB
:100E7000AF909F908F90089581E090E0C7CF61E0A0
:100E800070E0CE010196FCD3FC018081833319F41C
:100E90008FEF9FEF02C081E090E09093EE0280938D
:100EA000ED02C9CF38DA811125C080E090E0892BAE
:100EB00041F080E090E0892B21F00E940000811138
:100EC0001BC080E090E0892B41F080E090E0892B0E
:100ED00021F00E940000811112C080E090E0892B77
:100EE00099F080E090E0892B79F00E940000811158
:100EF00009C00895AADED9CF0E940000E2CF0E9467
:100F00000000EBCF0C9400000895CF93DF93FC0119
:100F100023812223F9F0EC0184817DD38D817BD361
:100F20008B81843011F0883021F48E8174D38F81CD
:100F300005C0833011F0863011F48E816CD38FA5FB
:100F40008F3F41F068D36EA581E068278FA5DF91C0
:100F5000CF91FECDDF91CF9108959091E5028091E0
:100F6000E602992359F1811129C08091EA02863461
:100F700069F02CF4823469F0843471F01CC082353D
:100F800059F0853549F08C34B1F406C083E494E01F
:100F90000EC08FEF93E00BC083E494E0B6DF8FEFD9
:100FA00093E0B3DF87E793E0B0DF83E393E0ADDF67
:100FB00081E08093E6021092E5020895882309F407
:100FC0003FC08091EA028C3449F01CF4843431F043
:100FD0000895823519F0853509F008958091E7026A
:100FE000882371F140915304509154046091550449
:100FF0007091560480914F0490915004A091510437
:10100000B0915204481759076A077B07C9F4409109
:101010000F0450911004609111047091120480919A
:101020000B0490910C04A0910D04B0910E0448178C
:1010300059076A077B0709F0089581E08093E80269
:101040000895CF93DF93FC012381222391F0EC01DB
:101050000190F081E02D0480F581E02D60E019958C
:101060008FA58F3F31F0D7D26EA58FA5DF91CF919D
:101070006FCDDF91CF910895CF92DF92EF92FF92E3
:101080000F931F93CF93DF93FC012381243041F012
:10109000283031F0233031F0263021F012E003C047
:1010A00014E001C013E0EC012896E12CF12CC62ECF
:1010B000D12C01E0C6010E2C02C0959587950A94AB
:1010C000E2F7688180FD6027FE013497808140DD72
:1010D000FFEFEF1AFF0A2196E11660F3DF91CF913F
:1010E0001F910F91FF90EF90DF90CF9008951F9286
:1010F0000F920FB60F9211242F933F938F939F93CC
:10110000AF93BF9380913A0290913B02A0913C0231
:10111000B0913D023091390223E0230F2D3720F4A6
:101120000196A11DB11D05C026E8230F0296A11D41
:10113000B11D2093390280933A0290933B02A09311
:101140003C02B0933D0280913E0290913F02A091FB
:101150004002B09141020196A11DB11D80933E0253
:1011600090933F02A0934002B0934102BF91AF9190
:101170009F918F913F912F910F900FBE0F901F90D5
:1011800018951F920F920FB60F9211240BB60F9263
:101190002F933F934F935F936F937F938F939F937F
:1011A000AF93BF93EF93FF93E0914602F091470214
:1011B0001995FF91EF91BF91AF919F918F917F9181
:1011C0006F915F914F913F912F910F900BBE0F90B8
:1011D0000FBE0F901F9018954F925F926F927F9263
:1011E0008F929F92AF92BF92CF92DF92EF92FF9237
:1011F000CF93DF93EC016A017B0120E030E0A9018D
:10120000C701B6010E94641287FF04C0F7FAF09488
:10121000F7F8F0948C8C9D8CAE8CBF8CA701960156
:10122000C501B4010E946412882309F448C06CA966
:101230007DA98EA99FA90E946A122B013C01A701DA
:101240009601C501B4010E94E2139B01AC01C301E8
:10125000B2010E94C9120E944A146CAB7DAB8EABE6
:101260009FABA701960160E070E080E090E40E94EF
:10127000E2130E94831426E53EE04DE25FE30E9404
:10128000C91220E034E244E759E40E94C91268AF71
:1012900079AF8AAF9BAFCC8EDD8EEE8EFF8ECE0106
:1012A000DF91CF91FF90EF90DF90CF90BF90AF9004
:1012B0009F908F907F906F905F904F907CCADF914E
:1012C000CF91FF90EF90DF90CF90BF90AF909F9025
:1012D0008F907F906F905F904F900895CF93DF93A2
:1012E000EC016FA76F3F49F0862F95D16EA581E085
:1012F00068278FA5DF91CF912BCCDF91CF910895F7
:10130000CF92DF92EF92FF920F931F93CF93DF93D1
:10131000EC016A017B0120E030E0A901C701B601C0
:101320000E94641287FF04C0F7FAF094F7F8F09473
:10133000A7019601688D798D8A8D9B8D0E9464121C
:10134000882309F445C0C88ED98EEA8EFB8E8E01A3
:10135000005C1F4FA701960160E074E284E799E406
:101360000E94E213F80160837183828393838CA9C6
:101370009DA9AEA9BFA9181619061A061B0644F5A1
:101380006C897D898E899F899B01AC010E94C9125D
:101390006B017C016C8D7D8D8E8D9F8D9B01AC01D1
:1013A0000E947E139B01AC01C701B6010E94E213AB
:1013B0000E944A146CAB7DAB8EAB9FABCE01DF912C
:1013C000CF911F910F91FF90EF90DF90CF90F3C9D5
:1013D000DF91CF911F910F91FF90EF90DF90CF9011
:1013E0000895CF92EF920F93CF93DF93EC018AE0B1
:1013F00092E0998388836B831C861D861E861F86D8
:10140000188A198A1A8A1B8A1C8A1D8A1E8A1F8AB0
:1014100080E090E0A0E8BFE3888F998FAA8FBB8F10
:101420001C8E1D8E1E8E1F8E88A399A3AAA3BBA3FC
:101430001CA21DA21EA21FA261E070E07DA76CA7E6
:101440003FEF3FA718A619A61AA61BA64C832D830B
:101450000E83EF821EA61CAA1DAA1EAA1FAA18AEE2
:1014600019AE1AAE1BAE1CAE1DAE1EAE1FAEFE01F7
:10147000E05CFF4F80839183A283B3831A82188636
:1014800019861A861B86CC2011F0CE013EDD40E085
:1014900050E060E87FE3CE01DF91CF910F91EF90B4
:1014A000CF909ACECF92DF92EF92FF92CF93DF93BD
:1014B000EC018CA19DA1AEA1BFA1892B8A2B8B2B06
:1014C000D1F10E941C026B017C0188A599A5AAA5F7
:1014D000BBA5B701A601481B590B6A0B7B0B8CA15E
:1014E0009DA1AEA1BFA1481759076A077B0718F154
:1014F0002A818C859D85AE85BF85222321F00196AA
:10150000A11DB11D03C00197A109B1098C879D8759
:10151000AE87BF87E881F9814C855D856E857F85C3
:101520000680F781E02DCE011995C8A6D9A6EAA6B6
:10153000FBA6CE0140D920E030E0A9016C897D896D
:101540008E899F89C1D7811110C081E0C888D98850
:10155000EA88FB884C855D856E857F85C416D50637
:10156000E606F70619F480E001C081E0DF91CF9133
:10157000FF90EF90DF90CF9008950F931F93FC01A1
:10158000008911892289338904171507260737072F
:1015900039F0408B518B628B738B1F910F910BC96C
:1015A0001F910F910895CF93DF93EC01E6DFCE01F9
:1015B00079DF8111FCCFDF91CF910895CF92DF9237
:1015C000EF92FF920F931F93CF93DF936C017A01F9
:1015D0008B01C0E0D0E0CE15DF0589F0D8016D9118
:1015E0008D01D601ED91FC910190F081E02DC601B5
:1015F0001995892B11F47E0102C02196ECCFC70109
:10160000DF91CF911F910F91FF90EF90DF90CF90DE
:1016100008950E942D1790E0FC01E851FE4F24919F
:10162000FC01EE55FE4F8491882399F090E0880FDD
:10163000991FFC01E857FE4FA591B491FC01E259B6
:10164000FE4F859194918FB7F894EC91E22BEC9337
:101650008FBF0895CF93DF9342E050E062E372E0E2
:1016600088E492E0ABDFEC0142E050E065E372E039
:1016700088E492E0A3DF8C0F9D1FDF91CF91089546
:10168000FC01248135816217730720F480819181E8
:10169000009729F41092870487E894E00895860F54
:1016A000971F08950F931F93CF93DF93EC018881C9
:1016B0009981009729F02A813B812617370788F402
:1016C0008B016F5F7F4F0E944916009761F09983ED
:1016D00088831B830A832C813D81232B11F4FC0119
:1016E000108281E001C080E0DF91CF911F910F91C6
:1016F0000895789484B5826084BD84B5816084BD8A
:1017000085B5826085BD85B5816085BD80916E009F
:10171000816080936E0010928100809181008260D0
:10172000809381008091810081608093810080910D
:1017300080008160809380008091B10084608093FC
:10174000B1008091B00081608093B00080919100E1
:1017500082608093910080919100816080939100DC
:10176000809190008160809390008091A1008260C0
:101770008093A1008091A10081608093A10080915D
:10178000A00081608093A0008091210182608093FD
:1017900021018091210181608093210180912001AC
:1017A00081608093200180917A00846080937A0028
:1017B00080917A00826080937A0080917A008160C3
:1017C00080937A0080917A00806880937A001092EA
:1017D000C100E0915802F091590282E08083E091CB
:1017E0005402F09155021082E0915602F091570296
:1017F000D0E1D08310926002E0915C02F0915D0232
:1018000086E08083E0915A02F0915B0280818061E2
:101810008083E0915A02F0915B028081886080832E
:10182000E0915A02F0915B02808180688083E091B0
:101830005A02F0915B0280818F7D80838DE0EBDE28
:1018400066E283E494E04ADD10924B0410924C046B
:10185000C1E0C093710440E050E66AEE75E483E4B1
:1018600094E04EDD40E050E563EC76E483E494E000
:10187000B3DC83E494E0E5DB68E38FEF93E02EDDF7
:101880001092070410920804C0932D0440E050E623
:101890006AEE75E48FEF93E033DD40E050E563ECF2
:1018A00076E48FEF93E098DC8FEF93E0CADB6EE392
:1018B0008BEB93E013DD1092C3031092C403C0932B
:1018C000E90340E050E86BEB75E48BEB93E018DD47
:1018D00040E050E46CE976E48BEB93E07DDC8BEB4D
:1018E00093E0AFDB63E28FEE92E0F8DC1092F70258
:1018F0001092F802C0931D0340E050E86BEB75E4D2
:101900008FEE92E0FDDC40E050E46CE976E48FEE8F
:1019100092E062DC8FEE92E094DB68E187E793E08F
:10192000DDDC10927F0310928003C093A50340E09A
:1019300050E66AEE75E487E793E0E2DC40E050E5CC
:1019400063EC76E487E793E047DC87E793E079DBB5
:101950006EE183E393E0C2DC10923B0310923C0300
:10196000C093610340E050E66AEE75E483E393E0E0
:10197000C7DC40E050E563EC76E483E393E02CDCE5
:1019800083E393E05EDB8AE046DE60E08AE0E0D855
:1019900010928000D093810083E0809344028FB73F
:1019A00080934502F89484ED90E3909343028093F2
:1019B00042029093870080938600809145028FBFFA
:1019C00080918100887F8093810090918100809137
:1019D0004402982B909381002DEA37E03093470220
:1019E00020934602C0936F0090918100892B8093D1
:1019F0008100C8ECD1E083E494E054DD8FEF93E004
:101A000051DD8BEB93E04EDD87E793E04BDD83E325
:101A100093E048DD8091EA028634D1F4409153048A
:101A200050915404609155047091560480914F0474
:101A300090915004A0915104B09152044817590755
:101A40006A077B07F1F48091E60281111CC019C07E
:101A5000823409F004C140910F0450911004609148
:101A600011047091120480910B0490910C04A091C8
:101A70000D04B0910E04481759076A077B0709F453
:101A80008EC010DAB8CF8091EB029091EC0280FF0B
:101A90004FC0C89FA001C99F500D1124052E000CF6
:101AA000660B770B83E494E07EDD8FEE92E02DDA17
:101AB00040E951E060E070E08FEE92E074DD40E0DC
:101AC00050E0BA0183E494E06EDD42EE5FEF6FEF29
:101AD0007FEF8FEE92E067DD1092FB021092FC0226
:101AE0001092FD021092FE021092FF02109200036B
:101AF0001092010310920203109223031092240308
:101B000010922503109226031092130310921403CF
:101B100010921503109216031092030310920403FF
:101B200010920503109206038FEE92E08ADA34C019
:101B3000C89FA001C99F500D1124052E000C660BF3
:101B4000770B83E494E02FDD10924F041092500441
:101B500010925104109252041092530410925404A3
:101B60001092550410925604109277041092780443
:101B70001092790410927A0410926704109268040B
:101B80001092690410926A0410925704109258043B
:101B90001092590410925A0483E494E05BC080913F
:101BA000E602882309F46DCF8091EB029091EC025C
:101BB00080FF73C0C89FA001C99F500D1124052E3E
:101BC000000C660B770B8FEF93E0EDDC8FEE92E06D
:101BD0009CD940E951E060E070E08FEE92E0E3DCF8
:101BE00040E050E0BA018FEF93E0DDDC42EE5FEFC2
:101BF0006FEF7FEF8FEE92E0D6DC1092FB02109237
:101C0000FC021092FD021092FE021092FF0210924E
:101C1000000310920103109202031092230310920A
:101C2000240310922503109226031092130310929E
:101C300014031092150310921603109203031092CE
:101C4000040310920503109206038FEE92E0F9D977
:101C50008FEF93E0F6D9FEDC1092E60212CF8C34BF
:101C600009F050C040918703509188036091890327
:101C700070918A038091830390918403A0918503DE
:101C8000B0918603481759076A077B0709F0F9CE18
:101C90008091E602811154C0F4CEC89FA001C99F73
:101CA000500D1124052E000C660B770B8FEF93E07F
:101CB0007ADC10920B0410920C0410920D04109216
:101CC0000E0410920F04109210041092110410923E
:101CD00012041092330410923404109235041092BE
:101CE00036041092230410922404109225041092BA
:101CF00026041092130410921404109215041092EA
:101D00001604A6CF823509F0BEC04091430350911E
:101D10004403609145037091460380913F03909185
:101D20004003A0914103B0914203481759076A0745
:101D30007B0709F0A6CE8091E6028111EAC1A1CE0F
:101D40008091E902882309F44FC18091E702811153
:101D500016C08BEB93E0D9D842EC51E060E070E024
:101D60008BEB93E020DC48EC50E060E070E083E433
:101D700094E003DC48E35FEF6FEF7FEFA9C0809151
:101D8000E802882309F47DCE1092E70242EE5FEF6D
:101D90006FEF7FEF8BEB93E006DC1092C70310929E
:101DA000C8031092C9031092CA031092CB03109279
:101DB000CC031092CD031092CE031092EF03109239
:101DC000F0031092F1031092F2031092DF031092CD
:101DD000E0031092E1031092E2031092CF031092FD
:101DE000D0031092D1031092D2038BEB93E029D948
:101DF0008FEE92E08AD840E951E060E070E08FEE2B
:101E000092E0D1DB40E050E0BA0183E494E0CBDB28
:101E100040E050E0BA018FEF93E0C5DB42EE5FEFA8
:101E20006FEF7FEF8FEE92E0BEDB1092FB0210921D
:101E3000FC021092FD021092FE021092FF0210921C
:101E400000031092010310920203109223031092D8
:101E5000240310922503109226031092130310926C
:101E6000140310921503109216031092030310929C
:101E7000040310920503109206038FEE92E0E1D85E
:101E80001092E902B1C0853509F022C28091E602C4
:101E9000882309F4F6CD8091E9028111A5C08091D3
:101EA000E70281111DC08BEB93E02FD842EC51E08B
:101EB00060E070E08BEB93E076DB48E35FEF6FEF81
:101EC0007FEF83E494E059DB48EC50E060E070E0A1
:101ED0008FEF93E052DBD093E7021092E802D1CD6E
:101EE0008091E802882309F4CCCD1092E70242EEFB
:101EF0005FEF6FEF7FEF8BEB93E055DB1092C70343
:101F00001092C8031092C9031092CA031092CB0317
:101F10001092CC031092CD031092CE031092EF03D7
:101F20001092F0031092F1031092F2031092DF036B
:101F30001092E0031092E1031092E2031092CF039B
:101F40001092D0031092D1031092D2038BEB93E046
:101F500078D88FEE92E00E94850740E951E060E07A
:101F600070E08FEE92E01FDB40E050E0BA0183E4C6
:101F700094E019DB40E050E0BA018FEF93E013DB0F
:101F800042EE5FEF6FEF7FEF8FEE92E00CDB10928F
:101F9000FB021092FC021092FD021092FE021092BF
:101FA000FF0210920003109201031092020310929C
:101FB00023031092240310922503109226031092FB
:101FC000130310921403109215031092160310922B
:101FD00003031092040310920503109206038FEE80
:101FE00092E02FD8D093E9028091EB029091EC021D
:101FF000C89FA001C99F500D1124052E000C660B2F
:10200000770B80FD3EC087E793E0CDDA1092830323
:102010001092840310928503109286031092870316
:10202000109288031092890310928A031092AB03D6
:102030001092AC031092AD031092AE0310929B036A
:1020400010929C0310929D0310929E0310928B039A
:1020500010928C0310928D0310928E0383E494E00F
:102060000E9421088FEF93E00E9421088BEB93E000
:102070000E94210887E793E00E94210883E393E010
:10208000E9CD87E793E08FDA8BEB93E00E94850739
:1020900040E951E060E070E08BEB93E084DA40E0EF
:1020A00050E0BA0187E793E07EDA42EE5FEF6FEF30
:1020B0007FEF8BEB93E077DA1092C7031092C8039F
:1020C0001092C9031092CA031092CB031092CC0352
:1020D0001092CD031092CE031092EF031092F003F2
:1020E0001092F1031092F2031092DF031092E003BA
:1020F0001092E1031092E2031092CF031092D003EA
:102100001092D1031092D2038BEB93E00E9421082E
:10211000A5CF8091E902882309F48BC08091E70262
:10212000882309F416CE8091E802882309F4A9CC0B
:102130001092E70242EE5FEF6FEF7FEF8BEB93E0E1
:1021400032DA1092C7031092C8031092C90310929A
:10215000CA031092CB031092CC031092CD031092BD
:10216000CE031092EF031092F0031092F10310923D
:10217000F2031092DF031092E0031092E103109239
:10218000E2031092CF031092D0031092D103109269
:10219000D2038BEB93E00E9421088FEE92E00E9425
:1021A000850740E951E060E070E08FEE92E0FBD9F6
:1021B00040E050E0BA0183E494E0F5D940E050E01B
:1021C000BA018FEF93E0EFD942EE5FEF6FEF7FEF51
:1021D0008FEE92E0E8D91092FB021092FC0210926E
:1021E000FD021092FE021092FF0210920003109264
:1021F0000103109202031092230310922403109201
:1022000025031092260310921303109214031092C8
:1022100015031092160310920303109204031092F8
:102220000503109206038FEE92E00E94210810929F
:10223000E9028091EB029091EC02C89FA001C99F36
:10224000500D1124052E000C660B770B80FF14C077
:1022500083E393E0A8D98BEB93E00E94850740E9E4
:1022600051E060E070E08BEB93E09DD940E050E0FE
:10227000BA0183E393E018CF83E393E094D91092FB
:102280003F031092400310924103109242031092B8
:102290004303109244031092450310924603109298
:1022A0006703109268031092690310926A031092F8
:1022B0005703109258031092590310925A03109228
:1022C0004703109248031092490310924A03C6CE66
:1022D000843409F0D6CB8091E602882309F4D1CB6F
:1022E0008091E9028111A5CF8091E702882309F44A
:1022F000DACD8091E802882309F4C3CB1092E7027B
:1023000042EE5FEF6FEF7FEF8BEB93E04CD91092D3
:10231000C7031092C8031092C9031092CA03109207
:10232000CB031092CC031092CD031092CE031092E7
:10233000EF031092F0031092F1031092F203109247
:10234000DF031092E0031092E1031092E203109277
:10235000CF031092D0031092D1031092D2038BEBD3
:1023600093E00E9421088FEE92E00E94850740E9E9
:1023700051E060E070E08FEE92E015D940E050E06F
:10238000BA0183E494E00FD940E050E0BA018FEF46
:1023900093E009D942EE5FEF6FEF7FEF8FEE92E0AF
:1023A00002D91092FB021092FC021092FD021092D0
:1023B000FE021092FF02109200031092010310928D
:1023C000020310922303109224031092250310920B
:1023D0002603109213031092140310921503109207
:1023E0001603109203031092040310920503109237
:1023F00006038FEE92E00E942108D093E90219CFE4
:10240000CF92EF920F93E8E4F2E01382128288EE0B
:1024100093E0A0E0B0E084839583A683B78384E251
:1024200092E09183808385EC90E09587848784ECAB
:1024300090E09787868780EC90E0918B808B81EC91
:1024400090E0938B828B82EC90E0958B848B86EC72
:1024500090E0978B868B118E128E138E148ECC2467
:10246000C39485E0E82E04E027E346E361E083E4DB
:1024700094E00E94F1092DE34CE361E08FEF93E0DB
:102480000E94F10920E34EE261E08BEB93E00E94B1
:10249000F1092CE14AE161E087E793E00E94F1094C
:1024A00022E244E261E083E393E00E94F10920E24A
:1024B0004FE261E08FEE92E00E94F1091092E90292
:1024C0000F91EF90CF90089540D008F481E00895E7
:1024D000E89409C097FB3EF49095809570956195BE
:1024E0007F4F8F4F9F4F9923A9F0F92F96E9BB2774
:1024F0009395F695879577956795B795F111F8CFF0
:10250000FAF4BB0F11F460FF1BC06F5F7F4F8F4F5A
:102510009F4F16C0882311F096E911C0772321F050
:102520009EE8872F762F05C0662371F096E8862FE8
:1025300070E060E02AF09A95660F771F881FDAF73F
:10254000880F9695879597F90895990F0008550F6C
:10255000AA0BE0E8FEEF16161706E807F907C0F029
:1025600012161306E407F50798F0621B730B840B31
:10257000950B39F40A2661F0232B242B252B21F40B
:1025800008950A2609F4A140A6958FEF811D811DAB
:1025900008950BD078C069D028F06ED018F095233C
:1025A00009F05AC05FC01124A2C07ED0A0F3959F4D
:1025B000D1F3950F50E0551F629FF001729FBB272A
:1025C000F00DB11D639FAA27F00DB11DAA1F649FD6
:1025D0006627B00DA11D661F829F2227B00DA11D89
:1025E000621F739FB00DA11D621F839FA00D611D0F
:1025F000221F749F3327A00D611D231F849F600D30
:10260000211D822F762F6A2F11249F5750408AF068
:10261000E1F088234AF0EE0FFF1FBB1F661F771FF4
:10262000881F91505040A9F79E3F510570F014C08B
:102630005EC05F3FECF3983EDCF386957795679537
:10264000B795F795E7959F5FC1F7FE2B880F911D12
:102650009695879597F9089597F99F6780E870E0B8
:1026600060E008959FEF80EC089500240A94161608
:10267000170618060906089500240A941216130670
:10268000140605060895092E0394000C11F48823FE
:1026900052F0BB0F40F4BF2B11F460FF04C06F5F1A
:1026A0007F4F8F4F9F4F089557FD9058440F551FF0
:1026B00059F05F3F71F04795880F97FB991F61F0C4
:1026C0009F3F79F087950895121613061406551F3B
:1026D000F2CF4695F1DF08C0161617061806991FA7
:1026E000F1CF86957105610508940895E894BB279C
:1026F00066277727CB0197F908955058BB27AA275B
:102700000ED0C1CFB2DF30F0B7DF20F031F49F3F01
:1027100011F41EF4A7CF0EF4E095E7FB9DCFE92F4F
:10272000C3DF80F3BA17620773078407950718F0B1
:1027300071F49EF5DBCF0EF4E0950B2EBA2FA02D91
:102740000B01B90190010C01CA01A0011124FF275E
:10275000591B99F0593F50F4503E68F11A16F04059
:10276000A22F232F342F4427585FF3CF4695379558
:102770002795A795F0405395C9F77EF41F16BA0B1D
:10278000620B730B840BBAF09150A1F0FF0FBB1FCB
:10279000661F771F881FC2F70EC0BA0F621F731F14
:1027A000841F48F4879577956795B795F7959E3F71
:1027B00008F0B3CF9395880F08F09927EE0F9795FF
:1027C000879508950CD05FCF57DF40F04EDF30F093
:1027D00021F45F3F19F040CF511189CF43CF64DF1F
:1027E00098F39923C9F35523B1F3951B550BBB27D8
:1027F000AA2762177307840738F09F5F5F4F220F85
:10280000331F441FAA1FA9F333D00E2E3AF0E0E87D
:1028100030D091505040E695001CCAF729D0FE2FC9
:1028200027D0660F771F881FBB1F2617370748075B
:10283000AB07B0E809F0BB0B802DBF01FF27935811
:102840005F4F2AF09E3F510568F006CF50CF5F3FA3
:10285000ECF3983EDCF3869577956795B795F795F9
:102860009F5FC9F7880F911D9695879597F90895F1
:10287000E1E0660F771F881FBB1F6217730784078D
:10288000BA0720F0621B730B840BBA0BEE1F88F79C
:10289000E095089504D06894B11129CF08950CDF14
:1028A00088F09F5790F0B92F9927B751A0F0D1F039
:1028B000660F771F881F991F1AF0BA95C9F712C0C3
:1028C000B13081F013DFB1E0089510CF672F782F7A
:1028D0008827B85F39F0B93FCCF38695779567952F
:1028E000B395D9F73EF490958095709561957F4F9B
:1028F0008F4F9F4F089529DE08F48FEF089511F44C
:102900000EF4B0CE3EC0D8DED0F39923D9F3CEF387
:102910009F57550B87FF43D00024A0E640EA900163
:1029200080585695979528F4805C660F771F881F0E
:1029300020F026173707480730F4621B730B840B0F
:10294000202931294A2BA695179407942025312553
:102950004A2758F7660F771F881F20F0261737077A
:10296000480730F4620B730B840B200D311D411DA1
:10297000A09581F7B901842F9158880F9695879576
:1029800008959F3F31F0915020F487957795679592
:10299000B795880F911D9695879597F90895915051
:1029A0005040660F771F881FD2F70895052E97FBBA
:1029B00016F400940FD057FD05D01CD007FC02D0B0
:1029C00046F408C050954095309521953F4F4F4FA4
:1029D0005F4F089590958095709561957F4F8F4FCB
:1029E0009F4F0895EE0FFF1F881F8BBF0790F69132
:1029F000E02D1994A1E21A2EAA1BBB1BFD010DC0EC
:102A0000AA1FBB1FEE1FFF1FA217B307E407F5079E
:102A100020F0A21BB30BE40BF50B661F771F881F7A
:102A2000991F1A9469F760957095809590959B0110
:102A3000AC01BD01CF010895CF93DF9382309105A2
:102A400010F482E090E0E0918A04F0918B0420E0A1
:102A500030E0C0E0D0E0309711F14081518148175B
:102A60005907C0F04817590761F482819381209774
:102A700019F09B838A832BC090938B0480938A04E4
:102A800026C02115310519F04217530718F49A0191
:102A9000BE01DF01EF010280F381E02DDCCF2115C3
:102AA000310509F1281B390B2430310590F41296B9
:102AB0008D919C9113976115710521F0FB01938312
:102AC000828304C090938B0480938A04FD01329624
:102AD00044C0FD01E20FF31F81939193225031090D
:102AE0002D933C933AC02091880430918904232B84
:102AF00041F4209102023091030230938904209323
:102B0000880420910002309101022115310541F421
:102B10002DB73EB74091040250910502241B350B9E
:102B2000E0918804F0918904E217F307A0F42E1BCA
:102B30003F0B2817390778F0AC014E5F5F4F241721
:102B4000350748F04E0F5F1F509389044093880467
:102B50008193919302C0E0E0F0E0CF01DF91CF914B
:102B600008950F931F93CF93DF93009709F48CC0C0
:102B7000FC0132971382128200918A0410918B0417
:102B80000115110581F420813181820F931F20915D
:102B90008804309189042817390779F5F09389045E
:102BA000E093880471C0D80140E050E0AE17BF0741
:102BB00050F412962D913C911397AD0121153105DA
:102BC00009F1D901F3CF9D01DA01338322836081BA
:102BD0007181860F971F8217930769F4EC01288192
:102BE0003981260F371F2E5F3F4F318320838A8123
:102BF0009B8193838283452B29F4F0938B04E0938C
:102C00008A0442C01396FC93EE931297ED0149910A
:102C100059919E01240F351FE217F30771F480814B
:102C20009181840F951F029611969C938E938281B9
:102C3000938113969C938E931297E0E0F0E0D80175
:102C400012968D919C911397009719F0F8018C01C1
:102C5000F6CF8D919C9198012E5F3F4F820F931F6D
:102C600020918804309189042817390769F4309736
:102C700029F410928B0410928A0402C013821282EB
:102C80001093890400938804DF91CF911F910F91D5
:102C900008956F927F928F929F92AF92BF92CF9240
:102CA000DF92EF92FF920F931F93CF93DF93EC018C
:102CB000009781F4CB01DF91CF911F910F91FF908D
:102CC000EF90DF90CF90BF90AF909F908F907F90CC
:102CD0006F90B2CEFC01E60FF71F9C012250310924
:102CE000E217F30708F4A8C0D9010D911C911197C0
:102CF00006171707A8F00530110508F49BC0C80196
:102D000004978617970708F495C002501109061B0F
:102D1000170B019311936D937C93CF0122DF8AC02F
:102D20005B01A01AB10A4C01800E911EA0918A0489
:102D3000B0918B0440E050E0E12CF12C109709F4A5
:102D40004AC0A815B905D1F56D907C901197630123
:102D500082E0C80ED11CCA14DB0480F1A3014A1919
:102D60005B096A0182E0C80ED11C1296BC901297D2
:102D70001396AC91B5E0CB16D10440F0B282A38398
:102D800051834083D9016D937C930AC00E5F1F4F1E
:102D9000C301800F911FF90191838083EB2DFA2FDE
:102DA000E114F10431F0D7011396FC93EE931297DE
:102DB00041C0F0938B04E0938A043CC08D919C91B8
:102DC00011974817590708F4AC017D0112960D9030
:102DD000BC91A02DB3CF809188049091890488156F
:102DE0009905E1F446175707C8F4809100029091C5
:102DF0000102009741F48DB79EB7409104025091B3
:102E00000502841B950BE817F907B0F4F0938904C9
:102E1000E0938804F901718360830CC0CB010CDE60
:102E20007C01009749F0A801BE011BD0CE0199DEBC
:102E3000C70104C0CE0102C080E090E0DF91CF91D5
:102E40001F910F91FF90EF90DF90CF90BF90AF90C8
:102E50009F908F907F906F90089581E090E0F8941C
:102E60001BC0FB01DC0102C001900D92415050409B
:102E7000D8F70895FC018191861721F08823D9F7AE
:102E8000992708953197CF010895FB01DC01019046
:0C2E90000D920020E1F70895F894FFCFA8
:102E9C0000008C04800000000000210885073C081D
:102EAC0093037D0345032403F002CF027902410210
:102EBC0000000000B501DE0A4E01FB017F015D013F
:082ECC0071014F4B000D0A00DB
:00000001FF
