:020000040800F2
:10000000D0F400206DD30008F5030008F7030008C2
:10001000FB030008FF0300080304000800000000C1
:1000200000000000000000000000000007040008BD
:1000300009040008000000000B0400080D0400087B
:1000400087D3000887D3000887D3000887D3000828
:1000500087D3000887D3000887D3000887D3000818
:1000600087D3000887D3000887D3000887D3000808
:1000700087D3000887D3000887D3000887D30008F8
:1000800087D3000887D3000887D3000887D30008E8
:1000900087D3000887D3000887D3000887D30008D8
:1000A00087D3000887D3000887D3000887D30008C8
:1000B00087D3000887D3000887D3000887D30008B8
:1000C00087D3000887D3000887D3000887D30008A8
:1000D00087D300087DD10008D5D2000887D3000857
:1000E00087D3000887D3000887D3000887D3000888
:1000F00087D3000887D3000887D3000887D3000878
:1001000087D3000887D3000887D3000887D3000867
:1001100087D3000887D3000887D3000887D3000857
:1001200087D3000887D3000887D3000887D3000847
:1001300087D3000887D3000887D3000887D3000837
:1001400087D3000887D3000887D3000887D3000827
:1001500087D3000887D3000887D3000887D3000817
:1001600087D3000887D3000887D3000887D3000807
:1001700087D3000887D3000887D3000887D30008F7
:1001800087D3000887D3000800F002F800F06BF86E
:100190000AA090E8000C82448344AAF10107DA45E2
:1001A00001D100F060F8AFF2090EBAE80F0013F0C9
:1001B000010F18BFFB1A43F001031847401001005C
:1001C000601001000A444FF0000C10F8013B13F0DE
:1001D000070408BF10F8014B1D1108BF10F8015BA0
:1001E000641E05D010F8016B641E01F8016BF9D193
:1001F00013F0080F1EBF10F8014BAD1C0C1B09D1EA
:100200006D1E58BF01F801CBFAD505E014F8016B5B
:1002100001F8016B6D1EF9D59142D6D370470000ED
:100220000023002400250026103A28BF78C1FBD8FF
:10023000520728BF30C148BF0B60704764290EF0D9
:10024000458378290EF07E8373290EF00685002001
:1002500070471FB50FF0E3FA9DE803000EF02AFC8B
:100260001FBD10B510BD0EF07CFD1146FFF7F1FF6C
:1002700000F008F80EF09AFD03B4FFF7F2FF03BC9C
:100280000CF0FCFE1CB54FF4A0600DF08FF8A82018
:100290000CF072FE4FF4E1300CF0FFFE0CF0ABFFFF
:1002A00005F06AFE06F048FD0AF0C4FC3E49086805
:1002B00080479FED3E0A3C4880ED090A9FED3C0ACD
:1002C00080ED0A0A6FF00B00374988856FF0150042
:1002D000C885002081F83000364908804FF6FF704D
:1002E00006F0F8FC34A018210B46F022CDE90010EE
:1002F0000A210F200AF06BFC0020354908604FF4FA
:10030000FA700CF09BFE01203249C1F8A4024FF6AE
:10031000FF7006F0DFFC30A018210B46F022CDE97B
:1003200000100A210F200AF052FC00F079F93AE09F
:1003300000200AF09DFC0446012C2BD101F09DFC0D
:1003400048B300202249086025A018210B46F0225E
:10035000CDE900100A210F200AF039FC05F017FD45
:1003600001201C49C1F8A4024FF6FF7028234FF466
:10037000C8720021009008460AF090F91CA01821CC
:100380000B46F022CDE900100A210F200AF01FFCD5
:1003900000BFFEE700BF00F0E4FD08B100F040F947
:1003A00064200CF04BFEC3E7DC0000200FA1873D6A
:1003B0008963B03DD4000020496E697469616C693D
:1003C0007365207461626C65732E2E2E0000000030
:1003D000A48242420080424252656164792E00004C
:1003E00043616C63756C6174652E2E2E00000000F5
:1003F0004F4B2100704700BFFEE700BFFEE700BF84
:10040000FEE700BFFEE77047704770477047000087
:100410000CB50020019000907648006840F48030D0
:100420007449086000BF7348006800F40030009011
:100430000198401C0190009818B90198B0F5A04FA0
:10044000F1D16C48006800F4003010B10120009038
:1004500001E0002000900098012846D16548403016
:10046000006840F08050634940310860624800688D
:1004700040F44040604908605E48083000685D49CB
:10048000083108600846006840F4004008600846EB
:10049000006840F4A05008605848091F0860081F11
:1004A000006840F08070091F086000BF5148006874
:1004B00000F000700028F9D040F205705049086043
:1004C0004C480830006820F003004A4908310860B1
:1004D0000846006840F00200086000BF4548083048
:1004E000006800F00C000828F8D10CBD10B5454894
:1004F000006840F47000434908603E48006840F0DE
:1005000001003C49086000203A4908310860394838
:1005100000683D490840374908603C48091D0860AB
:10052000081F006820F48020091F0860002031495E
:100530000C310860FFF76CFF4FF0006031498039E3
:10054000086010BD70B500200022022300240221A3
:10055000284D08352D6805F00C0020B1042806D080
:10056000082834D107E02A4D2A4E356033E02A4D61
:10057000284E35602FE01F4D2D1D2D68C5F380548A
:100580001C4D2D1D2D6805F03F0154B1224DB5FBCA
:10059000F1F5184E361D3668C6F3881605FB06F2CF
:1005A00009E01B4DB5FBF1F5124E361D3668C6F35A
:1005B000881605FB06F20F4D2D1D2D68C5F301456C
:1005C0006D1C6B00B2FBF3F5124E356003E0104D6D
:1005D000104E356000BF00BF064D08352D68C5F3CD
:1005E00003150E4E705D0B4D2D68C540094E3560EC
:1005F00070BD000000380240007000400854400701
:10060000003C024088ED00E0FFFFF6FE10300024C1
:100610000024F4000000002000127A0004000020F2
:1006200008B5FE480078401EFD4931F810006423EB
:100630001A463221009008460AF030F8F748407810
:10064000401EF74931F810006423962232210090B1
:1006500018460AF023F8F1488078401EF04931F836
:1006600010006423C8223221009096200AF016F868
:10067000EA48C078401EEA4931F810009623642207
:100680001146009032200AF009F8E5484089962387
:100690001A466421009008460AF000F8DF48007905
:1006A000401EDF4931F810009623C82264210090D3
:1006B000184609F0F3FFD9484079401ED84931F86F
:1006C0001000C823642296210090322009F0E6FF32
:1006D000D2488079401ED24931F81000C8239622B2
:1006E00011460090642009F0D9FFCC48C079401E23
:1006F000CB4931F81000C8231A46962100900846CD
:1007000009F0CCFF3223C822194618460AF052F8E5
:100710006423C822194632200AF04CF89623C822D6
:10072000194632200AF046F8C8231A4619463220E4
:100730000AF040F8C8233222114610460AF03AF86F
:10074000C8236422322110460AF034F8C8239622C6
:10075000322110460AF02EF8C8231A4632211846D4
:100760000AF028F8012018235522702100907820E3
:100770000AF0E2F8AB484079401EA94931F8100070
:1007800064234FF4967232210090FA2009F086FF1C
:10079000A4488079401EA24931F8100064234FF428
:1007A000AF72322100904FF4967009F077FF9D48A8
:1007B000C079401E9A4931F8100064239A00322112
:1007C00000904FF4AF7009F069FF9648C078401E62
:1007D000934931F8100096235A0064210090FA20C2
:1007E00009F05CFF8E48008896234FF4AF726421B5
:1007F0000090580009F052FF8A480079401E88494D
:1008000031F8100096234FF4C872642100904FF421
:10081000AF7009F043FF83480078401E804931F8EB
:100820001000C8234FF4967296210090FA2009F028
:1008300035FF7C484078401E794931F81000C823C4
:100840004FF4AF7296210090480009F027FF7548D9
:100850008078401E724931F81000C8235A00962152
:1008600000904FF4AF7009F019FF3223DA001946F7
:10087000FA2009F09FFF64239A001946FA2009F034
:1008800099FF96234FF4C8721946FA2009F092FF97
:10089000C8235A001946FA2009F08CFFC823FA220F
:1008A0003221104609F086FFC8234FF49672322198
:1008B000104609F07FFFC8234FF4AF723221104673
:1008C00009F078FFC8235A003221104609F072FF60
:1008D000012018234422702100904FF4A0700AF0E8
:1008E0002BF851488078401E4D4931F810004FF4E4
:1008F00096736422FA210090322009F0CFFE4A4814
:100900004078401E464931F810004FF49673962205
:10091000FA210090642009F0C1FE43480078401E8F
:100920003F4931F810004FF49673C822FA21009025
:10093000962009F0B3FE3C480079401E384931F852
:1009400010004FF4AF7364224FF496710090322080
:1009500009F0A4FE324880884FF4AF73962251000C
:100960000090642009F09AFE2F48C078401E2C4960
:1009700031F810004FF4AF73C8224FF49671009015
:10098000962009F08BFE2848C079401E244931F892
:1009900010004FF4C87364224FF4AF7100903220FE
:1009A00009F07CFE20488079401E1D4931F8100076
:1009B0004FF4C87396224FF4AF710090642009F091
:1009C0006DFE19484079401E154931F810004FF46A
:1009D000C873C8224FF4AF710090962009F05EFEF4
:1009E000FA23C8221946322009F0E4FE4FF4967328
:1009F000C8221946322009F0DDFE4FF4AF73C82239
:100A00001946322009F0D6FE4FF4C873C8221946A1
:100A1000322009F0CFFE4FF4C87307E01400002025
:100A200028F800081C000020240000203222FA21AF
:100A3000104609F0BFFE4FF4C8736422FA21104635
:100A400009F0B8FE4FF4C8739622FA21104609F057
:100A5000B1FE4FF4C873C822FA21104609F0AAFE6D
:100A6000012018234C224FF49C710090782009F04B
:100A700063FFFE480078401EFD4931F810004FF436
:100A800096731A46FA210090084609F007FEF748C7
:100A90004078401EF64931F810004FF496734FF439
:100AA000AF72FA210090184609F0F8FDEF488078FF
:100AB000401EEF4931F810004FF496734FF4C8729E
:100AC000FA2100904FF4AF7009F0E8FDE748C078D4
:100AD000401EE74931F810004FF4AF734FF496729F
:100AE00011460090FA2009F0D9FDE148C0884FF482
:100AF000AF731A464FF496710090084609F0CEFD88
:100B0000DA480079401EDA4931F810004FF4AF732B
:100B10004FF4C8724FF496710090184609F0BEFD6C
:100B2000D2484079401ED24931F810004FF4C873C2
:100B30004FF496724FF4AF710090FA2009F0AEFDB9
:100B4000CA488079401ECA4931F810004FF4C87372
:100B50004FF4AF72114600904FF4967009F09EFD6D
:100B6000C248C079401EC24931F810004FF4C87322
:100B70001A464FF4AF710090084609F08FFDFA2332
:100B80004FF4C8721946184609F014FE4FF49673D4
:100B90004FF4C8721946FA2009F00CFE4FF4AF73F7
:100BA0004FF4C8721946FA2009F004FE4FF4C873D6
:100BB0001A461946FA2009F0FDFD4FF4C873FA22CF
:100BC0001146104609F0F6FD4FF4C8734FF49672C3
:100BD000FA21104609F0EEFD4FF4C8734FF4AF72DE
:100BE000FA21104609F0E6FD4FF4C8731A46FA21BF
:100BF000184609F0DFFD0120182352224FF49C71A2
:100C000000904FF4A07009F097FE9A480078401EBB
:100C1000974931F810004FF4FA7364224FF4E171F0
:100C20000090322009F03AFD92484078401E9049E9
:100C300031F810004FF4FA7396224FF4E1710090EE
:100C4000642009F02BFD8B488078401E884931F8DC
:100C500010004FF4FA73C8224FF4E171009096200F
:100C600009F01CFD8348C078401E814931F810000E
:100C700040F2262364224FF4FA710090322009F0EA
:100C80000DFD7B48408840F2262396224FF4FA71EE
:100C90000090642009F002FD76480079401E7449F6
:100CA00031F8100040F22623C8224FF4FA71009068
:100CB000962009F0F3FC6F484079401E6C4931F8EA
:100CC00010004FF41673642240F226210090322067
:100CD00009F0E4FC67488079401E654931F810004E
:100CE0004FF41673962240F226210090642009F0FA
:100CF000D5FC6048C079401E5D4931F810004FF4C2
:100D00001673C82240F226210090962009F0C6FCF6
:100D10004FF4E173C8221946322009F04BFD4FF41D
:100D2000FA73C8221946322009F044FD40F2262306
:100D3000C8221946322009F03DFD4FF41673C8222F
:100D40001946322009F036FD4FF4167332224FF463
:100D5000E171104609F02EFD4FF4167364224FF432
:100D6000E171104609F026FD4FF4167396224FF4F8
:100D7000E171104609F01EFD4FF41673C8224FF4BE
:100D8000E171104609F016FD0120182346224102A8
:100D90000090782009F0D0FD37488078401E344913
:100DA00031F810004FF4FA734FF496724FF4E1717A
:100DB0000090FA2009F072FC2F484078401E2C4920
:100DC00031F810004FF4FA734FF4AF724FF4E17141
:100DD00000904FF4967009F061FC27480078401E9F
:100DE000234931F810004FF4FA734FF4C8724FF4EE
:100DF000E17100904FF4AF7009F050FC1E4800798B
:100E0000401E1B4931F8100040F226234FF4967221
:100E10004FF4FA710090FA2009F040FC1448008960
:100E200040F226234FF4AF724FF4FA7100904FF462
:100E3000967009F033FC1048C078401E0C4931F818
:100E4000100040F226234FF4C8724FF4FA7100905C
:100E50004FF4AF7009F022FC0748C079401E0449E6
:100E600031F810004FF416735A1007E02C000020E0
:100E700028F80008340000203C00002040F2262121
:100E80000090FA2009F00AFCF8488079401EF849E1
:100E900031F810004FF416734FF4AF7240F2262170
:100EA0000090581009F0FAFBF0484079401EF049D4
:100EB00031F810004FF416734FF4C87240F2262137
:100EC00000904FF4AF7009F0E9FB4FF4E1734FF479
:100ED000C8721946FA2009F06DFC4FF4FA734FF40A
:100EE000C8721946FA2009F065FC40F226234FF437
:100EF000C8721946FA2009F05DFC4FF416734FF4DE
:100F0000C8721946FA2009F055FC4FF41673FA22FC
:100F10004FF4E171104609F04DFC4FF416735A106E
:100F20004FF4E171104609F045FC4FF416734FF48D
:100F3000AF724FF4E171104609F03CFC4FF41673A8
:100F40004FF4C8724FF4E171104609F033FC0120F0
:100F500018234222410200904FF4A07009F0ECFCEB
:100F600008BD10B5C348416800208847C14890F8C3
:100F7000200000F0800000287ED0BF48006808B93B
:100F8000012000E00020BC490860BA488089BB49C4
:100F90000988884271DAB748C08AB84949888842C6
:100FA000F8DAB4488089322811DDB2488089642893
:100FB0000DDAB048C08A322809DDAE48C08A6428FC
:100FC00005DA0020AE490870AE49087006E2A9486B
:100FD0008089642812DDA748808996280EDAA54802
:100FE000C08A32280ADDA348C08A642806DA0020B5
:100FF000A34908700120A3490870E7E79D4880894C
:10100000962812DD9B488089C8280EDA9948C08A44
:1010100032280ADD9748C08A642806DA00209849F9
:101020000870022097490870D0E7924880893228DA
:1010300012DD9048808964280EDA8E48C08A6428C0
:101040000ADD8C48C08A962806DA00208C49087090
:1010500003208C490870B9E786488089962815DDF9
:1010600084488089C82811DA8248C08A64280DDD46
:101070008048C08A962801E0F2E3F2E306DA002015
:101080007F49087004207F4908709FE7794880896C
:10109000322812DD7748808964280EDA7548C08AC4
:1010A00096280ADD7348C08AC82806DA00207449E9
:1010B000087005207349087088E76E4880896428A5
:1010C00012DD6C48808996280EDA6A48C08A962814
:1010D0000ADD6848C08AC82806DA00206849087016
:1010E00006206849087071E762488089962812DDF9
:1010F00060488089C8280EDA5E48C08A96280ADDD2
:101100005C48C08AC82806DA00205D4908700720BC
:101110005C4908705AE757488089FA2813DD55481A
:101120008089B0F5967F0EDA5248C08A32280ADDEF
:101130005048C08A642806DA012051490870052009
:101140005049087042E74B488089B0F5967F13DD1F
:1011500048488089B0F5AF7F0EDA4648C08A322809
:101160000ADD4448C08A642806DA01204449087030
:1011700006204449087029E73E488089B0F5AF7FD2
:1011800013DD3C488089B0F5C87F0EDA3948C08A43
:1011900032280ADD3748C08A642806DA0120384937
:1011A000087007203749087010E732488089FA280C
:1011B00013DD30488089B0F5967F0EDA2D48C08A5D
:1011C00064280ADD2B48C08A962806DA01202C49BB
:1011D000087003202B490870F8E626488089B0F58E
:1011E000AF7F13DD23488089B0F5C87F0EDA214830
:1011F000C08A64280ADD1F48C08A962806DA0120C2
:101200001F49087004201F490870DFE619488089CB
:10121000FA2813DD17488089B0F5967F0EDA154855
:10122000C08A96280ADD1348C08AC82806DA012039
:1012300013490870002013490870C7E60D488089DB
:10124000B0F5967F20DD0B488089B0F5AF7F1BDAC3
:101250000848C08A962817DD0648C08AC82813DACD
:1012600001200749087007490870AFE63C000020DC
:1012700028F80008DC000020A8824242CC020020AE
:101280004400002045000020FC488089B0F5AF7F75
:1012900013DDFA488089B0F5C87F0EDAF748C08AB6
:1012A00096280ADDF548C08AC82806DA0120F449E4
:1012B00008700220F349087088E6F04880893228D7
:1012C00012DDEE48808964280EDAEC48C08AFA28DC
:1012D0000ADDEA48C08AB0F5967F05DA0220E849BF
:1012E0000870E849087071E6E4488089642813DDD5
:1012F000E248808996280FDAE048C08AFA280BDD98
:10130000DE48C08AB0F5967F06DA0220DC49087014
:101310000120DC49087059E6D8488089962813DDF9
:10132000D6488089C8280FDAD448C08AFA280BDD4D
:10133000D248C08AB0F5967F06DA0220D0490870FC
:101340000020D049087041E6CC488089322814DD5D
:10135000CA488089642810DAC848C08AB0F5967FE8
:101360000BDDC648C08AB0F5AF7F06DA0220C4495B
:1013700008700420C349087028E6C0488089962870
:1013800014DDBE488089C82810DABC48C08AB0F590
:10139000967F0BDDB948C08AB0F5AF7F06DA022030
:1013A000B74908700320B749087017E0B34880892F
:1013B000322814DDB1488089642810DAAF48C08A29
:1013C000B0F5AF7F0BDDAD48C08AB0F5C87F06DA57
:1013D0000220AB4908700720AA49087009E2A74813
:1013E0008089642814DDA5488089962810DAA348EE
:1013F000C08AB0F5AF7F0BDDA048C08AB0F5C87FCA
:1014000006DA02209E49087006209E490870F0E125
:101410009A488089962814DD98488089C82810DA6F
:101420009648C08AB0F5AF7F0BDD9448C08AB0F50E
:10143000C87F06DA02209249087005209149087099
:10144000D7E18E488089FA2814DD8C488089B0F570
:10145000967F0FDA8948C08AFA280BDD8748C08A50
:10146000B0F5967F06DA032085490870002085498B
:101470000870FCE381488089B0F5967F14DD7F48D1
:101480008089B0F5AF7F0FDA7C48C08AFA280BDD7F
:101490007A48C08AB0F5967F06DA0320784908704A
:1014A000012078490870E2E374488089B0F5AF7F85
:1014B00014DD72488089B0F5C87F0FDA6F48C08AA2
:1014C000FA280BDD6D48C08AB0F5967F06DA032056
:1014D0006B49087002206B490870C8E3674880892F
:1014E000FA2814DD65488089B0F5967F0FDA6348E5
:1014F000C08AB0F5967F0ADD6048C08AB0F5AF7F3C
:1015000005DA03205E4908705E490870AFE35B4866
:101510008089B0F5AF7F15DD58488089B0F5C87F68
:1015200010DA5648C08AB0F5967F0BDD5348C08A62
:10153000B0F5AF7F06DA0320514908700420514905
:10154000087094E34D488089FA2815DD4B4880895E
:10155000B0F5967F10DA4948C08AB0F5AF7F0BDD51
:101560004648C08AB0F5C87F06DA032044490870AF
:101570000520444908707AE340488089B0F5967F99
:1015800015DD3E488089B0F5AF7F10DA3B48C08A50
:10159000B0F5AF7F0BDD3948C08AB0F5C87F06DAF9
:1015A0000320374908700620364908705FE3334846
:1015B0008089B0F5AF7F15DD30488089B0F5C87FF0
:1015C00010DA2E48C08AB0F5AF7F0BDD2B48C08AF9
:1015D000B0F5C87F06DA0320294908700720294999
:1015E000087044E325488089322814DD2348808927
:1015F000642810DA2148C08AB0F5E17F0BDD1F486E
:10160000C08AB0F5FA7F06DA04201D490870002070
:101610001C4908702BE319488089642814DD174899
:101620008089962810DA1548C08AB0F5E17F0BDD75
:101630001248C08AB0F5FA7F06DA04201049087013
:1016400001201049087012E30C48808996281BDDA0
:101650000A488089C82817DA0848C08AB0F5E17FAF
:1016600012DD0648C08AB0F5FA7F0DDA042004497D
:101670000870022003490870F9E20000DC00002035
:101680004400002045000020FD488089322815DDF7
:10169000FB488089642811DAF948C08AB0F5FA7FDE
:1016A0000CDDF748C08A40F22621884206DA042081
:1016B000F44908700320F4490870D8E2F0488089A2
:1016C000962814DDEE488089C82810DAEC48C08AD4
:1016D000B0F5FA7F0BDDEA48C08A40F22621884245
:1016E00005DA0420E7490870E7490870BFE2E448DA
:1016F0008089322815DDE2488089642811DAE048C3
:10170000C08A40F2262188420BDDDD48C08AB0F550
:10171000167F06DA0420DB4908700520DA490870D4
:10172000A5E2D7488089642815DDD54880899628A8
:1017300011DAD348C08A40F2262188420BDDD04816
:10174000C08AB0F5167F06DA0420CE49087006205C
:10175000CD4908708BE2CA488089962815DDC848B3
:101760008089C82811DAC648C08A40F226218842FA
:101770000BDDC348C08AB0F5167F06DA0420C149E4
:1017800008700720C049087071E2BD488089FA28B6
:1017900015DDBB488089B0F5967F10DAB848C08A5D
:1017A000B0F5E17F0BDDB648C08AB0F5FA7F06DA06
:1017B0000520B44908700220B349087057E2B048C8
:1017C0008089B0F5967F15DDAD488089B0F5AF7F93
:1017D00010DAAB48C08AB0F5E17F0BDDA848C08ABB
:1017E000B0F5FA7F06DA0520A64908700120A6495F
:1017F00008703CE2A2488089B0F5AF7F15DDA048B3
:101800008089B0F5C87F10DA9D48C08AB0F5E17FC5
:101810000BDD9B48C08AB0F5FA7F06DA05209949AE
:10182000087000209849087021E295488089FA28BC
:1018300018DD93488089B0F5967F13DA9048C08A06
:10184000B0F5FA7F0EDD8E48C08A40F2262188422C
:1018500008DA05208B49087004208B49087006E2DD
:1018600009E206E286488089B0F5AF7F16DD84483C
:101870008089B0F5C87F11DA8148C08AB0F5FA7F57
:101880000CDD7F48C08A40F22621884206DA052016
:101890007C49087003207C490870E8E17848808919
:1018A000FA2816DD76488089B0F5967F11DA7448FB
:1018B000C08A40F2262188420BDD7148C08AB0F50B
:1018C000167F06DA05206F49087007206E490870F8
:1018D000CDE16B488089B0F5967F16DD6848808938
:1018E000B0F5AF7F11DA6648C08A40F226218842FF
:1018F0000BDD6348C08AB0F5167F06DA0520614922
:101900000870062060490870B1E15D488089B0F533
:10191000AF7F15DD5A488089B0F5C87F10DA584886
:10192000C08A40F2262188420ADD5548C08AB0F5B7
:10193000167F05DA0520534908705349087096E16F
:101940004F488089642839DD4D488089962835DAEA
:101950004B48C08A642831DD4948C08A96282DDA70
:1019600048480078062828D2DFE800F003090F1560
:101970001B2106204549444A127888541DE0062060
:101980004349414A1278885417E0062041493E4AAB
:101990001278885411E006213F483B4A127881545E
:1019A0000BE006213D48384A1278815405E00620B4
:1019B0003B49354A1278885400BF58E13048808945
:1019C000B0F5967F3ADD2E488089B0F5AF7F35DAE5
:1019D0002B48C08A642831DD2948C08A96282DDA30
:1019E00028480078062828D2DFE800F003090F1500
:1019F0001B2101212548244A127881541DE0012031
:101A00002349214A1278885417E0012021491E4AAF
:101A10001278885411E001211F481B4A1278815422
:101A20000BE001201D49184A1278885405E0012175
:101A30001B48154A1278815400BF18E1104880896C
:101A400064284EDD0E48808996284ADA0C48C08A00
:101A5000B0F5967F45DD0A48C08AB0F5AF7F40DA21
:101A60000848007806283BD2DFE800F0031C222853
:101A70002E3403210548044A1278815430E00000D6
:101A8000DC0000204400002045000020140000205D
:101A90001C000020240000202C0000203400002026
:101AA0003C0000200320FD49FD4A1278885417E0CD
:101AB0000320FC49FA4A1278885411E00321FA48BD
:101AC000F74A127881540BE00321F848F44A12785F
:101AD000815405E00320F649F14A1278885400BF8A
:101AE000C5E0F4488089B0F5967F3CDDF1488089F7
:101AF000B0F5AF7F37DAEF48C08AB0F5967F32DDB8
:101B0000EC48C08AB0F5AF7F2DDAEB4800780628A4
:101B100028D2DFE800F003090F151B210420E74954
:101B2000DF4A127888541DE00421DC48DC4A127830
:101B3000815417E00420DB49D94A1278885411E017
:101B40000421D948D64A127881540BE00420D749A1
:101B5000D34A1278885405E00420D549D04A127837
:101B6000885400BF83E0D348808964283CDDD14895
:101B70008089962838DACF48C08AB0F5FA7F33DDFD
:101B8000CC48C08A40F2262188422DDACA48007823
:101B9000062828D2DFE800F003090F151B210221D7
:101BA000C648BF4A127881541DE00221BB48BC4A96
:101BB0001278815417E00221BA48B94A1278815448
:101BC00011E00220B849B64A127888540BE002218D
:101BD000B648B34A1278815405E00220B449B04AAD
:101BE0001278885400BF42E0B2488089B0F5967FF1
:101BF0003DDDB0488089B0F5AF7F38DAAD48C08AA6
:101C0000B0F5FA7F33DDAB48C08A40F22621884226
:101C10002DDAA9480078062828D2DFE800F0030969
:101C20000F151B210521A5489D4A127881541DE0FE
:101C300005209A499A4A1278885417E00521994854
:101C4000974A1278815411E005219748944A1278F6
:101C500081540BE005219548914A1278815405E0A2
:101C6000052193488E4A1278815400BF00BF01209D
:101C700010BD0020FCE70020FAE7F0B500270022A5
:101C80000023002400250026002125E08B48405C2D
:101C9000012801D1781CC7B28848405C022801D1D4
:101CA000501CC2B28548405C032801D1581CC3B205
:101CB0008248405C042801D1601CC4B27F48405C6B
:101CC000052801D1681CC5B27C48405C062801D1BA
:101CD000701CC6B2481CC1B20829D7DB002125E020
:101CE0006E48405C012801D1781CC7B26B48405C4B
:101CF000022801D1501CC2B26848405C032801D1BF
:101D0000581CC3B26548405C042801D1601CC4B2B1
:101D10006248405C052801D1681CC5B25F48405C40
:101D2000062801D1701CC6B2481CC1B20829D7DBF5
:101D3000002125E05B48405C012801D1781CC7B236
:101D40005848405C022801D1501CC2B25548405C42
:101D5000032801D1581CC3B25248405C042801D169
:101D6000601CC4B24F48405C052801D1681CC5B254
:101D70004C48405C062801D1701CC6B2481CC1B258
:101D80000829D7DB002125E04748405C012801D124
:101D9000781CC7B24448405C022801D1501CC2B232
:101DA0004148405C032801D1581CC3B23E48405C06
:101DB000042801D1601CC4B23B48405C052801D115
:101DC000681CC5B23848405C062801D1701CC6B2F8
:101DD000481CC1B20829D7DB002125E03348405C0C
:101DE000012801D1781CC7B23048405C022801D1DB
:101DF000501CC2B22D48405C032801D1581CC3B20C
:101E00002A48405C042801D1601CC4B22748405CC9
:101E1000052801D1681CC5B22448405C062801D1C0
:101E2000701CC6B2481CC1B20829D7DB002125E0CE
:101E30001F48405C012801D1781CC7B21C48405C97
:101E4000022801D1501CC2B21948405C032801D1BC
:101E5000581CC3B21648405C042801D1601CC4B2AF
:101E60001348405C052801D1681CC5B21048405C8D
:101E7000062801D1701CC6B2481CC1B20829D7DBA4
:101E8000082F1DD1082A1BD1082B19D1082C17D1D6
:101E9000082D15D1082E13D10120F0BD1C00002003
:101EA00045000020240000202C00002034000020E9
:101EB0003C000020DC000020440000201400002032
:101EC0000020EAE770B50446002516E0615DFE4893
:101ED0000CF052FB00BF4021FB480CF0FDFB012839
:101EE000F9D1615DF9480CF047FB00BF4021F7488C
:101EF0000CF0F2FB0128F9D16D1C605D0028E5D1E2
:101F000021E0F348008800F4004058B10020F04977
:101F10000880F04800784F2815D1EE4840784B28CB
:101F200011D111E0EC48008800F4004058B10020C5
:101F3000E9490880E94800784F2804D1E74840780B
:101F40004B2800D100E0DCE700BF70BD10B5E448CD
:101F500084780078E249887008464079087008461D
:101F6000C07948710846C4714478C0784870084602
:101F70008079C87008460079887108460471D9488C
:101F80000478D9480078D7490870D8488078D6496D
:101F90000870D7488078D5498870D5488470D14872
:101FA0004478D1484078CF494870D0484078CE49ED
:101FB0004870CF484078CD494870CD484470C948F2
:101FC0008478C9488078C7498870C8480078C6496D
:101FD0008870C7480078C5490870C5480470C5A016
:101FE000FFF770FFFEF71CFB10BD10B5BC48C479AD
:101FF0004079BB49C8710846007848710846807826
:102000000870084684700479807908710846C078A1
:10201000887108464078C87008464470B44884788F
:10202000B2488078B2498870AF480078AF4988706C
:10203000AC480078AC490870AA480470AC484478B1
:10204000AA484078AA494870A7484078A7494870EC
:10205000A4484078A4494870A2484470A448047831
:10206000A2480078A24908709F4880789F4908706C
:102070009C4880789C4988709A4884709EA0FFF79D
:1020800021FFFEF7CDFA10BD10B59948C47940790B
:102090009749C871084600784871084680780870EA
:1020A000084684700479807908710846C078887180
:1020B00008464078C870084644708948C4788B4800
:1020C000C0788749C8708D48C0788849C8708548ED
:1020D000C0788A49C8708348C470814804788348AE
:1020E00040797F49087085484079804948717D482A
:1020F0000078824948717B480470794844797B486C
:102100000078774948717D480078784908707548AB
:1021100040797A4908707348447179A0FFF7D2FE7C
:10212000FEF77EFA10BD10B57148847800787049CA
:1021300088700846407908700846C079487108469A
:10214000C4714478C078487008468079C8700846E1
:1021500000798871084604716248C4786748C0787D
:102160006049C8706148C0786449C8705C48C078EC
:102170005E49C8705A48C4705A4804785F4840792C
:1021800058490870594840795C494871544800786A
:10219000564948715248047052484479574800786B
:1021A0005049487151480078544908704C4840796A
:1021B0004E4908704A48447152A0FFF783FEFEF76B
:1021C0002FFA10BD10B548488478007846498870C9
:1021D0000846407908700846C07948710846C471BD
:1021E0004478C078487008468079C87008460079FD
:1021F0008871084604713A4804793A4800793849A8
:1022000008713E48007937490871384800793B49E0
:1022100008713648047132488478324880783049F1
:1022200088703648C0792F4988703048C079334962
:10223000C8712E48C4712A48C4792A48C0792849EF
:10224000C8712E4880782749C871284880782B4962
:102250008870264884702CA0FFF734FEFEF7E0F962
:1022600010BD10B52048C47940791F49C87108468F
:1022700000784871084680780870084684700479B0
:10228000807908710846C078887108464078C8701F
:1022900008464470154804791848007913490871B4
:1022A00010480079154908710D4800790D490871E9
:1022B0000B4804710D48C4791048C0790B49C871A6
:1022C000084880780D4921E000100140004400409A
:1022D0001E010020A20300201C010020DA020020C1
:1022E00014000020340000202C0000203C000020BE
:1022F0002400002055000000552700001C0000208D
:102300004C0000004C27000052000000C871FE483D
:102310008078FE498870FC488470FD488478FD48C8
:102320008078FB498870F948C079FA498870F64886
:10233000C079F649C871F448C471F7A0FFF7C2FD2F
:10234000FEF76EF910BD10B5F04884780078EF49BB
:1023500088700846407908700846C0794871084678
:10236000C4714478C078487008468079C8700846BF
:102370000079887108460471E3484479E748407958
:10238000E1494871E348C079E4494871E44800787C
:10239000E049C871E2480470DB488479DF48C078BE
:1023A000D9498871DB488079DC49C870DC48C0783D
:1023B000D8498871DA48C470D348C479D7480078BE
:1023C000D149C871D3484079D4490870D44840797C
:1023D000D0494871D2484471D2A0FFF773FDFEF78F
:1023E0001FF910BD10B5C948C4794079C749C871F3
:1023F000084600784871084680780870084684705E
:102400000479807908710846C07888710846407858
:10241000C87008464470C2480478BE48C079C049B4
:102420000870BE484079BB49C871B7484079BB497C
:102430004871B5484471BA48C478B6488079B849FB
:10244000C870B648C078B3498871AF488079B3493D
:10245000C870AD488471B2484479AE484079B049FB
:102460004871AE480078AB494871A748C079AB497C
:102470000870A548C471ACA0FFF724FDFEF7D0F8A2
:1024800010BD10B5A248C4794079A149C871084669
:10249000007848710846807808700846847004798E
:1024A000807908710846C078887108464078C870FD
:1024B0000846447094480478994880789249087096
:1024C00094488078964988709448C079914988707A
:1024D0009248C4718C484478914800798A49487080
:1024E0008C4840788E4908718C4800798949487039
:1024F0008A480471844884788948C0798249887000
:10250000844800788649C871844880788149087079
:102510008248847085A0FFF7D5FCFEF781F810BDD6
:1025200010B57B48847800787949887008464079EE
:1025300008700846C07948710846C4714478C0786C
:10254000487008468079C870084600798871084646
:1025500004717248C4796F4880787049C8717048B6
:1025600080786C498870684800786D498870664842
:1025700004706A4804796748407868490871684877
:1025800000796449487060484078654908715E4840
:102590004470624884785F48007860498870604879
:1025A000C0795C490870584880785D49C8715648C0
:1025B00084705FA0FFF786FCFEF732F810BD10B5FF
:1025C000E0E05148C078012803D1544840780228FF
:1025D00007D04F484078012805D14B484078022861
:1025E00001D1FFF702FD49480079012803D14C4889
:1025F000C078022807D04948C078012805D143484F
:10260000C078022801D1FFF7EDFE44488079012807
:1026100005D14048C078022801D1FFF784FD404829
:102620004078012805D138480079022801D1FFF708
:1026300018FE35484078012803D1354840780228F3
:102640000FD031480079012803D13548407802285D
:1026500007D02E484078012805D12B4880790228E0
:1026600001D1FFF773FC2948C078012803D12B481A
:10267000C078022817D025488079012803D1254841
:10268000807902280FD02648C078012803D11F483E
:102690000079022807D01C488079012805D11B4801
:1026A0004078022801D1FFF74EFE1948C078012872
:1026B00003D11A480079022817D018484078012819
:1026C00003D11148C07802280FD01448007901289E
:1026D00003D10F48C078022807D00E48C0780128DF
:1026E00005D10E488079022801D1FFF7CDFC0C48B6
:1026F0008079012803D10748007902282ED00448A8
:10270000007901281AD115E01400002034000020BF
:102710003C0000201C000020522700002400002064
:102720002C00002046000000462700004200000068
:1027300042270000FE48007902280FD0FC480079AB
:10274000012803D1FB480079022807D0FA48007914
:10275000012805D1F6488079022801D1FFF732FD22
:10276000F4488079012803D1F3484078022807D043
:10277000F1484078012805D1EE488079022801D13E
:10278000FFF77FFEEC48807901287FF41AAFEB4811
:1027900080790228F9D1B5E0E6488079012803D193
:1027A000E5484078032807D0E5480079012805D19D
:1027B000E048C078032801D1FFF7B2FEE048C078B6
:1027C000012803D1DD48C078032807D0D948C07854
:1027D000012805D1DA480079032801D1FFF7A3FCCD
:1027E000D8484078012803D1D2484078032807D040
:1027F000CF484078012805D1D2480079032801D17B
:10280000FFF7F3FBCE484078012803D1CD48C078CC
:10281000032817D0CB480079012803D1C448407859
:1028200003280FD0C5484078012803D1C5488079D6
:10283000032807D0C3488079012805D1BF484078D4
:10284000032801D1FFF782FBBC48C078012803D1DF
:10285000BB48C07803280FD0B9488079012803D13C
:10286000B548C078032807D0B648C078012805D1FC
:10287000B3484078032801D1FFF706FCAF48007940
:10288000012803D1AA48C078032817D0A848807926
:10289000012803D1A848007903280FD0A448C078A4
:1028A000012803D1A5480079032807D0A248007960
:1028B000012805D19E488079032801D1FFF782FCC9
:1028C0009B480079012803D19A480079032817D042
:1028D00098480079012803D19548007903280FD042
:1028E00094484078012803D196484078032807D0BF
:1028F00091484078012805D18E488079032801D17C
:10290000FFF7BFFD8C48C07801287FF445AF8C48A5
:1029100080790328F9D1A9E08A488079012803D178
:1029200086484078042807D081484078012805D19E
:1029300084480079042801D1FFF757FB7F480079CC
:10294000012803D17A48C078042807D078488079D4
:10295000012805D178480079042801D1FFF781FCCE
:1029600077480079012803D17248C078042807D03D
:1029700070484078012805D172484078042801D178
:10298000FFF7CEFD6E484078012803D16D48C0782E
:10299000042817D06B484078012803D16548407857
:1029A00004280FD06748C078012803D164484078D4
:1029B000042807D061484078012805D16148807912
:1029C000042801D1FFF7C2FA5E480079012803D13B
:1029D0005748407804280FD056480079012803D181
:1029E00053480079042807D05148C078012805D100
:1029F00052480079042801D1FFF7E4FB4D48C07824
:102A0000012803D14E480079042817D0494880791D
:102A1000012803D14848407804280FD04448007961
:102A2000012803D143480079042807D04248407860
:102A3000012805D13F488079042801D1FFF721FD05
:102A40003E48C078012803D13D48C078042807D00B
:102A50003B48C078012809D13848C078042805D1FE
:102A6000FFF761FBFFF772FAFFF70EFB32480079C0
:102A700001287FF451AF2E4880790428F9D1B6E0BF
:102A80002F484078012803D12E48C078052827D048
:102A90002C480079012803D12548407805281FD00B
:102AA00024484078012803D126484078052817D0CB
:102AB0002448C078012803D12148407805280FD048
:102AC0001E484078012803D11E488079052807D088
:102AD0001C488079012805D118484078052801D183
:102AE000FFF734FA16480079012803D11148C0785D
:102AF000052834D00E480079012803D10D4800790B
:102B000005282CD00B480079012803D1084800790A
:102B1000052824D00748C078012803D10848007947
:102B200005281CD007484078012810D101480BE047
:102B30002C0000203C0000201C000020340000205D
:102B400024000020140000204078052807D0FE480B
:102B50008079012805D1FD484078052801D1FFF78B
:102B600090FCFB480079012803D1FA48C078052879
:102B700007D0F848C07801280DD1F548007905281C
:102B800009D1FFF71FFBFFF7E1F9FFF71BFBFFF789
:102B900019FBFFF717FBF048C078012803D1EC4878
:102BA000C078052807D0EA48C07801280DD1EA4846
:102BB000C078052809D1FFF767FAFFF765FAFFF734
:102BC00063FAFFF7C3F9FFF75FFAE248407801289C
:102BD0000DD1E2480079052809D1FFF7F3FAFFF794
:102BE00050FCFFF7EFFAFFF7EDFAFFF7EBFAD748E3
:102BF000407801287FF444AFD34880790528F9D183
:102C00005FE1D6480078012807D1D34880780228B0
:102C100003D1CD480078042823D0CF48007801287C
:102C200007D1CE484079022803D1C948007804284A
:102C300017D0C9488078012807D1C34800780228F6
:102C400003D1C648007804280BD0C1480078012879
:102C500009D1C1480078022805D1C048407904282C
:102C600001D1FFF7C2F9B8480078012807D1BB4865
:102C70000078022803D1B8488078042823D0B248CD
:102C80008078012807D1B3488078022803D1B3485F
:102C90008078042817D0AF488078012807D1AF4842
:102CA0008078022803D1A848807804280BD0AB484C
:102CB000C079012809D1A7480078022805D1A44885
:102CC0008078042801D1FFF741F9A44880780128D1
:102CD00013D19D48807802280FD19E48807804281F
:102CE0000BD1FFF7CEFBFFF77DFBFFF72FF9FFF7C7
:102CF0002DF9FFF715FCFFF726FB984840790128CE
:102D000013D19348007802280FD193480078042803
:102D10000BD1FFF757FAFFF706FAFFF717F9FFF79E
:102D200015F9FFF79EFAFFF7AFF98A4800780128F6
:102D300007D187488078022803D18848C0790428C1
:102D40000BD08448407901280DD18048C0790228F1
:102D500009D17F48C079042805D1FFF733FAFFF77E
:102D6000F5F8FFF77EFA7A488078012807D17B488A
:102D7000C079022803D17748007804280BD0744822
:102D8000C07901280DD173484079022809D16F48D4
:102D9000C079042805D1FFF725FBFFF726F9FFF7D7
:102DA000D2FA6B48407901280DD168484079022851
:102DB00009D169484079042805D1FFF7B4F9FFF734
:102DC000C5F8FFF761F964484079012807D16048E8
:102DD0004079022803D15D48407904280BD05B4834
:102DE000407901280DD15C484079022809D1584822
:102DF0004079042805D1FFF796F9FFF7F6F8FFF7B9
:102E000043F95548C07901280DD15048007802286F
:102E100009D14D484079042805D1FFF781FBFFF720
:102E200095F8FFF72EFB48484079012807D14A481A
:102E3000C079022803D14548007804280BD04348C4
:102E4000007801280DD140484079022809D1424834
:102E5000C079042805D1FFF763FBFFF7C6F8FFF739
:102E600010FB3948C079012807D1384880780228FA
:102E700003D13848C07904280BD034488078012821
:102E80000DD13448C079022809D12F48C0790428CF
:102E900005D1FFF7F6FAFFF759F8FFF741FB2D4888
:102EA000C07901280DD12848C079022809D12748C6
:102EB0008078042805D1FFF7E4FAFFF796F8FFF7CA
:102EC0002FFB2248C07901287FF49BAE2048C079AF
:102ED0000228F9D11F4840790428F5D138E11F486C
:102EE000C079012807D11A488078022803D11948EF
:102EF0000078032823D019488078012807D1154885
:102F00008078022803D110488078032817D00E4813
:102F10000078012807D110488078022803D10F4893
:102F2000007803280BD00C488078012809D10B4881
:102F30000078022805D104480078032801D1FFF762
:102F400054F8064840790BE03C0000201C000020AB
:102F5000340000202C000020240000201400002059
:102F6000012807D1FE480078022803D1FD480078E7
:102F700003282FD0FC488078012807D1FB488078AF
:102F8000022803D1FA488078032823D0F8488078B3
:102F9000012807D1F4488078022803D1F3488078CB
:102FA000032817D0F2480078012807D1EF48C079EC
:102FB000022803D1EB48807803280BD0E9488078B9
:102FC000012809D1EA480078022805D1E748C079EC
:102FD000032801D1FEF7BAFFE4480078012813D195
:102FE000E148007802280FD1DD48807803280BD112
:102FF000FFF796FAFFF7A7F9FEF7A8FFFEF7A6FF7F
:10300000FFF73FFAFFF7EEF9D648407901280DD1D6
:10301000D3484079022809D1D6484079032805D100
:10302000FFF781F8FEF792FFFFF72EF8CD48007802
:1030300001280DD1CD484079022809D1C84800782F
:10304000032805D1FFF77FF9FEF780FFFFF7CAF9E4
:10305000C3480078012807D1C2480078022803D16C
:10306000C248407903280BD0BD48407901280DD1D2
:10307000C0484079022809D1BA484079032805D1CF
:10308000FFF751F8FEF7B1FFFEF7FEFFB448C07935
:1030900001280DD1B4484079022809D1B5480078FB
:1030A000032805D1FFF73CFAFEF750FFFFF7E9F9D7
:1030B000AD484079012807D1AE480078022803D1F5
:1030C000A748C07903280BD0AA48007801280DD161
:1030D000A348C079022809D1A3484079032805D123
:1030E000FFF71EFAFEF781FFFFF7CBF99E48C07984
:1030F000012807D19E48C079022803D19D488078D5
:1031000003280BD09B48807801280FD19648C079BE
:1031100002280BD19648C079032807D1FFF7B1F9EF
:10312000FEF714FFFEF712FFFFF7FAF99048C07997
:1031300001280DD18F488078022809D18A48C079AA
:10314000032805D1FFF79DF9FEF74FFFFFF7E8F9D8
:103150008848407901287FF4C2AE8248407902282D
:10316000F9D17F4840790328F5D10CE17F484079B7
:10317000012807D17B480078052803D178480078DA
:1031800003282FD078488078012807D178488078A4
:10319000052803D175488078032823D07348C07967
:1031A000012807D172480078052803D16D4880783E
:1031B000032817D06E488078012807D16B488078A3
:1031C000052803D16848807803280BD06848007828
:1031D000012809D163488078052805D16348C07962
:1031E000032801D1FEF701FF60480078012807D1CC
:1031F0005B488078052803D15B480078032823D0FA
:1032000057480078012807D158484079052803D14C
:1032100054480078032817D052488078012807D1F5
:103220005248C079052803D15148007803280BD0B3
:103230004C480078012809D149480078052805D173
:103240004A484079032801D1FEF780FE474880783C
:10325000012813D14448807805280FD1444880784C
:1032600003280BD1FEF710FFFEF7FBFFFEF76EFE03
:10327000FEF76CFEFEF757FFFEF7A4FF3848807894
:1032800001280DD138480078052809D13748007841
:10329000032805D1FEF7F8FEFEF758FEFEF743FFC0
:1032A0003148007801280DD130480078052809D12F
:1032B0002B488078032805D1FFF732F9FEF795FEF9
:1032C000FFF7DFF82648C07901280DD1294800789A
:1032D000052809D124484079032805D1FFF720F9B2
:1032E000FEF734FEFFF7CDF81F48407901280DD1D5
:1032F0001B48C079052809D11E480078032805D14C
:10330000FEF7C2FEFEF771FEFEF70DFF1648C0790C
:1033100001280DD117488078052809D11448C079B3
:10332000032805D1FEF79DFFFEF710FEFEF74AFFCA
:103330000F48C079012807D10B48C079052803D16F
:103340000C488078032818D00A48807801281AD1C0
:103350000748C079052816D10348C07903280BE037
:1033600024000020340000203C0000201400002035
:103370002C0000201C00002005D1FFF782F8FEF78A
:1033800034FEFFF7CDF8FD48007801287FF4EEAE5B
:10339000FB4840790528F9D1FA48C0790328F5D1CE
:1033A000CBE0F948C079012807D1F8488078052892
:1033B00003D1F748007804282FD0F5480078012879
:1033C00007D1F148C079052803D1F0488078042856
:1033D00023D0ED484079012807D1EA480078052834
:1033E00003D1EA480078042817D0E84880780128FB
:1033F00007D1E7480078052803D1E348C0790428BD
:103400000BD0E2480078012809D1DF48407905282F
:1034100005D1DC480078042801D1FEF7E6FDD84844
:103420000078012807D1D7488078052803D1D648ED
:103430000078042823D0D3480078012807D1D34846
:103440000078052803D1D0484079042817D0CD480A
:103450008078012807D1CC480078052803D1C848D6
:10346000007804280BD0C8480078012809D1C44846
:103470000078052805D1C3488078042801D1FEF7DB
:1034800065FDC148807801280FD1C14880780528A2
:103490000BD1BB488078042807D1FEF7F2FFFEF776
:1034A00055FDFEF753FDFFF73BF8B948C0790128F9
:1034B0000DD1B2488078052809D1B148C0790428D7
:1034C00005D1FEF7DEFFFEF741FDFFF729F8B04812
:1034D000807801280DD1AA488078052809D1AA480A
:1034E0008078042805D1FEF7BCFEFEF77EFDFEF7CE
:1034F00069FEA348C07901280DD1A548C0790528E7
:1035000009D19E488078042805D1FEF7AAFEFEF76F
:103510001DFDFEF757FE9A48807801280DD19A4884
:103520008078052809D19A488078042805D1FEF7CB
:10353000A8FFFEF70BFDFEF7F3FF90488078012807
:103540007FF42FAF8E48C0790528F9D19048C07913
:103550000428F5D110BD10B5FEF7F5FEFEF745FDC8
:10356000FEF740FFFEF741FDFEF7DDFDFEF7EEFC46
:10357000FEF78AFD10BD10B5FEF7D2FFFEF7E6FCA0
:10358000FEF77FFFFEF7E2FCFEF77EFDFEF72DFD66
:10359000FEF7C9FD10BD10B5FEF714FEFEF725FDC0
:1035A000FEF75FFEFEF721FDFEF71CFFFEF7CEFCE7
:1035B000FEF7C9FE10BD10B5FEF7B5FDFEF7C6FC5F
:1035C000FEF762FDFEF7C2FCFEF7BDFEFEF70DFD45
:1035D000FEF708FF10BD10B5FEF704FFFEF7B6FCBE
:1035E000FEF7B1FEFEF7B2FCFEF7ECFDFEF7FDFCC8
:1035F000FEF737FE10BD10B5FEF743FFFEF7F5FCF2
:10360000FEF78EFFFEF7F1FCFEF72BFEFEF79EFCA9
:10361000FEF7D8FD10BD10B5FEF736FDFEF7E5FC50
:10362000FEF781FDFEF7E1FCFEF77AFFFEF78EFC68
:10363000FEF727FF10BD10B5FEF713FEFEF786FC60
:10364000FEF7C0FDFEF782FCFEF71BFFFEF7CDFC88
:10365000FEF766FF10BD10B585E04B4800790228E3
:1036600003D14B484078032807D0484840780228C7
:1036700005D145488079032801D1FEF7B6FC4048C2
:103680004078022803D140484078032817D03D48AD
:103690004078022803D13C48C07803280FD03A482C
:1036A000C078022803D137484078032807D036482D
:1036B0008079022805D135484078032801D1FEF7EA
:1036C00045FC31484078022803D12D484078032832
:1036D00007D02C48C078022805D12C48C078032890
:1036E00001D1FFF738FF29480079022803D1284883
:1036F000C078032807D02648C078022805D123487F
:103700000079032801D1FFF746FF1E4800790228FF
:1037100003D11B48C078032807D01948C078022875
:1037200005D118480079032801D1FFF724FF184874
:103730004078022805D114480079032801D1FFF709
:103740003AFF13480079022803D10D480079032875
:1037500007D00B480079022805D10D4800790328CD
:1037600001D1FFF748FF0948C07802287FF475AF00
:103770000448C0780328F9D180E000001C00002034
:103780003C00002024000020140000203400002011
:103790002C000020FB484078022803D1FA484078EA
:1037A000042807D0F8480079022805D1F748407866
:1037B000042801D1FEF719FCF4484078022803D10F
:1037C000F1480079042817D0F1484078022803D145
:1037D000ED48807904280FD0EB48C078022803D147
:1037E000EC484078042807D0E7488079022805D1C2
:1037F000E7484078042801D1FEF7A8FBE24840786A
:10380000022803D1DF484078042807D0DF48C07879
:10381000022805D1DE480079042801D1FFF7DBFE3C
:10382000DC480079022803D1D648C078042807D0A4
:10383000D448C078022805D1D6480079042801D19F
:10384000FFF799FED3484078022805D1CE48C078CA
:10385000042801D1FFF79FFECC480079022803D14C
:10386000C8480079042807D0C6480079022805D145
:10387000C6480079042801D1FFF7BDFEC44800798D
:10388000022887D1C148C078042883D161E0BE48AE
:10389000C078052803D1BF484078032807D0BC482A
:1038A0004078052805D1B8488079032801D1FEF772
:1038B0009CFBB4484078052803D1B34840780328DE
:1038C00017D0B4484078052803D1AF48C078032802
:1038D0000FD0AD480079052803D1AC4840780328C3
:1038E00007D0A9484078052805D1A6484078032884
:1038F00001D1FEF72BFBA4488079052803D1A44809
:103900004078032807D0A3480079052805D19D48B1
:10391000C078032801D1FFF72EFE9C484078052887
:1039200005D199480079032801D1FFF774FE974823
:103930000079052803D193480079032807D09148DE
:103940000079052805D191480079032801D1FFF7B6
:1039500052FE8C48C078052899D18E4800790328FA
:1039600095D14FE087484078052803D186484078B4
:10397000042807D08448C078052805D185484078B8
:10398000042801D1FEF731FB80484078052803D197
:103990007D480079042817D07D484078052803D158
:1039A0007948807904280FD077480079052803D119
:1039B00076484078042807D073484078052805D118
:1039C00070484078042801D1FEF7C0FA6E4880792B
:1039D000052805D16E484078042801D1FFF70BFE79
:1039E0006C484078052803D16748C078042807D080
:1039F00066480079052805D162480079042801D17C
:103A0000FFF719FE5F4800790528ABD15F480079C0
:103A10000428A7D110BD10B5FEF795FCFEF7D2FB28
:103A2000FEF794FAFEF71DFCFEF7DFFAFEF7DAFC6C
:103A300010BD10B5FEF7C6FBFEF723FDFEF786FAB4
:103A4000FEF76EFDFEF7D1FAFEF70BFC10BD10B5C8
:103A5000FEF717FDFEF718FBFEF778FAFEF763FB9B
:103A6000FEF7C3FAFEF75CFD10BD10B5FEF70CFBC8
:103A7000FEF769FCFEF76AFAFEF7B4FCFEF7B5FA4A
:103A8000FEF751FB10BD10B5FEF74DFBFEF7ADFA8A
:103A9000FEF7FAFAFEF7A9FAFEF745FBFEF7A5FADC
:103AA000FEF7A3FAFEF7F0FA10BD10B5FEF738FDE9
:103AB000FEF79BFAFEF7E5FCFEF797FAFEF730FDFE
:103AC000FEF793FAFEF791FAFEF7DBFC10BD10B596
:103AD000FEF7C7FBFEF789FAFEF774FBFEF785FADF
:103AE000FEF7BFFBFEF781FAFEF77FFAFEF76AFBEF
:103AF00010BD10B5FEF776FCFEF777FAFEF723FC53
:103B0000FEF773FAFEF76EFCFEF76FFAFEF76DFA3A
:103B1000FEF719FC10BD10B5FEF754FBFEF716FAC0
:103B2000FEF79FFBFEF712FAFEF74CFBFEF70EFACC
:103B3000FEF70CFAFEF795FB10BD10B5FEF7A1FCE1
:103B4000FEF704FAFEF7ECFCFEF700FAFEF799FC2C
:103B5000FEF7FCF9FEF7FAF9FEF7E2FC10BD10B52E
:103B6000FEF792FAFEF7F2F9FEF7DDFAFEF7EEF94C
:103B7000FEF78AFAFEF7EAF9FEF7E8F9FEF7D3FA5C
:103B800010BD00003C000020140000202C0000208C
:103B9000340000202400002010B5FEF7D4FBFEF70F
:103BA000D5F9FEF71FFCFEF7D1F9FEF7CCFBFEF7C7
:103BB000CDF9FEF7CBF9FEF715FC10BD10B577E097
:103BC000FC48407806280BD0FA48C078062807D071
:103BD000F8480079062803D1F648807906281FD0D6
:103BE000F448407806280BD0F248C078062807D061
:103BF000F0480079062803D0EE48807906280FD1D6
:103C0000EC48407806280DD0EA48C078062809D14B
:103C1000E8480079062805D1E6488079062801D0D1
:103C2000FFF7F9FEE348407806280DD1E148C07857
:103C3000062809D1DF480079062805D0DD488079BB
:103C4000062801D0FFF703FFDA48407806280DD098
:103C5000D848C078062809D1D6480079062805D06A
:103C6000D4488079062801D1FFF7FFFED14840787B
:103C700006280BD1CF48C078062807D0CD48007958
:103C8000062803D0CB48807906280FD0C948407851
:103C900006280DD1C748C078062809D0C548007944
:103CA000062805D1C3488079062801D0FFF7C1FE58
:103CB000C0484078062883D1BE48C0780628FAD18B
:103CC000BC4800790628F6D1BA4880790628F2D196
:103CD00043E1B8480078062817D1B648807806280E
:103CE00013D0B448407906280FD0B248C0790628CE
:103CF0000BD0B1488078062801D1FFF7E8FEAF4825
:103D00000078062801D1FFF747FFAA480078062867
:103D100017D0A8488078062813D1A64840790628ED
:103D20000FD0A448C07906280BD0A54800780628F3
:103D300001D1FFF7DEFEA0480078062801D1FFF789
:103D40000EFF9C480078062817D09A4880780628ED
:103D500013D09848407906280FD19648C079062894
:103D60000BD096488078062801D1FFF79EFE954833
:103D70008078062801D1FFF7CEFE8E48007806280D
:103D800017D08C488078062813D08A4840790628B6
:103D90000FD08848C07906280BD18A4800780628B9
:103DA00001D1FFF770FE86488078062801D1FFF721
:103DB000C4FE80480078062833D07E4880780628E4
:103DC0002FD07C48407906282BD07A48C079062825
:103DD00027D07C480078062805D07A4880780628C5
:103DE00001D0FFF798FE74480078062805D0724885
:103DF0008078062801D0FFF7B2FE704800780628C8
:103E000005D06E488078062801D0FFF7C5FE6C48C3
:103E10000078062805D06A488078062801D0FFF788
:103E20008CFE64480078062814D162488078062801
:103E300010D16048407906280CD05E48C079062829
:103E400008D060480078062802D1FFF764FE01E040
:103E5000FFF773FE57480078062814D0554880783D
:103E6000062810D15348407906280CD05148C07913
:103E7000062808D151480078062802D1FFF78CFEA9
:103E800001E0FFF748FE4B480078062814D0494867
:103E90008078062810D04748407906280CD145483C
:103EA000C079062808D144480078062802D1FFF7D7
:103EB00056FE01E0FFF770FE3E480078062814D158
:103EC0003C488078062810D03A48407906280CD122
:103ED0003848C079062808D039480078062802D129
:103EE000FFF72BFE01E0FFF73AFE32480078062884
:103EF00017D130488078062813D02E4840790628FC
:103F00000FD02C48C07906280BD12E4800780628FF
:103F100001D1FFF700FE29480078062801D1FFF7FC
:103F2000C4FD24480078062817D022488078062847
:103F300013D12048407906280FD11E48C0790628A1
:103F40000BD020488078062801D1FFF79CFD1B4844
:103F50008078062801D1FFF71FFE16480078062852
:103F60007FF4B7AE134880780628F9D1114840791C
:103F70000628F5D10F48C0790628F1D110BD10B53B
:103F8000FEF7D1F8FEF77DFAFEF7CDF8FEF7DBF984
:103F9000FEF7D9F9FEF778F8FEF7C2FAFEF7C3F894
:103FA000FEF7D1F9FEF7CFF9FEF76EF8FEF76CF8E1
:103FB00010BD0000140000203C0000202400002060
:103FC0002C0000203400002010B5FEF7A9FAFEF7FF
:103FD000F9F8FEF7A5FAFEF757F8FEF755F8FEF7E1
:103FE00050FAFEF73EF9FEF79BFAFEF74DF8FEF7A2
:103FF0004BF8FEF746FAFEF744FA10BD10B5FEF78F
:10400000F1F9FEF741F8FEF7EDF9FEF7DBF8FEF700
:10401000D9F8FEF798F9FEF786F8FEF7E3F9FEF710
:10402000D1F8FEF7CFF8FEF78EF9FEF78CF910BD48
:1040300010B5FEF716F9FEF786F9FEF712F9FEF74E
:1040400020FAFEF71EFAFEF7BDF8FEF7CBF9FEF7F1
:1040500008F9FEF716FAFEF714FAFEF7B3F8FEF7C2
:10406000B1F810BD10B5FEF75EF8FDF76FFFFEF773
:104070005AF8FDF7BAFFFEF756F8FDF7B6FFFEF760
:1040800052F8FDF763FFFDF7FFFFFDF75FFFFDF758
:10409000FBFFFDF7F9FF10BD10B5FEF793F8FDF734
:1040A000A4FFFEF78FF8FDF751FFFEF78BF8FDF741
:1040B0004DFFFEF787F8FDF798FFFEF7D2F8FDF702
:1040C00094FFFEF77FF8FEF77DF810BD10B5FEF700
:1040D0003AF9FDF78AFFFEF736F9FDF737FFFEF7ED
:1040E00032F9FDF733FFFEF72EF9FDF77EFFFEF7FD
:1040F00079F9FDF77AFFFEF726F9FEF724F910BDEE
:1041000010B5FEF70DFAFDF721FFFEF709FAFDF7EE
:104110006CFFFEF705FAFDF768FFFEF701FAFDF701
:1041200015FFFEF7AEF9FDF711FFFEF7AAF9FEF74E
:10413000A8F910BD10B5FEF755F9FDF707FFFEF71A
:1041400051F9FDF752FFFEF74DF9FDF74EFFFEF76F
:1041500049F9FDF7FBFEFEF7F6F8FDF7F7FEFEF76F
:10416000F2F8FEF7F0F810BD10B5FEF78AF9FDF78A
:104170003CFFFEF786F9FDF7E9FEFEF782F9FDF751
:10418000E5FEFEF77EF9FDF730FFFEF7C9F9FDF712
:104190002CFFFEF776F9FEF774F910BD10B5FDF7A8
:1041A00073FFFDF722FFFDF76FFFFDF7CFFEFDF771
:1041B0006BFFFDF7CBFEFDF767FFFDF716FFFDF781
:1041C000B2FFFDF712FFFDF75FFFFDF75DFF10BDCA
:1041D00010B5FEF746F8FDF7B9FEFEF742F8FDF719
:1041E00004FFFEF73EF8FDF700FFFEF73AF8FDF793
:1041F000ADFEFDF7E7FFFDF7A9FEFDF7E3FFFDF7D5
:10420000E1FF10BD10B53CE05B4800785A49897861
:10421000884213D0594800785849897888420DD08F
:104220005748007856498978884207D05548007821
:1042300054498978884201D0FFF7A1FE4E480078A2
:104240004D498978884202D1FFF799FE19E04B4821
:1042500000784A498978884202D1FFF7B5FE10E01C
:104260004748007846498978884202D1FFF7C6FE60
:1042700007E04448007843498978884201D1FFF734
:10428000D7FE3D4800783C4989788842BCD13B48FC
:1042900000783A4989788842B6D139480078384957
:1042A00089788842B0D13748007836498978884281
:1042B000AAD101E0FDF74AFE2F4800780228F9D183
:1042C00048E02D48407802280DD02C48407803283B
:1042D00009D02B484078042805D02A484078052882
:1042E00001D0FFF7BFFE27484078052809D12248B2
:1042F0004078032802D1FFF7B5FE2BE0FFF7CCFE94
:1043000028E01E484078032809D11D48407802283B
:1043100002D1FFF70FFF1DE0FFF726FF1AE0184854
:104320004078042809D115484078022802D1FFF7C7
:10433000CDFE0FE0FFF7E4FE0CE00F4840780228C6
:1043400008D110484078032802D1FFF727FF01E089
:10435000FFF73EFF084840780228B2D1074840786E
:104360000328AED1064840780428AAD105484078F1
:104370000528A6D110BD0000340000202400002034
:104380002C0000203C0000200A78413A825CF94B66
:104390001A704A78413A835C0A78413A8354F54A64
:1043A00013784A78413A83540A78413A825CF14B57
:1043B0001A708A78413A835C0A78413A8354ED4A0C
:1043C00013788A78413A83540A78413A825CE94BFF
:1043D0001A70CA78413A835C0A78413A8354E54AB4
:1043E0001378CA78413A8354704710B54138E24A8D
:1043F000125C0A44521CE14B1B5C92FBF3F403FB7E
:104400001422DD4B1A5410BD002006E0DC4A105483
:1044100000230146401CD84A53541428F6DB704749
:1044200030B50246002000210EE0C1F104046043D3
:104430000B4604E0D45C555CAC4200DA401C5C1CCA
:104440002346042CF6DB491C0429EEDB30BD70B595
:104450000C461044C270032118E0C1F1040594FB1E
:10446000F5F605FB164515444554C1F1040594FBCA
:10447000F5F40B4606E0C55C465CB54202DBC55C64
:104480006D1CC5545D1C2B46042DF4DB0D00A1F101
:104490000101E2D170BDF0B58CB006464FF0FF349B
:1044A0000025082E0ED2DFE806F09F040E1A2A3AE5
:1044B0007D9103E0B048005DA0400544601C0446C7
:1044C0000C28F7DB90E0142404E005EB4500AA4932
:1044D000095D4518601E04460B28F6DC84E009E0FF
:1044E000A748005D00F0080010B10120A04000E0E6
:1044F00000200544601C04460C28F1DB74E009E050
:104500009F48005D00F0040010B10120A04000E0D1
:1045100000200544601C04460828F1DB64E0002309
:104520001A46194615E0964F04F10C03FB5CA3F103
:104530000C0000F004033BB104AB43F82010491C0D
:104540000123A3401D4404E01346521C04AF47F866
:104550002300631C1C46082BE5DB002409E004ABA8
:1045600053F824301B1D04AF57F823304DF8243086
:10457000641C042CF3DB05E05DF82430009F7B40D5
:104580004DF82430631E1C00F6D105EB45035F0097
:10459000019B07EB43039D1EDDE90273BB4200DA7A
:1045A0006D1C21E07648FFF73BFF00EBC000870160
:1045B0007348001DFFF734FF00EB400007EBC00716
:1045C0006F480C30FFF72CFF3D180DE06C481030A1
:1045D000FFF726FF07466A480830FFF721FF00EB88
:1045E000400007EBC00500BF00BF28460CB0F0BD7F
:1045F0002DE9F04706460C4600254FF00C08A94669
:1046000060A7FFF701FF082E0ED2DFE806F087044F
:104610000E1E2934557405E004F001005649485532
:104620006D1C64100C2DF7DB78E00C250AE00320EC
:1046300094FBF0F100FB11404F4948556D1C0320DD
:1046400094FBF0F4142DF2DB68E006E0E00000F0EB
:1046500008004B4948556D1C64100C2DF6DB5DE0DD
:1046600006E0A00000F00400454948556D1C6410A8
:10467000082DF6DB52E0062094FBF0F100FB114020
:1046800007EB8007062094FBF0F412E004F0010031
:1046900028B1484609F10109385C413802E040463A
:1046A00008F10108C1B2364A05F10C0011546D1C25
:1046B0006410082DEADB31E0182094FBF0F100FBD8
:1046C000114A0C2251462E48FFF7C1FE182094FBD8
:1046D000F0F494FBF0F100FB114A04225146284803
:1046E000FFF7B5FE182094FBF0F400222146244881
:1046F000FFF7ADFE12E0182094FBF0FA08225146B5
:104700001F48FFF7A4FE182094FBF0F100FB114AAC
:10471000102251461A48FFF79AFE00BF00BFBDE8BD
:10472000F08770B506461E480068082101FB0604A4
:10473000082521461248FFF727FE21460E48FFF7BD
:1047400023FE211D0E48FFF71FFE211D0A48FFF71B
:104750001BFE042E0ADA04E005F00101605DFFF79C
:1047600044FE681EC0B205460328F5DC022E22DA9C
:1047700004251BE05C000020E4010020F80100207B
:10478000D00100205152535451525453515352545A
:10479000515452535153545251545352000000003B
:1047A00058000020605D0021FFF71FFE2800A5F1E2
:1047B0000101CDB2F6D170BD2DE9F84F05460120BB
:1047C00000908146FE4850F825A0504609F0E5FFCC
:1047D000FC4941F825000446514620460AF0E8F815
:1047E000FFF712FE2846FFF756FE0121215437E05D
:1047F0000020009000272FE0E05D48452BD139468E
:104800002846FFF7F5FE002623E04FF0010B19E0E4
:104810003046FFF786FF2846FFF73DFE8046BBF196
:10482000020F03D005F00600B04209DC14F80800BE
:1048300030B909F1010004F808000098401C00900C
:104840000BF1010BBBF1040FE2DB3046FFF769FF10
:10485000761C062ED9DB7F1C5745CDDB09F10109FB
:1048600000980028C4D1BDE8F88F2DE9F041054635
:104870000E461746D4480068FFF70DFED149D24ACC
:10488000126851F82210085C401EA8420EDCCE4887
:104890000068401CFFF7FFFDCA4ACB490968491C64
:1048A00052F82110085C401EA84202DD0020BDE83D
:1048B000F0810DB90120FAE706242AE0E01B28D098
:1048C000E01B401C10B944F0010010B3BF4840F891
:1048D00026404FF0000814E02046FFF722FFBC48B6
:1048E00040F82680B8F1020F03D0B7480068844230
:1048F00007DB681E2246711CFFF7B7FF08B10120D5
:10490000D5E708F1010080460428E5DB2046FFF7E3
:1049100008FF2000A4F10104D0D100BFC7E7AD49D2
:1049200088780978AB4A917011464979117011461F
:10493000C97951711146C8714878C97851701146CA
:104940008979D17011460979917111460871A2498E
:104950000878A2490978A04A1170A14989789F4A2C
:104960001170A04989789E4A91709E4988709A4931
:1049700048789A494978984A517099494978974AAC
:10498000517098494978964A5170964948709249B1
:10499000887892498978904A9170914909788F4A2C
:1049A0009170904909788E4A11708E49087070474D
:1049B0008849C8794979874AD17111460978517176
:1049C00011468978117011468870087989791171BA
:1049D0001146C978917111464978D17011464870D5
:1049E000804988787E4989787E4A91707B49097828
:1049F0007B4A917078490978784A11707649087035
:104A00007849487876494978764A517073494978A7
:104A1000734A517070494978704A51706E494870B4
:104A2000704908786E4909786E4A11706B49897827
:104A30006B4A117068498978684A91706649887034
:104A400070476849C8794979664AD1711146097831
:104A500051711146897811701146887008798979E9
:104A600011711146C978917111464978D17011467A
:104A700048705849C8785A49C978564AD1705A4935
:104A8000C978574AD1705449C978574AD1705249A8
:104A9000C87050490878524949794E4A11705249B4
:104AA00049794F4A51714C4909784F4A51714A49E5
:104AB0000870484948794A490978464A51714A4933
:104AC0000978474A117044494979474A1170424967
:104AD00048717047434988780978424A9170114675
:104AE000497911701146C97951711146C8714878D8
:104AF000C978517011468979D1701146097991713F
:104B0000114608713449C8783749C978324AD1709A
:104B10003349C978344AD1702E49C978304AD170A6
:104B20002C49C8702C4908782F4949792A4A1170B4
:104B30002B4949792C4A517126490978284A5171E3
:104B4000244908702449487927490978224A517133
:104B500023490978244A11701E494979204A117065
:104B60001C49487170471D49887809781B4A917023
:104B70001146497911701146C97951711146C871B0
:104B80004878C978517011468979D17011460979F0
:104B90009171114608710F4908790F4909790D4A39
:104BA0001171114909790C4A11710D4909790E4A9F
:104BB00011710B490871074988780749897815E010
:104BC000640000200C020020600000202C02002065
:104BD0007C02002014000020340000202C00002063
:104BE0003C000020240000201C000020FE4A9170A0
:104BF000FE49C979FE4A9170FE49C979FB4AD171D3
:104C0000FC49C871F849C879F949C979F64AD1719E
:104C1000F6498978F64AD171F6498978F34A917054
:104C2000F44988707047F449C8794979F24AD171DA
:104C300011460978517111468978117011468870B2
:104C40000879897911711146C978917111464978AD
:104C5000D17011464870E7490879E4490979E54A75
:104C60001171E3490979E14A1171DF490979E04A93
:104C70001171DD490871DF49C879DC49C979DD4A1C
:104C8000D171DB498978D94AD171D7498978D84A15
:104C90009170D5498870D7498878D4498978D54AA0
:104CA0009170D349C979D14A9170CF49C979D04A15
:104CB000D171CD49C8717047CD4988780978CC4AFF
:104CC00091701146497911701146C9795171114697
:104CD000C8714878C978517011468979D1701146E8
:104CE0000979917111460871BF494879C3494979D9
:104CF000BD4A5171BD49C979C04A5171BE4909784F
:104D0000BA4AD171BC490870B7498879BB49C9789A
:104D1000B54A9171B5498979B84AD170B649C9780F
:104D2000B24A9171B449C870AF49C879B34909789A
:104D3000AD4AD171AD494979B04A1170AE4949794E
:104D4000AA4A5171AC4948717047A949C879497953
:104D5000A74AD171114609785171114689781170AD
:104D6000114688700879897911711146C978917155
:104D700011464978D170114648709F4908789B497F
:104D8000C9799D4A11709D494979984AD1719649CE
:104D900049799A4A5171944948719749C878934919
:104DA0008979954AD1709549C978904A91718E490F
:104DB0008979924AD1708C4988718F4948798B4999
:104DC00049798D4A51718D490978884A51718649CE
:104DD000C9798A4A11708449C87170478549C87970
:104DE0004979844AD17111460978517111468978FF
:104DF0001170114688700879897911711146C97846
:104E0000917111464978D1701146487076490878F9
:104E100079498978744A117074498978764A917011
:104E20007649C979714A91707449C8716E49487858
:104E3000714909796C4A51706C4949786E4A11710F
:104E40006E490979694A51706C49087166498878D8
:104E50006949C979644A917064490978664AD1718F
:104E600066498978614A1170644988707047614960
:104E7000887809785F4A9170114649791170114616
:104E8000C97951711146C8714878C9785170114675
:104E90008979D17011460979917111460871574984
:104EA000C87952498978554AD171534989784F4A0E
:104EB00091704D490978504A91704B4908704F499B
:104EC00008794A4949784D4A11714B490979474A4D
:104ED000517045494978484A1171434948704749DA
:104EE000887842490978454A91704349C9793F4ACF
:104EF00011703D498978404AD1713B4988707047AB
:104F00003A49C8794979394AD171114609785171BC
:104F1000114689781170114688708879C978917125
:104F200011464978D17011460979517011460871BE
:104F30002F4948793149C9792D4A51712D49C9798B
:104F40002E4AD1712C4949792A4AD1712A4948718E
:104F50002749887929498979254A9171254989798B
:104F6000264A917124498979224A9171224988718E
:104F70001F49C879214949791D4AD1711D4949798B
:104F80001E4A51711C49C9791A4A51711A49C8718E
:104F9000704700B5FFF7B4FFFFF7B2FFFFF7B0FFB0
:104FA00000BD08B510480078401E154931F81000C2
:104FB00064231A4632210090084605F06FFB0A4828
:104FC0004078401E0E4931F81000642396223221A9
:104FD0000090184605F062FB03488078401E08499F
:104FE00031F8100064230DE0140000201C000020A4
:104FF000340000203C0000202C0000202400002071
:1050000028F80008C82232210090962005F046FBBF
:10501000FE48C078401EFE4931F8100096236422F5
:1050200011460090322005F039FBF948408996235B
:105030001A4664210090084605F030FBF3480079D9
:10504000401EF34931F810009623C82264210090D5
:10505000184605F023FBED484079401EEC4931F835
:105060001000C823642296210090322005F016FB20
:10507000E6488079401EE64931F81000C8239622A0
:1050800011460090642005F009FBE048C079401EFD
:10509000DF4931F81000C8231A46962100900846CF
:1050A00005F0FCFA3223C8221946184605F082FBA7
:1050B0006423C8221946322005F07CFB9623C822BF
:1050C0001946322005F076FBC8231A4619463220CD
:1050D00005F070FBC82332221146104605F06AFB2A
:1050E000C82364223221104605F064FBC8239622AF
:1050F0003221104605F05EFBC8231A4632211846BD
:1051000005F058FB012018235522702100907820CB
:1051100005F012FCBF484079401EBD4931F810002F
:1051200064234FF4967232210090FA2005F0B6FA0B
:10513000B8488079401EB64931F8100064234FF416
:10514000AF72322100904FF4967005F0A7FAB14883
:10515000C079401EAE4931F8100064239A00322114
:1051600000904FF4AF7005F099FAAA48C078401E3D
:10517000A74931F8100096235A0064210090FA20C4
:1051800005F08CFAA248008896234FF4AF72642190
:105190000090580005F082FA9E480079401E9C4914
:1051A00031F8100096234FF4C872642100904FF438
:1051B000AF7005F073FA97480078401E944931F8B3
:1051C0001000C8234FF4967296210090FA2005F043
:1051D00065FA90484078401E8D4931F81000C82388
:1051E0004FF4AF7296210090480005F057FA8948B5
:1051F0008078401E864931F81000C8235A00962155
:1052000000904FF4AF7005F049FA3223DA001946E6
:10521000FA2005F0CFFA64239A001946FA2005F027
:10522000C9FA96234FF4C8721946FA2005F0C2FA5B
:10523000C8235A001946FA2005F0BCFAC823FA22FE
:105240003221104605F0B6FAC8234FF49672322187
:10525000104605F0AFFAC8234FF4AF723221104662
:1052600005F0A8FAC8235A003221104605F0A2FA28
:10527000012018234422702100904FF4A07005F003
:105280005BFB65488078401E614931F810004FF49F
:1052900096736422FA210090322005F0FFF95E48EF
:1052A0004078401E5A4931F810004FF49673962208
:1052B000FA210090642005F0F1F957480078401E6B
:1052C000534931F810004FF49673C822FA21009028
:1052D000962005F0E3F950480079401E4C4931F81A
:1052E00010004FF4AF7364224FF496710090322097
:1052F00005F0D4F9464880884FF4AF7396225100E8
:105300000090642005F0CAF94348C078401E404927
:1053100031F810004FF4AF73C8224FF4967100902B
:10532000962005F0BBF93C48C079401E384931F859
:1053300010004FF4C87364224FF4AF710090322014
:1053400005F0ACF934488079401E314931F810003D
:105350004FF4C87396224FF4AF710090642005F0AB
:105360009DF92D484079401E294931F810004FF42D
:10537000C873C8224FF4AF710090962005F08EF9E3
:10538000FA23C8221946322005F014FA4FF4967316
:10539000C8221946322005F00DFA4FF4AF73C82227
:1053A0001946322005F006FA4FF4C873C822194690
:1053B000322005F0FFF94FF4C8733222FA2110466B
:1053C00005F0F8F94FF4C8736422FA21104605F08D
:1053D000F1F94FF4C8739622FA21104605F0EAF964
:1053E0004FF4C873C822FA21104605F0E3F90120F2
:1053F00018234C224FF49C710090782005F09CFA01
:1054000006480078401E02490AE00000140000200F
:1054100028F800081C000020240000202C00002098
:1054200031F810004FF496731A46FA21009008469E
:1054300005F034F9FE484078401EFE4931F810006E
:105440004FF496734FF4AF72FA210090184605F0AE
:1054500025F9F7488078401EF64931F810004FF4DE
:1054600096734FF4C872FA2100904FF4AF7005F0B4
:1054700015F9EF48C078401EEE4931F810004FF49E
:10548000AF734FF4967211460090FA2005F006F9BA
:10549000E848C0884FF4AF731A464FF496710090F5
:1054A000084605F0FBF8E2480079401EE14931F872
:1054B00010004FF4AF734FF4C8724FF49671009020
:1054C000184605F0EBF8DA484079401ED94931F822
:1054D00010004FF4C8734FF496724FF4AF71009000
:1054E000FA2005F0DBF8D2488079401ED14931F826
:1054F00010004FF4C8734FF4AF72114600904FF490
:10550000967005F0CBF8CA48C079401EC94931F8F9
:1055100010004FF4C8731A464FF4AF71009008465C
:1055200005F0BCF8FA234FF4C8721946184605F086
:1055300041F94FF496734FF4C8721946FA2005F0FA
:1055400039F94FF4AF734FF4C8721946FA2005F0D9
:1055500031F94FF4C8731A461946FA2005F02AF9B2
:105560004FF4C873FA221146104605F023F94FF4A0
:10557000C8734FF49672FA21104605F01BF94FF4E8
:10558000C8734FF4AF72FA21104605F013F94FF4C7
:10559000C8731A46FA21184605F00CF901201823A1
:1055A00052224FF49C7100904FF4A07005F0C4F9A2
:1055B000A1480078401E9F4931F810004FF4FA735B
:1055C00064224FF4E1710090322005F067F89A48A8
:1055D0004078401E974931F810004FF4FA73962234
:1055E0004FF4E1710090642005F058F892488078FB
:1055F000401E904931F810004FF4FA73C8224FF45E
:10560000E1710090962005F049F88B48C078401E63
:10561000884931F8100040F2262364224FF4FA71D1
:105620000090322005F03AF88248408840F2262364
:1056300096224FF4FA710090642005F02FF87E480E
:105640000079401E7B4931F8100040F22623C82221
:105650004FF4FA710090962005F020F876484079D2
:10566000401E744931F810004FF41673642240F262
:1056700026210090322005F011F86F488079401EF5
:105680006C4931F810004FF41673962240F226212F
:105690000090642005F002F86748C079401E654913
:1056A00031F810004FF41673C82240F22621009002
:1056B000962004F0F3FF4FF4E173C822194632201C
:1056C00005F078F84FF4FA73C8221946322005F035
:1056D00071F840F22623C8221946322005F06AF8F4
:1056E0004FF41673C8221946322005F063F84FF4C0
:1056F000167332224FF4E171104605F05BF84FF457
:10570000167364224FF4E171104605F053F84FF41C
:10571000167396224FF4E171104605F04BF84FF4E2
:105720001673C8224FF4E171104605F043F80120CA
:105730001823462241020090782005F0FDF83F48EA
:105740008078401E3B4931F810004FF4FA734FF453
:1057500096724FF4E1710090FA2004F09FFF3748F1
:105760004078401E334931F810004FF4FA734FF47B
:10577000AF724FF4E17100904FF4967004F08EFF19
:105780002E480078401E2B4931F810004FF4FA7370
:105790004FF4C8724FF4E17100904FF4AF7004F011
:1057A0007DFF26480079401E224931F8100040F262
:1057B00026234FF496724FF4FA710090FA2004F009
:1057C0006DFF1C48008940F226234FF4AF724FF45E
:1057D000FA7100904FF4967004F060FF1748C0789B
:1057E000401E144931F8100040F226234FF4C872CD
:1057F0004FF4FA7100904FF4AF7004F04FFF0F4870
:10580000C079401E0B4931F810004FF416735A103E
:1058100040F226210090FA2004F040FF07488079EA
:10582000401E044931F810004FF4167308E00000E0
:105830002C00002028F80008340000203C00002044
:105840004FF4AF7240F226210090581004F026FF6A
:10585000FE484079401EFE4931F810004FF416739F
:105860004FF4C87240F2262100904FF4AF7004F05C
:1058700015FF4FF4E1734FF4C8721946FA2004F093
:1058800099FF4FF4FA734FF4C8721946FA2004F0E6
:1058900091FF40F226234FF4C8721946FA2004F013
:1058A00089FF4FF416734FF4C8721946FA2004F0BA
:1058B00081FF4FF41673FA224FF4E171104604F0A1
:1058C00079FF4FF416735A104FF4E171104604F04B
:1058D00071FF4FF416734FF4AF724FF4E17110463D
:1058E00004F068FF4FF416734FF4C8724FF4E1717F
:1058F000104604F05FFF012018234222410200906D
:105900004FF4A07005F018F808BD7CB504464FF6BA
:10591000FF702823F02200210090084604F0BEFE0C
:1059200018200346F0220A21CDE900040F2005F0DB
:105930004EF96078392806DA6078302803DD60781F
:105940003038C6B200E00126002559E020784C2806
:1059500024D006DC422815D0442843D046284DD117
:1059600004E0522826D0552848D12FE06078272817
:1059700002D0A078272802D1FFF7E7F901E0FFF76E
:105980009BF93BE06078272802D0A078272802D135
:10599000FFF76DFA01E0FFF721FA2FE06078272882
:1059A00002D0A078272802D1FFF794F801E0FFF792
:1059B00048F823E06078272802D0A078272802D171
:1059C000FFF731F901E0FFF7CEF817E060782728FC
:1059D00002D0A078272802D1FEF7EAFF01E0FEF707
:1059E0009EFF0BE06078272802D0A078272802D1FC
:1059F000FFF7CFFA01E0FFF783FA00BF00BF6D1C8D
:105A0000B542A3D300251EE04021924808F071FE64
:105A1000615D904808F0B0FD00BF40218D4808F05E
:105A20005BFE0128F9D140218B4808F062FE615DE0
:105A3000894808F0A1FD00BF4021874808F04CFECE
:105A40000128F9D16D1C605D0028DDD1FFF7A9FAAE
:105A500021E08248008800F4004058B100207F49CE
:105A600008807F4800784F2815D17D4840784B2822
:105A700011D111E07B48008800F4004058B10020AB
:105A800078490880784800784F2804D176484078D3
:105A90004B2800D100E0DCE700BF7CBD01460729B0
:105AA00011D2DFE801F010060C080A0E04005520A0
:105AB00070474420FCE74C20FAE75220F8E74620E4
:105AC000F6E74220F4E700BFF2E700B50246674977
:105AD0008879FFF7E3FF107065494878FFF7DEFF2C
