:1000000017C1000045C1000043C1000041C100000C
:100010003FC100003DC100003BC1000039C10000EC
:1000200037C1000035C1000033C1000031C10000FC
:100030002FC100002DC100002BC1000029C100000C
:1000400027C1000025C1000023C1000021C100001C
:100050001FC100001DC100001BC10000FAC6000046
:1000600017C1000015C1000013C1000011C100003C
:100070000FC100000DC100000BC1000009C100004C
:1000800007C1000005C1000003C1000001C100005C
:10009000FFC00000FDC00000FBC00000F9C0000070
:1000A000F7C00000F5C00000F3C00000F1C0000080
:1000B000EFC00000EDC00000EBC00000E9C0000090
:1000C000E7C00000E5C00000E3C00000E1C00000A0
:1000D000DFC00000DDC00000DBC00000D9C00000B0
:1000E000D7C0000097019A0189018D019101D101CA
:1000F0009E01A201A801AC01B001B601BA01BE0186
:10010000D101C401C801CC014102450249024D029E
:10011000510255025902C403CB03D203D903E003B1
:10012000F803E703F803EE0300000A0B02090C0DC5
:100130000E0807030401000000000000000000009A
:1001400000000000000000000000000000000000AF
:10015000000000001211100000000000000000006C
:10016000000000000000000000000000000000008F
:100170002200250028002B002E003100340002014F
:100180000000050108010B010000210024002700E8
:100190002A002D0030003300010100000401070196
:1001A0000A010505050507050808080802020202FC
:1001B0000A0A080804040404010101010101010103
:1001C0000303030303030303040707070C0C0C0CCE
:1001D0000C0C0C0C020202020606060606060606B7
:1001E0000B0B0B0B0B0B0B0B010210202008081044
:1001F0002040102040800201020108040201010297
:10020000040810204080804020100804020180046F
:1002100002018040201008040201080402010102CA
:100220000408102040800102040810204080940837
:1002300011241FBECFEFD1E2DEBFCDBF00E00CBF67
:1002400012E0A0E0B2E0ECEFF6E100E00BBF02C08C
:1002500007900D92AA31B107D9F723E0AAE1B2E0E5
:1002600001C01D92AB3BB207E1F711E0C8E1D1E05C
:1002700000E006C021970109802FFE010E94740B47
:10028000C731D10780E00807A9F72DD60C947C0B65
:10029000B7CE90E0FC01E851FE4F2491FC01EE55F1
:1002A000FE4F8491882399F090E0880F991FFC01FC
:1002B000E857FE4FA591B491FC01E259FE4F85919C
:1002C00094918FB7F894EC91E22BEC938FBF089543
:1002D000362F90E0FC01E85DFE4F4491FC01E851AF
:1002E000FE4F2491FC01EE55FE4F9491992309F4A1
:1002F0006BC0442309F455C050E0FA013197E23154
:10030000F10508F04EC08827EE58FF4F8F4F0C9430
:10031000740B809180008F7707C0809180008F7D63
:1003200003C080918000877F809380003AC084B5AD
:100330008F7702C084B58F7D84BD33C08091B000BB
:100340008F7703C08091B0008F7D8093B00029C06B
:10035000809190008F7707C0809190008F7D03C0BF
:1003600080919000877F809390001BC08091A000B7
:100370008F7707C08091A0008F7D03C08091A0007F
:10038000877F8093A0000DC0809120018F7707C0E8
:10039000809120018F7D03C080912001877F809311
:1003A0002001E92FF0E0EE0FFF1FE259FE4FA5916B
:1003B000B4918FB7F894EC91311103C020952E239E
:1003C00001C02E2B2C938FBF0895CF93DF93FC0198
:1003D00023812223F9F0EC0184815BDF8D8159DFD9
:1003E0008B81843011F0883021F48E8152DF8F812F
:1003F00005C0833011F0863011F48E814ADF8FA55D
:100400008F3F41F046DF6EA581E068278FA5DF9121
:10041000CF915ECFDF91CF910895CF93DF93FC0111
:100420002381222391F0EC010190F081E02D0480E2
:10043000F581E02D60E019958FA58F3F31F029DF20
:100440006EA58FA5DF91CF9143CFDF91CF91089516
:10045000CF93DF93DC014770552766277727FA0192
:100460003197CD91DC911197E730F10530F4882771
:10047000EC57FF4F8F4F0C94740BEC81FD8161E0C2
:100480001BC0EC81FD8165E017C0EC81FD8164E05B
:1004900013C0EC81FD8166E00FC0EC81FD8162E05C
:1004A0000BC0EC81FD816AE007C0EC81FD8168E052
:1004B00003C0EC81FD8169E0CD01DF91CF911994FA
:1004C000CF93DF93EC01CB01BA0126E030E040E0AE
:1004D00050E00E94580B623071058105910559F179
:1004E0008CF46115710581059105F1F0613071059C
:1004F00081059105C1F5E881F9810480F581E02D40
:1005000065E02DC0643071058105910511F1D4F0CD
:10051000653071058105910531F5E881F981048027
:10052000F581E02D66E01BC0E881F9810480F5814A
:10053000E02D64E014C0E881F9810480F581E02DAC
:1005400061E00DC0E881F9810480F581E02D63E070
:1005500006C0E881F9810480F581E02D62E0CE01DA
:10056000DF91CF911994DF91CF9108954370552772
:1005700066277727DC01ED91FC910480F581E02D61
:10058000423051056105710571F043305105610537
:10059000710559F0413051056105710511F065E0B3
:1005A00005C066E003C06AE001C069E01994CF931A
:1005B000DF93EC01CB01BA0123E030E040E050E0F2
:1005C0000E94580B613071058105910581F0623000
:1005D00071058105910591F0672B682B692BC1F49A
:1005E000E881F9810480F581E02D64E00DC0E881A7
:1005F000F9810480F581E02D61E006C0E881F98190
:100600000480F581E02D62E0CE01DF91CF91199455
:10061000DF91CF9108954370552766277727DC0136
:10062000ED91FC910480F581E02D4230510561058A
:10063000710571F0433051056105710559F0413084
:1006400051056105710511F062E005C063E003C06A
:1006500061E001C060E01994CF93DF93EC01E88181
:10066000F9810480F581E02D8A81811102C060E06A
:1006700001C062E0CE011995E881F9810480F5811D
:10068000E02D8A81811102C061E001C063E0CE01EA
:1006900019958CA59DA58230910538F0880F991F7A
:1006A000880F991F05970197F1F7E881F981048078
:1006B000F581E02D8A81811102C060E001C062E015
:1006C000CE01DF91CF911994CF93DF93EC0120E01D
:1006D00030E0A9016C897D898E899F8909D7181618
:1006E0001CF4E8A9F9A902C0EAA9FBA9DF91CF91FE
:1006F0001994CF92DF92EF92FF920F931F93CF93B3
:10070000DF93FC012381243041F0283031F0233085
:1007100031F0263021F012E003C014E001C013E0F4
:10072000EC012896E12CF12CC62ED12C01E0C6015B
:100730000E2C02C0959587950A94E2F7688180FD9A
:100740006027FE0134978081C3DDFFEFEF1AFF0AB7
:100750002196E11660F3DF91CF911F910F91FF90E9
:10076000EF90DF90CF9008950F931F93DC011396C5
:100770000C91139710E009301105D0F5F801882786
:10078000E557FF4F8F4FB0C7ED91FC911197008453
:10079000F185E02D29C0ED91FC9111970284F3853C
:1007A000E02D22C0ED91FC9111970484F585E02D98
:1007B0001BC0ED91FC9111970684F785E02D14C0C4
:1007C000ED91FC9111970088F189E02D0DC0ED911C
:1007D000FC9111970288F389E02D06C0ED91FC9100
:1007E00011970488F589E02DCD011F910F9119947F
:1007F0001F910F9108952F923F924F925F926F92A7
:100800007F928F929F92AF92BF92CF92DF92EF92A0
:10081000FF920F931F93CF93DF9300D01F92CDB71A
:10082000DEB71C01FC01C088D188E288F38884858A
:100830009585A685B785C81AD90AEA0AFB0A64898C
:100840007589868997899B01AC0156D64B015C015D
:10085000F101648D758D868D978D9B01AC0195D4CA
:100860009B01AC01C501B401F8D45FD5C114D1041A
:10087000E104F104A1F462307105810591050CF0E9
:100880007CC0F10114A215A216A217A2148A158A1F
:10089000168A178A14AA15AA16AA17AAF6C0F10171
:1008A00004A915A926A937A91C141D041E041F0498
:1008B00004F510161106120613064CF46C157D058E
:1008C0008E059F055CF52281211157C027C00115B7
:1008D00011052105310509F450C06C157D058E0503
:1008E0009F050CF04AC0F1018281882309F445C0BC
:1008F00039C01016110612061306FCF40027112742
:1009000098010C191D092E093F096017710782070C
:10091000930724F4F1012281222379F19B01AC0198
:1009200088279927DC01821B930BA40BB50BF101DF
:1009300084AB95ABA6ABB7AB20C001151105210563
:100940003105D9F08824992454018C189D08AE08EB
:10095000BF08681579058A059B057CF4F101828141
:1009600081110BC030952095109501951F4F2F4F89
:100970003F4F04AB15AB26AB37ABF10184A895A86C
:10098000A6A8B7A881149104A104B10491F480AD84
:1009900091ADA2ADB3AD84AF95AFA6AFB7AF81E0D7
:1009A0001C141D041E041F040CF080E0F10182835E
:1009B0003AC0F101C4ACD5ACE6ACF7ACA7019601E6
:1009C000C701B601E2D32B013C01C501B401E0D45B
:1009D00020E030E040E850E48FD520E030E040E80F
:1009E0005FE3D3D39B01AC01C301B20136D49B01B9
:1009F000AC01C701B601C8D37B018C01F101E05CF9
:100A0000FF4F60807180C280D3809301A60170D5B2
:100A1000181614F073018601A701B801F10144AF63
:100A200055AF66AF77AFFFEF8F1A9F0AAF0ABF0AC5
:100A3000F10184AA95AAA6AAB7AA24AD35AD46AD00
:100A400057ADCA01B90129833A834B835C8372D4C1
:100A5000F10164A375A386A397A329813A814B81F1
:100A60005C8160E074E284E799E4F7D3F101648B80
:100A7000758B868B978B2281211107C0DC01CB01FE
:100A8000B058848B958BA68BB78B0F900F900F90DF
:100A90000F90DF91CF911F910F91FF90EF90DF901A
:100AA000CF90BF90AF909F908F907F906F905F900E
:100AB0004F903F902F900895CF92DF92EF92FF9248
:100AC0000F931F93CF93DF93EC016A017B0120E02A
:100AD00030E0A901C701B601BCD387FF04C0F7FA13
:100AE000F094F7F8F094A7019601688D798D8A8DBE
:100AF0009B8DAFD3882309F440C0C88ED98EEA8E6F
:100B0000FB8E8E01005C1F4FA701960160E074E22E
:100B100084E799E4A2D3F80160837183828393838D
:100B20008CA99DA9AEA9BFA9181619061A061B06FD
:100B300024F56C897D898E899F899B01AC01DCD469
:100B40006B017C016C8D7D8D8E8D9F8D9B01AC0129
:100B50001CD39B01AC01C701B6017FD3E6D36CABBC
:100B60007DAB8EAB9FABCE01DF91CF911F910F91EB
:100B7000FF90EF90DF90CF903ECEDF91CF911F910D
:100B80000F91FF90EF90DF90CF900895CF92DF927A
:100B9000EF92FF92CF93DF93EC018CA19DA1AEA1C8
:100BA000BFA1892B8A2B8B2B09F458C03FB7F8942F
:100BB00080911A0290911B02A0911C02B0911D021B
:100BC00026B5A89B05C02F3F19F00196A11DB11DA8
:100BD0003FBFCC24D82EE92EFA2EC20ED11CE11C28
:100BE000F11C42E0CC0CDD1CEE1CFF1C4A95D1F739
:100BF00088A599A5AAA5BBA5B701A601481B590BB5
:100C00006A0B7B0B8CA19DA1AEA1BFA14817590710
:100C10006A077B0718F12A818C859D85AE85BF8583
:100C2000222321F00196A11DB11D03C00197A10946
:100C3000B1098C879D87AE87BF87E881F9814C8594
:100C40005D856E857F850680F781E02DCE01199543
:100C5000C8A6D9A6EAA6FBA6CE01CDDD20E030E0ED
:100C6000A9016C897D898E899F89F3D2811110C079
:100C700081E0C888D988EA88FB884C855D856E85C7
:100C80007F85C416D506E606F70619F480E001C094
:100C900081E0DF91CF91FF90EF90DF90CF900895AA
:100CA0004F925F926F927F928F929F92AF92BF927C
:100CB000CF92DF92EF92FF92CF93DF93EC016A0124
:100CC0007B0120E030E0A901C701B601C2D287FF55
:100CD00004C0F7FAF094F7F8F0948C8C9D8CAE8CED
:100CE000BF8CA7019601C501B401B3D2882309F4D2
:100CF00040C06CA97DA98EA99FA94AD32B013C01B4
:100D0000A7019601C501B401A8D29B01AC01C301A2
:100D1000B201F2D30AD36CAB7DAB8EAB9FABA70114
:100D2000960160E070E080E090E497D24CD426E534
:100D30003EE04DE25FE3E0D320E034E244E759E4F3
:100D4000DBD368AF79AF8AAF9BAFCC8EDD8EEE8EF2
:100D5000FF8ECE01DF91CF91FF90EF90DF90CF908B
:100D6000BF90AF909F908F907F906F905F904F90CB
:100D700042CDDF91CF91FF90EF90DF90CF90BF9069
:100D8000AF909F908F907F906F905F904F9008955D
:100D9000CF92EF920F93CF93DF93EC0184E092E038
:100DA000998388836B831C861D861E861F86188AFE
:100DB000198A1A8A1B8A1C8A1D8A1E8A1F8A80E049
:100DC00090E0A0E8BFE3888F998FAA8FBB8F1C8E1D
:100DD0001D8E1E8E1F8E88A399A3AAA3BBA31CA23F
:100DE0001DA21EA21FA261E070E07DA76CA73FEFCD
:100DF0003FA718A619A61AA61BA64C832D830E83FF
:100E0000EF821EA61CAA1DAA1EAA1FAA18AE19AE02
:100E10001AAE1BAE1CAE1DAE1EAE1FAEFE01E05CD8
:100E2000FF4F80839183A283B3831A821886198629
:100E30001A861B86CC2011F0CE01C7DA40E050E0C4
:100E400060E87FE3CE01DF91CF910F91EF90CF90DB
:100E500027CF1F920F920FB60F9211242F933F931B
:100E60008F939F93AF93BF9380911F029091200225
:100E7000A0912102B091220230911E0223E0230FA3
:100E80002D3720F40196A11DB11D05C026E8230FC2
:100E90000296A11DB11D20931E0280931F02909304
:100EA0002002A0932102B093220280911A02909115
:100EB0001B02A0911C02B0911D020196A11DB11D43
:100EC00080931A0290931B02A0931C02B0931D0200
:100ED000BF91AF919F918F913F912F910F900FBE36
:100EE0000F901F901895789484B5826084BD84B566
:100EF000816084BD85B5826085BD85B5816085BD15
:100F000080916E00816080936E00109281008091CC
:100F10008100826080938100809181008160809354
:100F20008100809180008160809380008091B10079
:100F300084608093B1008091B00081608093B000A4
:100F400080919100826080939100809191008160F6
:100F500080939100809190008160809390008091B7
:100F6000A10082608093A1008091A10081608093A4
:100F7000A1008091A00081608093A0008091210158
:100F80008260809321018091210181608093210101
:100F90008091200181608093200180917A0084609B
:100FA00080937A0080917A00826080937A008091A9
:100FB0007A00816080937A0080917A0080688093C3
:100FC0007A001092C1008DE064D986E362D987E38C
:100FD00060D986E25ED98CE35CD98DE35AD988E387
:100FE00058D98EE256D980E354D98EE352D98AE19A
:100FF00050D98CE14ED98AE04CD984E24AD982E2B8
:1010000048D983E246D960E086E262D960E088E3AD
:101010005FD960E08EE35CD960E08AE059D960E096
:1010200083E256D940E054E264E779E48BEA92E047
:1010300043DD40E054E264EF79E48BEA92E030DE95
:1010400040E050E46CE176E487E692E035DD40E094
:1010500050E46CE176E487E692E022DE40E050E482
:101060006CE176E483E292E027DD40E050E46CE15D
:1010700076E483E292E014DE88EEC82E83E0D82E78
:10108000E12CF12CC0E0D0E090E8892E9CE0992E74
:10109000A12CB12C2FB7F89460911F0270912002FF
:1010A00080912102909122022FBFA7019601DED2EA
:1010B000643F71408105910510F461E001C060E07A
:1010C0008DE006D987E793E061DD83E393E05EDDA1
:1010D0008FEE92E05BDD8BEA92E058DD87E692E0EE
:1010E00055DD8091330290913402A0913502B09188
:1010F000360280389C40A105B10559F08092330238
:1011000090923402A0923502B092360283E292E0CD
:1011100072DB83E292E03ADD8111FBCF209709F484
:10112000B9CF0E940000B6CFCF92EF920F93CC249C
:10113000C39485E0E82E04E027E346E361E087E717
:1011400093E026DE2DE34CE361E083E393E020DED1
:1011500020E34EE261E08FEE92E01ADE2CE14AE1FC
:1011600061E08BEA92E014DE22E244E261E087E68D
:1011700092E00EDE20E24FE261E083E292E008DEE0
:101180000F91EF90CF9008955058BB27AA270ED00B
:1011900075C166D130F06BD120F031F49F3F11F46E
:1011A0001EF45BC10EF4E095E7FB51C1E92F77D146
:1011B00080F3BA17620773078407950718F071F474
:1011C0009EF58FC10EF4E0950B2EBA2FA02D0B01CA
:1011D000B90190010C01CA01A0011124FF27591B7C
:1011E00099F0593F50F4503E68F11A16F040A22F82
:1011F000232F342F4427585FF3CF469537952795F3
:10120000A795F0405395C9F77EF41F16BA0B620BF1
:10121000730B840BBAF09150A1F0FF0FBB1F661F38
:10122000771F881FC2F70EC0BA0F621F731F841F7B
:1012300048F4879577956795B795F7959E3F08F0A1
:10124000B3CF9395880F08F09927EE0F9795879560
:101250000895D9D008F481E008950CD00FC107D1CA
:1012600040F0FED030F021F45F3F19F0F0C0511192
:1012700039C1F3C014D198F39923C9F35523B1F3BD
:10128000951B550BBB27AA2762177307840738F0F5
:101290009F5F5F4F220F331F441FAA1FA9F333D054
:1012A0000E2E3AF0E0E830D091505040E695001C08
:1012B000CAF729D0FE2F27D0660F771F881FBB1FC4
:1012C000261737074807AB07B0E809F0BB0B802D9E
:1012D000BF01FF2793585F4F2AF09E3F510568F0EA
:1012E000B6C000C15F3FECF3983EDCF3869577957E
:1012F0006795B795F7959F5FC9F7880F911D9695EC
:10130000879597F90895E1E0660F771F881FBB1F47
:10131000621773078407BA0720F0621B730B840BF4
:10132000BA0BEE1F88F7E095089504D06894B111C8
:10133000D9C00895BCD088F09F5790F0B92F992755
:10134000B751A0F0D1F0660F771F881F991F1AF0D0
:10135000BA95C9F712C0B13081F0C3D0B1E0089599
:10136000C0C0672F782F8827B85F39F0B93FCCF31A
:10137000869577956795B395D9F73EF490958095C6
:10138000709561957F4F8F4F9F4F0895E89409C0E6
:1013900097FB3EF490958095709561957F4F8F4FA8
:1013A0009F4F9923A9F0F92F96E9BB279395F695BE
:1013B000879577956795B795F111F8CFFAF4BB0F3C
:1013C00011F460FF1BC06F5F7F4F8F4F9F4F16C0A0
:1013D000882311F096E911C0772321F09EE8872F2A
:1013E000762F05C0662371F096E8862F70E060E0E6
:1013F0002AF09A95660F771F881FDAF7880F96955F
:10140000879597F90895990F0008550FAA0BE0E802
:10141000FEEF16161706E807F907C0F012161306B6
:10142000E407F50798F0621B730B840B950B39F4F6
:101430000A2661F0232B242B252B21F408950A265C
:1014400009F4A140A6958FEF811D811D089597F99C
:101450009F6780E870E060E008959FEF80EC08955A
:1014600000240A9416161706180609060895002483
:101470000A9412161306140605060895092E0394FD
:10148000000C11F4882352F0BB0F40F4BF2B11F471
:1014900060FF04C06F5F7F4F8F4F9F4F089557FDD0
:1014A0009058440F551F59F05F3F71F04795880FD2
:1014B00097FB991F61F09F3F79F087950895121669
:1014C00013061406551FF2CF4695F1DF08C0161615
:1014D00017061806991FF1CF8695710561050894C6
:1014E0000895E894BB2766277727CB0197F90895DD
:1014F0008ADF08F48FEF08950BD0C0CFB1DF28F05A
:10150000B6DF18F0952309F0A2CFA7CF1124EACFB8
:10151000C6DFA0F3959FD1F3950F50E0551F629F52
:10152000F001729FBB27F00DB11D639FAA27F00D3C
:10153000B11DAA1F649F6627B00DA11D661F829F63
:101540002227B00DA11D621F739FB00DA11D621F48
:10155000839FA00D611D221F749F3327A00D611D65
:10156000231F849F600D211D822F762F6A2F112447
:101570009F5750408AF0E1F088234AF0EE0FFF1F9A
:10158000BB1F661F771F881F91505040A9F79E3FD1
:10159000510570F05CCFA6CF5F3FECF3983EDCF3D3
:1015A000869577956795B795F795E7959F5FC1F70E
:1015B000FE2B880F911D9695879597F9089511F444
:1015C0000EF44BCF3EC073DFD0F39923D9F3CEF3A3
:1015D0009F57550B87FF43D00024A0E640EA9001B7
:1015E00080585695979528F4805C660F771F881F62
:1015F00020F026173707480730F4621B730B840B63
:10160000202931294A2BA6951794079420253125A6
:101610004A2758F7660F771F881F20F026173707CD
:10162000480730F4620B730B840B200D311D411DF4
:10163000A09581F7B901842F9158880F96958795C9
:1016400008959F3F31F0915020F4879577956795E5
:10165000B795880F911D9695879597F908959150A4
:101660005040660F771F881FD2F70895A1E21A2E07
:10167000AA1BBB1BFD010DC0AA1FBB1FEE1FFF1F36
:10168000A217B307E407F50720F0A21BB30BE40B86
:10169000F50B661F771F881F991F1A9469F76095CD
:1016A0007095809590959B01AC01BD01CF01089587
:1016B000052E97FB16F400940FD057FD05D0D6DF0A
:1016C00007FC02D046F408C050954095309521950E
:1016D0003F4F4F4F5F4F089590958095709561955E
:1016E0007F4F8F4F9F4F0895EE0FFF1F881F8BBFB7
:0C16F0000790F691E02D1994F894FFCFBC
:1016FC00000000000D02E5017903B40364032C0320
:0A170C000B03D702B60260022802A8
:020000023000CC
:10E000000D9489F10D94B2F10D94B2F10D94B2F129
:10E010000D94B2F10D94B2F10D94B2F10D94B2F1F0
:10E020000D94B2F10D94B2F10D94B2F10D94B2F1E0
:10E030000D94B2F10D94B2F10D94B2F10D94B2F1D0
:10E040000D94B2F10D94B2F10D94B2F10D94B2F1C0
:10E050000D94B2F10D94B2F10D94B2F10D94B2F1B0
:10E060000D94B2F10D94B2F10D94B2F10D94B2F1A0
:10E070000D94B2F10D94B2F10D94B2F10D94B2F190
:10E080000D94B2F10D94B2F10D94B2F10D94B2F180
:10E090000D94B2F10D94B2F10D94B2F10D94B2F170
:10E0A0000D94B2F10D94B2F10D94B2F10D94B2F160
:10E0B0000D94B2F10D94B2F10D94B2F10D94B2F150
:10E0C0000D94B2F10D94B2F10D94B2F10D94B2F140
:10E0D0000D94B2F10D94B2F10D94B2F10D94B2F130
:10E0E0000D94B2F141546D656761323536300041AF
:10E0F000726475696E6F206578706C6F72657220DE
:10E1000073746B3530305632206279204D4C530099
:10E11000426F6F746C6F616465723E004875683F52
:10E1200000436F6D70696C6564206F6E203D200048
:10E130004350552054797065202020203D20005FF9
:10E140005F4156525F415243485F5F3D2000415658
:10E1500052204C696243205665723D20004743437C
:10E160002056657273696F6E203D20004350552024
:10E1700049442020202020203D20004C6F7720663D
:10E18000757365202020203D20004869676820665F
:10E190007573652020203D200045787420667573D6
:10E1A00065202020203D20004C6F636B2066757336
:10E1B000652020203D20004D617220203720323024
:10E1C000313300312E362E3800342E332E350056A2
:10E1D00023202020414444522020206F7020636F70
:10E1E00064652020202020696E73747275637469E1
:10E1F0006F6E2061646472202020496E74657272B3
:10E20000757074006E6F20766563746F7200726A49
:10E210006D702020006A6D70200057686174207056
:10E220006F72743A00506F7274206E6F7420737541
:10E2300070706F72746564004D7573742062652030
:10E2400061206C6574746572002000577269747483
:10E25000696E672045450052656164696E672045B7
:10E26000450045452065727220636E743D00504F35
:10E27000525400303D5A65726F2061646472003FF1
:10E280003D43505520737461747300403D454550C3
:10E29000524F4D207465737400423D426C696E6B41
:10E2A000204C454400453D44756D70204545505215
:10E2B0004F4D00463D44756D7020464C415348001B
:10E2C000483D48656C70004C3D4C69737420492F83
:10E2D0004F20506F72747300513D51756974005234
:10E2E0003D44756D702052414D00563D73686F7707
:10E2F00020696E7465727275707420566563746FF0
:10E30000727300593D506F727420626C696E6B00BD
:10E310002A0011241FBECFEFD1E2DEBFCDBF01E046
:10E320000CBF12E0A0E0B2E0EEE1FDEF03E00BBFB6
:10E3300002C007900D92A030B107D9F712E0A0E01B
:10E34000B2E001C01D92AE30B107E1F70F9460F367
:10E350000D948DFE01E20EBF0FEF0DBF11241FBE05
:10E360000D9460F30D9400F020E030E040ED57E0B4
:10E3700005C0FA013197F1F72F5F3F4F2817390792
:10E38000C0F308959C01260F311DC901A0E0B0E043
:10E390002F5F3F4FABBFFC018791882361F08093D3
:10E3A000C6008091C00086FFFCCF8091C0008064D1
:10E3B0008093C000EACF08958DE08093C6008091DD
:10E3C000C00086FFFCCF8091C00080648093C000B5
:10E3D0008AE08093C6008091C00086FFFCCF8091C8
:10E3E000C00080648093C00008950F94C2F10F9420
:10E3F000DCF10895FC019081992359F09093C600B7
:10E400008091C00086FFFCCF8091C0008064809323
:10E41000C0003196992379F70895282F982F929567
:10E420009F70892F805D8A3308F0895F8093C600D2
:10E430008091C00086FFFCCF8091C00080648093F3
:10E44000C000822F8F70982F905D9A3308F0995FEB
:10E450009093C6008091C00086FFFCCF8091C000E1
:10E4600080648093C00008959C01FB01853691056E
:10E470001CF46330710594F0C90164E670E00F94F8
:10E480002EFE605D7F4F6093C6008091C00086FFC6
:10E49000FCCF8091C00080648093C0002B30310598
:10E4A00014F43297B4F0C90164E670E00F942EFEC4
:10E4B0006AE070E00F942EFE605D7F4F6093C600AF
:10E4C0008091C00086FFFCCF8091C0008064809363
:10E4D000C000C9016AE070E00F942EFEC0968093E0
:10E4E000C6008091C00086FFFCCF8091C000806490
:10E4F0008093C00008951F93182F8EE692EE60E07F
:10E500000F94C2F11093C6008091C00086FFFCCF2B
:10E510008091C00080648093C0000F94DCF11F9153
:10E5200008952F923F924F925F926F927F928F92B7
:10E530009F92AF92BF92CF92DF92EF92FF920F9392
:10E540001F93DF93CF93CDB7DEB762970FB6F894E2
:10E55000DEBF0FBECDBF382E622ECA01DB015C01CB
:10E560006D01772420E2222E2E010894411C511CBB
:10E570008BC081E0A81680E0B80681E0C80680E084
:10E58000D80628F0C601AA27BB270F940DF2BB2797
:10E59000AD2D9C2D8B2D0F940DF28A2D0F940DF225
:10E5A0002092C6008091C00086FFFCCF8091C00001
:10E5B00080648093C0009DE29093C6008091C0006B
:10E5C00086FFFCCF8091C00080648093C0002092C1
:10E5D000C6008091C00086FFFCCF8091C00080649F
:10E5E0008093C00019828601750188249924A1E0D6
:10E5F0003A1651F03A1620F0B2E03B1661F409C029
:10E600000BBFF701779007C0C7010F9477FE782EF4
:10E6100002C0F7017080872D0F940DF22092C60082
:10E620008091C00086FFFCCF8091C0008064809301
:10E63000C000872D8052F401EF70F0708F3520F408
:10E64000E40DF51D708204C0E40DF51D8EE280839B
:10E650000894E11CF11C011D111D0894811C911CE2
:10E6600090E18916910409F0C2CF80E190E0A0E02A
:10E67000B0E0A80EB91ECA1EDB1E198AC2010F9493
:10E68000FAF10F94DCF16A94662009F072CF629679
:10E690000FB6F894DEBF0FBECDBFCF91DF911F91B3
:10E6A0000F91FF90EF90DF90CF90BF90AF909F9031
:10E6B0008F907F906F905F904F903F902F90089534
:10E6C0002F923F924F925F926F927F928F929F9282
:10E6D000AF92BF92CF92DF92EF92FF920F931F9370
:10E6E000DF93CF93CDB7DEB7CD53D1400FB6F894BB
:10E6F000DEBF0FBECDBF01E20EBF0FEF0DBF94B75F
:10E70000F894A89514BE80916000886180936000A1
:10E7100010926000789493FF05C0E0910002F091A0
:10E7200001021995279A2F9A8091C00082608093E8
:10E73000C00080E18093C40088E18093C1000000A4
:10E74000EE24FF24870144E0A42EB12CCC24DD2448
:10E7500024C0C5010197F1F70894E11CF11C011DCB
:10E76000111D21E2E2162EE4F20620E0020720E06D
:10E77000120718F031E0C32ED12CC801B70127ECE5
:10E780003BE140E050E00F9441FE611571058105C9
:10E79000910519F485B1805885B98091C00087FD35
:10E7A00003C0C114D104A9F2A6014F5F5F4FC25E3E
:10E7B000DE4F59834883CE51D140C25EDE4F8881FF
:10E7C0009981CE51D140019711F00D9410FEC05D9A
:10E7D000DE4F19821882C053D14060E0C15DDE4F28
:10E7E0001882CF52D14088249924C35DDE4F19820C
:10E7F0001882CD52D140C05EDE4F188219821A8233
:10E800001B82C052D140CE5CDE4F188219821A8220
:10E810001B82C253D140EE24FF2487010BBFF701B6
:10E8200007911691C45CDE4F19830883CC53D14005
:10E830000D940BFEC25EDE4F28813981CE51D1404E
:10E840002130310509F52091C600C25EDE4F1982E4
:10E850001882CE51D14022C02F5F3F4F4F4F5F4FA4
:10E86000213082E138078AE7480780E0580780F0C6
:10E87000C45CDE4FE881F981CC53D140EF5FFF4F9C
:10E8800019F0EE27FF27099420E030E040E050E047
:10E890008091C00087FFE0CF2091C600C35DDE4FAE
:10E8A00048815981CD52D1404F5F5F4FC35DDE4FEC
:10E8B00059834883CD52D140213209F063C64A3092
:10E8C000510508F05FC60894811C911C53E0851621
:10E8D000910409F059C600E010E018C081E280936D
:10E8E000C6008091C00086FFFCCF8091C00080648C
:10E8F0008093C0002F5F3F4F2931310579F70F9486
:10E90000DCF10F5F1F4F0530110519F020E030E0FA
:10E91000E5CF10920A0210920B0210920C02109294
:10E920000D02109206021092070210920802109235
:10E930000902109202021092030210920402109235
:10E9400005028FEE90EE60E00F94F5F180E191EE1C
:10E9500060E00F94C2F18091C00087FFFCCF9091DE
:10E96000C600903608F09F759032B8F09093C600BC
:10E970008091C00086FFFCCF8091C00080648093AE
:10E98000C000A0E2A093C6008091C00086FFFCCF2B
:10E990008091C00080648093C000983409F4D7C18E
:10E9A0009934B8F4923409F459C1933458F490333B
:10E9B00019F1903308F4E3C59F33A1F1903409F0C5
:10E9C000DEC5BDC0953409F470C1963409F0D7C5D1
:10E9D00098C1923509F42BC2933538F49C3409F46C
:10E9E000F5C1913509F0CBC518C2963509F445C279
:10E9F000993509F0C4C567C483E792EE62E00F94CD
:10EA0000F5F110920602109207021092080210927D
:10EA1000090210920A0210920B0210920C0210923C
:10EA20000D0213C18FE792EE62E00F94F5F18FEEC5
:10EA300090EE60E00F94F5F181E291EE60E00F94CA
:10EA4000C2F187EB91EE60E00F94F5F180E391EE77
:10EA500060E00F94C2F184EE90EE60E00F94F5F167
:10EA60008FE391EE60E00F94C2F186E090E061E008
:10EA700070E00F9434F20F94DCF18DE591EE60E0DC
:10EA80000F94C2F189EC91EE60E00F94F5F18EE401
:10EA900091EE60E00F94C2F183EC91EE60E00F9490
:10EAA000F5F18CE691EE60E00F94C2F18EE10F94E7
:10EAB0000DF288E90F940DF281E00F940DF20F949E
:10EAC000DCF18BE791EE60E00F94C2F119E0E0E039
:10EAD000F0E010935700E4918E2F0F940DF20F94F5
:10EAE000DCF18AE891EE60E00F94C2F1E3E0F0E03F
:10EAF00010935700E4918E2F0F940DF20F94DCF1D8
:10EB000089E991EE60E00F94C2F1E2E0F0E0109349
:10EB10005700E4918E2F0F940DF20F94DCF188EAE8
:10EB200091EE60E00F94C2F1E1E0F0E01093570045
:10EB30001491812F0F940DF20F94DCF107CF8BE825
:10EB400092EE62E00F94F5F18BE492EE60E00F94A8
:10EB5000F5F10F94DCF100E010E019C0C8016F2D51
:10EB60000F947FFEFF2031F489E492EE60E00F9471
:10EB7000C2F10BC0F092C6008091C00086FFFCCFAE
:10EB80008091C00080648093C0000F5F1F4FC80158
:10EB900081519F41A0E0B0E0ABBFFC01F790BAE229
:10EBA000FB1621F0E2E000301E07C1F60F94DCF105
:10EBB0000F94DCF187E592EE60E00F94F5F10F948D
:10EBC000DCF1CC24DD2400E010E01EC0C8010F946D
:10EBD00077FEF82E882331F489E492EE60E00F94FA
:10EBE000C2F10BC08093C6008091C00086FFFCCFAD
:10EBF0008091C00080648093C000FE1419F00894D6
:10EC0000C11CD11C0F5F1F4FC80181519F41A0E063
:10EC1000B0E0ABBFFC01E790FAE2EF1621F022E092
:10EC20000030120799F60F94DCF10F94DCF182E6C4
:10EC300092EE60E00F94C2F1C60161E070E00F94C3
:10EC400034F20F94DCF10F94DCF110920202109276
:10EC50000302109204021092050278CE89E992EE26
:10EC600062E00F94F5F1279A2F9A16C02F9880E052
:10EC700090E0E0EDF7E03197F1F7019684369105E9
:10EC8000C1F72F9A80E090E0E0EDF7E03197F1F7DF
:10EC9000019684369105C1F78091C00087FFE6CFC9
:10ECA0008091C00087FFFCCF64C485EA92EE62E0E9
:10ECB0000F94F5F140910202509103026091040219
:10ECC0007091050281E020E10F9491F2809102029F
:10ECD00090910302A0910402B091050280509F4FD1
:10ECE000AF4FBF4F8093020290930302A0930402A0
:10ECF000B093050280509041A040B04008F426CE69
:10ED0000A4CF83EB92EE62E00F94F5F140910602FE
:10ED100050910702609108027091090280E020E1A1
:10ED20000F9491F28091060290910702A09108023F
:10ED3000B091090280509F4FAF4FBF4F80930602A2
:10ED400090930702A0930802B0930902FFCD80ECD4
:10ED500092EE62E00F94F5F183E792EE60E00F949B
:10ED6000F5F18FE792EE60E00F94F5F18BE892EE0B
:10ED700060E00F94F5F189E992EE60E00F94F5F10F
:10ED800085EA92EE60E00F94F5F183EB92EE60E09D
:10ED90000F94F5F180EC92EE60E00F94F5F187ECC2
:10EDA00092EE60E00F94F5F188ED92EE60E00F9442
:10EDB000F5F18FED92EE60E00F94F5F18AEE92EEB0
:10EDC00060E00F94F5F183E093EEBDCD87EC92EE19
:10EDD00062E00F94F5F181E40F947BF282E40F94EA
:10EDE0007BF283E40F947BF284E40F947BF285E45E
:10EDF0000F947BF286E40F947BF287E40F947BF20E
:10EE000088E40F947BF28AE40F947BF28BE40F94F6
:10EE10007BF28CE40F947BF299CD88ED92EE62E068
:10EE20000F94F5F1772473948824992409C48FED05
:10EE300092EE62E00F94F5F140910A0250910B02BC
:10EE400060910C0270910D0282E020E10F9491F22A
:10EE500080910A0290910B02A0910C02B0910D02D8
:10EE600080509F4FAF4FBF4F80930A0290930B0289
:10EE7000A0930C02B0930D0269CD8AEE92EE62E08F
:10EE80000F94F5F184EE90EE60E00F94F5F18FECC5
:10EE900091EE60E00F94F5F1662477244301CC5D98
:10EEA000DE4F19821882C452D140D401C301B695F5
:10EEB000A79597958795CA5DDE4F88839983AA8326
:10EEC000BB83C652D140CC5DDE4FA881B981C4520C
:10EED000D1401196CC5DDE4FB983A883C452D14096
:10EEE000CD0162E070E00F9434F2B0E2B093C6005E
:10EEF0008091C00086FFFCCF8091C0008064809329
:10EF0000C000EDE2E093C6008091C00086FFFCCF18
:10EF10008091C00080648093C000F0E2F093C6004E
:10EF20008091C00086FFFCCF8091C00080648093F8
:10EF3000C000CA5DDE4FE880F9800A811B81C6529D
:10EF4000D140BB27A12F902F8F2D0F940DF2CA5DBA
:10EF5000DE4F8881C652D1400F940DF2B0E2FB2EF5
:10EF6000F092C6008091C00086FFFCCF8091C00067
:10EF700080648093C0000DE30093C6008091C000C0
:10EF800086FFFCCF8091C00080648093C00010E2B7
:10EF90001093C6008091C00086FFFCCF8091C00016
:10EFA00080648093C0008BBEF3012791C65DDE4F65
:10EFB0002883CA52D140A22EBB24CC24DD2408943D
:10EFC000611C711C811C911C8BBEF3018791282E42
:10EFD0003324442455240894611C711C811C911C09
:10EFE0008BBEF3013791C55DDE4F3883CB52D140E4
:10EFF0000894611C711C811C911C8BBEF30147910C
:10F00000C45DDE4F4883CC52D140ADEFEA2EAFEF66
:10F01000FA2EAFEF0A2FAFEF1A2F6E0C7F1C801E57
:10F02000911E142D032DF22CEE24EA0CFB1C0C1D5A
:10F030001D1D0F940DF220E22093C6008091C000A8
:10F0400086FFFCCF8091C00080648093C000C65DC5
:10F05000DE4F8881CA52D1400F940DF230E23093D6
:10F06000C6008091C00086FFFCCF8091C000806404
:10F070008093C000C45DDE4F8881CC52D1400F9494
:10F080000DF240E24093C6008091C00086FFFCCFA5
:10F090008091C00080648093C000C55DDE4F888190
:10F0A000CB52D1400F940DF250E25093C6008091A4
:10F0B000C00086FFFCCF8091C00080648093C000B8
:10F0C0008FEFE8168FEFF80680E0080780E018075A
:10F0D00031F484E092EE60E00F94C2F1DFC0D80119
:10F0E000C7018070907CA070B0708050904CA040A0
:10F0F000B040D1F52FEF3FE340E050E0E222F322B1
:10F1000004231523CA5DDE4FA880B980CA80DB8046
:10F11000C652D140AE0CBF1CC01ED11EAA0CBB1CD7
:10F12000CC1CDD1C8EE092EE60E00F94C2F1BB2798
:10F13000A12F902F8F2D0F940DF28E2D0F940DF285
:10F1400030E23093C6008091C00086FFFCCF8091F2
:10F15000C00080648093C0004EE34093C60080915D
:10F16000C00086FFFCCF87C08EE09EEFA0E0B0E03D
:10F17000E822F9220A231B239CE0E91694E9F90608
:10F1800090E0090790E0190709F088C0C45DDE4FE0
:10F19000A881CC52D140EA2EFF2400E010E0102FCD
:10F1A0000F2DFE2CEE24C55DDE4FB881CB52D14031
:10F1B000EB0EF11C011D111DD601C501817090706F
:10F1C000A070B070DC0199278827E80EF91E0A1F8D
:10F1D0001B1F20EF30E040E050E0A222B322C42207
:10F1E000D52241E1AA0CBB1CCC1CDD1C4A95D1F7F1
:10F1F000EA0CFB1C0C1D1D1D81E090E0A0E0B0E0BE
:10F20000282239224A225B2235E1220C331C441C7D
:10F21000551C3A95D1F7E20CF31C041D151D57013E
:10F220006801AA0CBB1CCC1CDD1C85E192EE60E0E1
:10F230000F94C2F1C801AA27BB270F940DF2BB2778
:10F24000A12F902F8F2D0F940DF28E2D0F940DF274
:10F2500090E29093C6008091C00086FFFCCF809121
:10F26000C00080648093C000AEE3A093C60080918C
:10F27000C00086FFFCCF8091C00080648093C000F6
:10F28000C601AA27BB270F940DF2BB27AD2D9C2DDD
:10F290008B2D0F940DF28A2D0F940DF20F94DCF14B
:10F2A000CC5DDE4FE881F981C452D140F99709F471
:10F2B0004DCBF4E0EF2EF12C012D112D6E0C7F1CA7
:10F2C000801E911EF2CD83E093EE62E00F94F5F183
:10F2D0008AE192EE60E00F94C2F18091C00087FF56
:10F2E000FCCF1091C6001F751093C6008091C0001E
:10F2F00086FFFCCF8091C00080648093C0000F9493
:10F30000DCF1812F81548A3108F036C1163409F4BA
:10F3100095C0173490F4133409F44EC0143430F40B
:10F320001134F1F0123409F01DC130C0143409F465
:10F3300059C0153409F016C16BC01A3409F4C4C0A1
:10F340001B3438F4173409F48FC0183409F00AC19B
:10F35000A1C01B3409F4D2C01C3409F003C1E8C0B9
:10F360008FEF81B90DC082B1809582B980E090E0C5
:10F37000E0EDF7E03197F1F70196883C9105C1F790
:10F380008091C00087FFEFCF12B8EFC08FEF84B934
:10F390000DC085B1809585B980E090E0E0EDF7E0A3
:10F3A0003197F1F70196883C9105C1F78091C00033
:10F3B00087FFEFCF15B8D9C08FEF87B90DC088B1DF
:10F3C000809588B980E090E0E0EDF7E03197F1F7C3
:10F3D0000196883C9105C1F78091C00087FFEFCF6F
:10F3E00018B8C3C08FEF8AB90DC08BB180958BB9A7
:10F3F00080E090E0E0EDF7E03197F1F70196883C8E
:10F400009105C1F78091C00087FFEFCF1BB8ADC059
:10F410008FEF8DB90DC08EB180958EB980E090E0F0
:10F42000E0EDF7E03197F1F70196883C9105C1F7DF
:10F430008091C00087FFEFCF1EB897C08FEF80BBD1
:10F440000DC081B3809581BB80E090E0E0EDF7E0F6
:10F450003197F1F70196883C9105C1F78091C00082
:10F4600087FFEFCF11BA81C08FEF83BB0DC084B38C
:10F47000809584BB80E090E0E0EDF7E03197F1F714
:10F480000196883C9105C1F78091C00087FFEFCFBE
:10F4900014BA6BC08FEF809301010FC080910201FD
:10F4A00080958093020180E090E0E0EDF7E03197F5
:10F4B000F1F70196883C9105C1F78091C00087FF64
:10F4C000EDCF1092020151C08FEF809304010FC065
:10F4D0008091050180958093050180E090E0E0ED4A
:10F4E000F7E03197F1F70196883C9105C1F78091DB
:10F4F000C00087FFEDCF1092050137C08FEF8093DA
:10F5000007010FC08091080180958093080180E079
:10F5100090E0E0EDF7E03197F1F70196883C910536
:10F52000C1F78091C00087FFEDCF109208011DC088
:10F530008FEF80930A010FC080910B01809580931B
:10F540000B0180E090E0E0EDF7E03197F1F70196F4
:10F55000883C9105C1F78091C00087FFEDCF1092E4
:10F560000B0103C085E292EEEEC98091C00087FFD7
:10F57000FCCF8091C600EAC988E392EEE4C98CE131
:10F5800091EEE1C988249924933011F1943028F444
:10F59000913089F09230B8F408C0953061F195301F
:10F5A000F0F0963009F048C043C02B3109F042C951
:10F5B00091E06BE13FC96227C15DDE4F2883CF52E6
:10F5C000D14092E037C9B22FA0E0622793E032C960
:10F5D000822F90E0A82BB92B622794E02BC92E3004
:10F5E00009F039C3622795E0C05DDE4F19821882A9
:10F5F000C053D1401FC9E1E0F0E0EC0FFD1FC05D3A
:10F60000DE4F08811981C053D140E00FF11F2083E4
:10F610000F5F1F4FC05DDE4F19830883C053D14079
:10F6200062270A171B0709F005C9D80196E002C92D
:10F63000261709F010C303C0973009F0FBC87724E0
:10F640009981933109F412C19431C8F4963009F4C8
:10F65000D8C0973050F4923009F406C1933009F4C1
:10F660006DC0913009F059C253C0913109F477C08F
:10F67000923108F0BBC0903109F04FC2F5C098310B
:10F6800009F487C0993150F4953109F4EFC09531F0
:10F6900008F4C6C1963109F040C2C2C19A3109F4DA
:10F6A0006CC09A3108F491C09B3109F45BC09D3164
:10F6B00009F033C29D81903359F48F81882311F46E
:10F6C0009EE11CC0813011F091E018C098E916C08D
:10F6D000892F807591F0903539F4E0E0F0E089E011
:10F6E0008093570094910AC0983539F4E3E0F0E034
:10F6F00089E080935700949101C090E01A821B82A8
:10F700008D818C831D829E831F8227E030E009C299
:10F710001A8288E08B8381E48C8386E58D8382E581
:10F720008E8389E48F8383E5888780E589878FE5E9
:10F730008A8782E38B872BE030E0F3C18A818139AD
:10F7400041F0823941F0803911F48FE005C080E04A
:10F7500003C082E001C08AE01A828B8344C0772410
:10F76000739482C08D81882311F48EE12CC0813086
:10F7700011F081E028C088E926C01A82E1E0F0E0BB
:10F7800089E08093570084918B831C8224E030E0D1
:10F79000C8C18B81803589F48C81883039F4E2E0EE
:10F7A000F0E089E08093570084910DC0E0E0F0E044
:10F7B00089E080935700849106C0E3E0F0E089E09F
:10F7C0008093570084911A82DFCF8D81836C99E0FA
:10F7D000E1E0F0E0082E90935700E89507B600FCB2
:10F7E000FDCF1A821B8223E030E09BC180EC8A832C
:10F7F000CE5CDE4F188219821A821B82C253D1401E
:10F800008EC18A8190E0A0E0B0E0582F44273327D2
:10F8100022278B8190E0A0E0B0E0DC0199278827C7
:10F82000282B392B4A2B5B2B8D8190E0A0E0B0E098
:10F83000282B392B4A2B5B2B8C8190E0A0E0B0E089
:10F84000BA2FA92F982F8827282B392B4A2B5B2BCF
:10F85000220F331F441F551FC05EDE4F288339839C
:10F860004A835B83C052D1401A8259C13A81C95C34
:10F87000DE4F3883C753D140CA5CDE4F1882C6536F
:10F88000D1408B81C82EDD24CA5CDE4F488159816E
:10F89000C653D140C42AD52A933109F082C0CE5C28
:10F8A000DE4F88819981AA81BB81C253D1408050AB
:10F8B000904CA340B04030F583E0CE5CDE4FE88052
:10F8C000F9800A811B81C253D140F70100935B008C
:10F8D00080935700E89507B600FCFDCFCE5CDE4F65
:10F8E000088119812A813B81C253D14000501F4FAA
:10F8F0002F4F3F4FCE5CDE4F088319832A833B8313
:10F90000C253D140C05EDE4F488159816A817B81FC
:10F91000C052D140DE011B9631E08C9111962C91A2
:10F9200011971296C75CDE4F2883C953D140C85C3B
:10F93000DE4F1882C853D14090E0C85CDE4FE881AA
:10F94000F981C853D1408E2B9F2B0C01FA01609393
:10F950005B0030935700E89511244E5F5F4F6F4F67
:10F960007F4F0EEFE02E0FEFF02ECE0CDF1CC114F8
:10F97000D10499F685E0C05EDE4F088119812A81A5
:10F980003B81C052D140F80120935B008093570027
:10F99000E89507B600FCFDCF81E180935700E8951C
:10F9A00035C0C05EDE4F88819981AA81BB81C0527B
:10F9B000D140B695A795979587957C018601ABE0D8
:10F9C000AA2EB12CAC0EBD1E0BC0D5016D915D01F0
:10F9D000C7010F947FFE0894E11CF11C01501040F8
:10F9E0000115110591F7A60160E070E0440F551F65
:10F9F000661F771FC05EDE4FE880F9800A811B8199
:10FA0000C052D1404E0D5F1D601F711F1A82C05E33
:10FA1000DE4F488359836A837B83C052D1407FC0C5
:10FA2000FA80C55CDE4FF882CB53D140C65CDE4F16
:10FA30001882CA53D1408B81C82EDD24C65CDE4FAC
:10FA400008811981CA53D140C02AD12A1A828981DA
:10FA5000BE016D5F7F4F843121F59601C05EDE4FA0
:10FA6000E880F9800A811B81C052D1400BBFF701A9
:10FA700087919691DB018C9311969C936E5F7F4FDB
:10FA8000D801C7010296A11DB11DC05EDE4F88835B
:10FA90009983AA83BB83C052D14022503040F1F6F3
:10FAA00036C0C05EDE4F288139814A815B81C052F9
:10FAB000D1400894C108D108760100E010E0089414
:10FAC000C11CD11C0894E11CF11C011D111DE20E8A
:10FAD000F31E041F151F21BDBB27A52F942F832FB5
:10FAE00082BD2F5F3F4F4F4F5F4FF89A80B5DB01CC
:10FAF0008D93BD012E153F054007510761F7C05E8C
:10FB0000DE4F288339834A835B83C052D1409601FC
:10FB10002D5F3F4FFB01108204C080EC8A8322E0FE
:10FB200030E08BE18093C6008091C00086FFFCCF5F
:10FB30008091C00080648093C000C15DDE4FF88179
:10FB4000CF52D140F093C6008091C00086FFFCCF19
:10FB50008091C00080648093C000432F3093C60022
:10FB60008091C00086FFFCCF8091C00080648093AC
:10FB7000C000922F2093C6008091C00086FFFCCF6A
:10FB80008091C00080648093C0008EE08093C600A6
:10FB90008091C00086FFFCCF8091C000806480937C
:10FBA000C00065E1C15DDE4FE880CF52D1406E25D7
:10FBB00069276427FE01319610C090819093C6009A
:10FBC0008091C00086FFFCCF31968091C000806498
:10FBD0008093C0006927215030402115310569F715
:10FBE0006093C6008091C00086FFFCCF8091C0006A
:10FBF00080648093C00085B1805885B9772081F4F6
:10FC0000C15DDE4F0881CF52D1400F5FC15DDE4F35
:10FC10000883CF52D14090E0A0E0B0E00D941AF4F8
:10FC200027982F9880E090E020ED37E0F901319798
:10FC3000F1F7019684369105C9F700008091C00064
:10FC40008D7F8093C00081E180935700E895EE2777
:10FC5000FF270994FFCF90E00D941AF497FB092E2B
:10FC600007260AD077FD04D02ED006D000201AF443
:10FC7000709561957F4F0895F6F7909581959F4F08
:10FC80000895A1E21A2EAA1BBB1BFD010DC0AA1FDD
:10FC9000BB1FEE1FFF1FA217B307E407F50720F0F5
:10FCA000A21BB30BE40BF50B661F771F881F991F70
:10FCB0001A9469F760957095809590959B01AC01B9
:10FCC000BD01CF010895AA1BBB1B51E107C0AA1FAC
:10FCD000BB1FA617B70710F0A61BB70B881F991FED
:10FCE0005A95A9F780959095BC01CD010895F99991
:10FCF000FECF92BD81BDF89A992780B50895262F31
:10FD0000F999FECF1FBA92BD81BD20BD0FB6F89400
:0EFD1000FA9AF99A0FBE01960895F894FFCF63
:040000033000E000E9
:00000001FF