:1000000017C1000045C1000043C1000041C100000C
:100010003FC100003DC100003BC1000039C10000EC
:1000200037C1000035C1000033C1000031C10000FC
:100030002FC100002DC100002BC1000029C100000C
:1000400027C1000025C1000023C1000021C100001C
:100050001FC100001DC100001BC10000FAC6000046
:1000600017C1000015C1000013C1000011C100003C
:100070000FC100000DC100000BC1000009C100004C
:1000800007C1000005C1000003C1000001C100005C
:10009000FFC00000FDC00000FBC00000F9C0000070
:1000A000F7C00000F5C00000F3C00000F1C0000080
:1000B000EFC00000EDC00000EBC00000E9C0000090
:1000C000E7C00000E5C00000E3C00000E1C00000A0
:1000D000DFC00000DDC00000DBC00000D9C00000B0
:1000E000D7C0000097019A0189018D019101D101CA
:1000F0009E01A201A801AC01B001B601BA01BE0186
:10010000D101C401C801CC014102450249024D029E
:10011000510255025902C403CB03D203D903E003B1
:10012000F803E703F803EE0300000A0B02090C0DC5
:100130000E0807030401000000000000000000009A
:1001400000000000000000000000000000000000AF
:10015000000000001211100000000000000000006C
:10016000000000000000000000000000000000008F
:100170002200250028002B002E003100340002014F
:100180000000050108010B010000210024002700E8
:100190002A002D0030003300010100000401070196
:1001A0000A010505050507050808080802020202FC
:1001B0000A0A080804040404010101010101010103
:1001C0000303030303030303040707070C0C0C0CCE
:1001D0000C0C0C0C020202020606060606060606B7
:1001E0000B0B0B0B0B0B0B0B010210202008081044
:1001F0002040102040800201020108040201010297
:10020000040810204080804020100804020180046F
:1002100002018040201008040201080402010102CA
:100220000408102040800102040810204080940837
:1002300011241FBECFEFD1E2DEBFCDBF00E00CBF67
:1002400012E0A0E0B2E0ECEFF6E100E00BBF02C08C
:1002500007900D92AA31B107D9F723E0AAE1B2E0E5
:1002600001C01D92AB3BB207E1F711E0C8E1D1E05C
:1002700000E006C021970109802FFE010E94740B47
:10028000C731D10780E00807A9F72DD60C947C0B65
:10029000B7CE90E0FC01E851FE4F2491FC01EE55F1
:1002A000FE4F8491882399F090E0880F991FFC01FC
:1002B000E857FE4FA591B491FC01E259FE4F85919C
:1002C00094918FB7F894EC91E22BEC938FBF089543
:1002D000362F90E0FC01E85DFE4F4491FC01E851AF
:1002E000FE4F2491FC01EE55FE4F9491992309F4A1
:1002F0006BC0442309F455C050E0FA013197E23154
:10030000F10508F04EC08827EE58FF4F8F4F0C9430
:10031000740B809180008F7707C0809180008F7D63
:1003200003C080918000877F809380003AC084B5AD
:100330008F7702C084B58F7D84BD33C08091B000BB
:100340008F7703C08091B0008F7D8093B00029C06B
:10035000809190008F7707C0809190008F7D03C0BF
:1003600080919000877F809390001BC08091A000B7
:100370008F7707C08091A0008F7D03C08091A0007F
:10038000877F8093A0000DC0809120018F7707C0E8
:10039000809120018F7D03C080912001877F809311
:1003A0002001E92FF0E0EE0FFF1FE259FE4FA5916B
:1003B000B4918FB7F894EC91311103C020952E239E
:1003C00001C02E2B2C938FBF0895CF93DF93FC0198
:1003D00023812223F9F0EC0184815BDF8D8159DFD9
:1003E0008B81843011F0883021F48E8152DF8F812F
:1003F00005C0833011F0863011F48E814ADF8FA55D
:100400008F3F41F046DF6EA581E068278FA5DF9121
:10041000CF915ECFDF91CF910895CF93DF93FC0111
:100420002381222391F0EC010190F081E02D0480E2
:10043000F581E02D60E019958FA58F3F31F029DF20
:100440006EA58FA5DF91CF9143CFDF91CF91089516
:10045000CF93DF93DC014770552766277727FA0192
:100460003197CD91DC911197E730F10530F4882771
:10047000EC57FF4F8F4F0C94740BEC81FD8161E0C2
:100480001BC0EC81FD8165E017C0EC81FD8164E05B
:1004900013C0EC81FD8166E00FC0EC81FD8162E05C
:1004A0000BC0EC81FD816AE007C0EC81FD8168E052
:1004B00003C0EC81FD8169E0CD01DF91CF911994FA
:1004C000CF93DF93EC01CB01BA0126E030E040E0AE
:1004D00050E00E94580B623071058105910559F179
:1004E0008CF46115710581059105F1F0613071059C
:1004F00081059105C1F5E881F9810480F581E02D40
:1005000065E02DC0643071058105910511F1D4F0CD
:10051000653071058105910531F5E881F981048027
:10052000F581E02D66E01BC0E881F9810480F5814A
:10053000E02D64E014C0E881F9810480F581E02DAC
:1005400061E00DC0E881F9810480F581E02D63E070
:1005500006C0E881F9810480F581E02D62E0CE01DA
:10056000DF91CF911994DF91CF9108954370552772
:1005700066277727DC01ED91FC910480F581E02D61
:10058000423051056105710571F043305105610537
:10059000710559F0413051056105710511F065E0B3
:1005A00005C066E003C06AE001C069E01994CF931A
:1005B000DF93EC01CB01BA0123E030E040E050E0F2
:1005C0000E94580B613071058105910581F0623000
:1005D00071058105910591F0672B682B692BC1F49A
:1005E000E881F9810480F581E02D64E00DC0E881A7
:1005F000F9810480F581E02D61E006C0E881F98190
:100600000480F581E02D62E0CE01DF91CF91199455
:10061000DF91CF9108954370552766277727DC0136
:10062000ED91FC910480F581E02D4230510561058A
:10063000710571F0433051056105710559F0413084
:1006400051056105710511F062E005C063E003C06A
:1006500061E001C060E01994CF93DF93EC01E88181
:10066000F9810480F581E02D8A81811102C060E06A
:1006700001C062E0CE011995E881F9810480F5811D
:10068000E02D8A81811102C061E001C063E0CE01EA
:1006900019958CA59DA58230910538F0880F991F7A
:1006A000880F991F05970197F1F7E881F981048078
:1006B000F581E02D8A81811102C060E001C062E015
:1006C000CE01DF91CF911994CF93DF93EC0120E01D
:1006D00030E0A9016C897D898E899F8909D7181618
:1006E0001CF4E8A9F9A902C0EAA9FBA9DF91CF91FE
:1006F0001994CF92DF92EF92FF920F931F93CF93B3
:10070000DF93FC012381243041F0283031F0233085
:1007100031F0263021F012E003C014E001C013E0F4
:10072000EC012896E12CF12CC62ED12C01E0C6015B
:100730000E2C02C0959587950A94E2F7688180FD9A
:100740006027FE0134978081C3DDFFEFEF1AFF0AB7
:100750002196E11660F3DF91CF911F910F91FF90E9
:10076000EF90DF90CF9008950F931F93DC011396C5
:100770000C91139710E009301105D0F5F801882786
:10078000E557FF4F8F4FB0C7ED91FC911197008453
:10079000F185E02D29C0ED91FC9111970284F3853C
:1007A000E02D22C0ED91FC9111970484F585E02D98
:1007B0001BC0ED91FC9111970684F785E02D14C0C4
:1007C000ED91FC9111970088F189E02D0DC0ED911C
:1007D000FC9111970288F389E02D06C0ED91FC9100
:1007E00011970488F589E02DCD011F910F9119947F
:1007F0001F910F9108952F923F924F925F926F92A7
:100800007F928F929F92AF92BF92CF92DF92EF92A0
:10081000FF920F931F93CF93DF9300D01F92CDB71A
:10082000DEB71C01FC01C088D188E288F38884858A
:100830009585A685B785C81AD90AEA0AFB0A64898C
:100840007589868997899B01AC0156D64B015C015D
:10085000F101648D758D868D978D9B01AC0195D4CA
:100860009B01AC01C501B401F8D45FD5C114D1041A
:10087000E104F104A1F462307105810591050CF0E9
:100880007CC0F10114A215A216A217A2148A158A1F
:10089000168A178A14AA15AA16AA17AAF6C0F10171
:1008A00004A915A926A937A91C141D041E041F0498
:1008B00004F510161106120613064CF46C157D058E
:1008C0008E059F055CF52281211157C027C00115B7
:1008D00011052105310509F450C06C157D058E0503
:1008E0009F050CF04AC0F1018281882309F445C0BC
:1008F00039C01016110612061306FCF40027112742
:1009000098010C191D092E093F096017710782070C
:10091000930724F4F1012281222379F19B01AC0198
:1009200088279927DC01821B930BA40BB50BF101DF
:1009300084AB95ABA6ABB7AB20C001151105210563
:100940003105D9F08824992454018C189D08AE08EB
:10095000BF08681579058A059B057CF4F101828141
:1009600081110BC030952095109501951F4F2F4F89
:100970003F4F04AB15AB26AB37ABF10184A895A86C
:10098000A6A8B7A881149104A104B10491F480AD84
:1009900091ADA2ADB3AD84AF95AFA6AFB7AF81E0D7
:1009A0001C141D041E041F040CF080E0F10182835E
:1009B0003AC0F101C4ACD5ACE6ACF7ACA7019601E6
:1009C000C701B601E2D32B013C01C501B401E0D45B
:1009D00020E030E040E850E48FD520E030E040E80F
:1009E0005FE3D3D39B01AC01C301B20136D49B01B9
:1009F000AC01C701B601C8D37B018C01F101E05CF9
:100A0000FF4F60807180C280D3809301A60170D5B2
:100A1000181614F073018601A701B801F10144AF63
:100A200055AF66AF77AFFFEF8F1A9F0AAF0ABF0AC5
:100A3000F10184AA95AAA6AAB7AA24AD35AD46AD00
:100A400057ADCA01B90129833A834B835C8372D4C1
:100A5000F10164A375A386A397A329813A814B81F1
:100A60005C8160E074E284E799E4F7D3F101648B80
:100A7000758B868B978B2281211107C0DC01CB01FE
:100A8000B058848B958BA68BB78B0F900F900F90DF
:100A90000F90DF91CF911F910F91FF90EF90DF901A
:100AA000CF90BF90AF909F908F907F906F905F900E
:100AB0004F903F902F900895CF92DF92EF92FF9248
:100AC0000F931F93CF93DF93EC016A017B0120E02A
:100AD00030E0A901C701B601BCD387FF04C0F7FA13
:100AE000F094F7F8F094A7019601688D798D8A8DBE
:100AF0009B8DAFD3882309F440C0C88ED98EEA8E6F
:100B0000FB8E8E01005C1F4FA701960160E074E22E
:100B100084E799E4A2D3F80160837183828393838D
:100B20008CA99DA9AEA9BFA9181619061A061B06FD
:100B300024F56C897D898E899F899B01AC01DCD469
:100B40006B017C016C8D7D8D8E8D9F8D9B01AC0129
:100B50001CD39B01AC01C701B6017FD3E6D36CABBC
:100B60007DAB8EAB9FABCE01DF91CF911F910F91EB
:100B7000FF90EF90DF90CF903ECEDF91CF911F910D
:100B80000F91FF90EF90DF90CF900895CF92DF927A
:100B9000EF92FF92CF93DF93EC018CA19DA1AEA1C8
:100BA000BFA1892B8A2B8B2B09F458C03FB7F8942F
:100BB00080911A0290911B02A0911C02B0911D021B
:100BC00026B5A89B05C02F3F19F00196A11DB11DA8
:100BD0003FBFCC24D82EE92EFA2EC20ED11CE11C28
:100BE000F11C42E0CC0CDD1CEE1CFF1C4A95D1F739
:100BF00088A599A5AAA5BBA5B701A601481B590BB5
:100C00006A0B7B0B8CA19DA1AEA1BFA14817590710
:100C10006A077B0718F12A818C859D85AE85BF8583
:100C2000222321F00196A11DB11D03C00197A10946
:100C3000B1098C879D87AE87BF87E881F9814C8594
:100C40005D856E857F850680F781E02DCE01199543
:100C5000C8A6D9A6EAA6FBA6CE01CDDD20E030E0ED
:100C6000A9016C897D898E899F89F3D2811110C079
:100C700081E0C888D988EA88FB884C855D856E85C7
:100C80007F85C416D506E606F70619F480E001C094
:100C900081E0DF91CF91FF90EF90DF90CF900895AA
:100CA0004F925F926F927F928F929F92AF92BF927C
:100CB000CF92DF92EF92FF92CF93DF93EC016A0124
:100CC0007B0120E030E0A901C701B601C2D287FF55
:100CD00004C0F7FAF094F7F8F0948C8C9D8CAE8CED
:100CE000BF8CA7019601C501B401B3D2882309F4D2
:100CF00040C06CA97DA98EA99FA94AD32B013C01B4
:100D0000A7019601C501B401A8D29B01AC01C301A2
:100D1000B201F2D30AD36CAB7DAB8EAB9FABA70114
:100D2000960160E070E080E090E497D24CD426E534
:100D30003EE04DE25FE3E0D320E034E244E759E4F3
:100D4000DBD368AF79AF8AAF9BAFCC8EDD8EEE8EF2
:100D5000FF8ECE01DF91CF91FF90EF90DF90CF908B
:100D6000BF90AF909F908F907F906F905F904F90CB
:100D700042CDDF91CF91FF90EF90DF90CF90BF9069
:100D8000AF909F908F907F906F905F904F9008955D
:100D9000CF92EF920F93CF93DF93EC0184E092E038
:100DA000998388836B831C861D861E861F86188AFE
:100DB000198A1A8A1B8A1C8A1D8A1E8A1F8A80E049
:100DC00090E0A0E8BFE3888F998FAA8FBB8F1C8E1D
:100DD0001D8E1E8E1F8E88A399A3AAA3BBA31CA23F
:100DE0001DA21EA21FA261E070E07DA76CA73FEFCD
:100DF0003FA718A619A61AA61BA64C832D830E83FF
:100E0000EF821EA61CAA1DAA1EAA1FAA18AE19AE02
:100E10001AAE1BAE1CAE1DAE1EAE1FAEFE01E05CD8
:100E2000FF4F80839183A283B3831A821886198629
:100E30001A861B86CC2011F0CE01C7DA40E050E0C4
:100E400060E87FE3CE01DF91CF910F91EF90CF90DB
:100E500027CF1F920F920FB60F9211242F933F931B
:100E60008F939F93AF93BF9380911F029091200225
:100E7000A0912102B091220230911E0223E0230FA3
:100E80002D3720F40196A11DB11D05C026E8230FC2
:100E90000296A11DB11D20931E0280931F02909304
:100EA0002002A0932102B093220280911A02909115
:100EB0001B02A0911C02B0911D020196A11DB11D43
:100EC00080931A0290931B02A0931C02B0931D0200
:100ED000BF91AF919F918F913F912F910F900FBE36
:100EE0000F901F901895789484B5826084BD84B566
:100EF000816084BD85B5826085BD85B5816085BD15
:100F000080916E00816080936E00109281008091CC
:100F10008100826080938100809181008160809354
:100F20008100809180008160809380008091B10079
:100F300084608093B1008091B00081608093B000A4
:100F400080919100826080939100809191008160F6
:100F500080939100809190008160809390008091B7
:100F6000A10082608093A1008091A10081608093A4
:100F7000A1008091A00081608093A0008091210158
:100F80008260809321018091210181608093210101
:100F90008091200181608093200180917A0084609B
:100FA00080937A0080917A00826080937A008091A9
:100FB0007A00816080937A0080917A0080688093C3
:100FC0007A001092C1008DE064D986E362D987E38C
:100FD00060D986E25ED98CE35CD98DE35AD988E387
:100FE00058D98EE256D980E354D98EE352D98AE19A
:100FF00050D98CE14ED98AE04CD984E24AD982E2B8
:1010000048D983E246D960E086E262D960E088E3AD
:101010005FD960E08EE35CD960E08AE059D960E096
:1010200083E256D940E054E264E779E48BEA92E047
:1010300043DD40E054E264EF79E48BEA92E030DE95
:1010400040E050E46CE176E487E692E035DD40E094
:1010500050E46CE176E487E692E022DE40E050E482
:101060006CE176E483E292E027DD40E050E46CE15D
:1010700076E483E292E014DE88EEC82E83E0D82E78
:10108000E12CF12CC0E0D0E090E8892E9CE0992E74
:10109000A12CB12C2FB7F89460911F0270912002FF
:1010A00080912102909122022FBFA7019601DED2EA
:1010B000643F71408105910510F461E001C060E07A
:1010C0008DE006D987E793E061DD83E393E05EDDA1
:1010D0008FEE92E05BDD8BEA92E058DD87E692E0EE
:1010E00055DD8091330290913402A0913502B09188
:1010F000360280389C40A105B10559F08092330238
:1011000090923402A0923502B092360283E292E0CD
:1011100072DB83E292E03ADD8111FBCF209709F484
:10112000B9CF0E940000B6CFCF92EF920F93CC249C
:10113000C39485E0E82E04E027E346E361E087E717
:1011400093E026DE2DE34CE361E083E393E020DED1
:1011500020E34EE261E08FEE92E01ADE2CE14AE1FC
:1011600061E08BEA92E014DE22E244E261E087E68D
:1011700092E00EDE20E24FE261E083E292E008DEE0
:101180000F91EF90CF9008955058BB27AA270ED00B
:1011900075C166D130F06BD120F031F49F3F11F46E
:1011A0001EF45BC10EF4E095E7FB51C1E92F77D146
:1011B00080F3BA17620773078407950718F071F474
:1011C0009EF58FC10EF4E0950B2EBA2FA02D0B01CA
:1011D000B90190010C01CA01A0011124FF27591B7C
:1011E00099F0593F50F4503E68F11A16F040A22F82
:1011F000232F342F4427585FF3CF469537952795F3
:10120000A795F0405395C9F77EF41F16BA0B620BF1
:10121000730B840BBAF09150A1F0FF0FBB1F661F38
:10122000771F881FC2F70EC0BA0F621F731F841F7B
:1012300048F4879577956795B795F7959E3F08F0A1
:10124000B3CF9395880F08F09927EE0F9795879560
:101250000895D9D008F481E008950CD00FC107D1CA
:1012600040F0FED030F021F45F3F19F0F0C0511192
:1012700039C1F3C014D198F39923C9F35523B1F3BD
:10128000951B550BBB27AA2762177307840738F0F5
:101290009F5F5F4F220F331F441FAA1FA9F333D054
:1012A0000E2E3AF0E0E830D091505040E695001C08
:1012B000CAF729D0FE2F27D0660F771F881FBB1FC4
:1012C000261737074807AB07B0E809F0BB0B802D9E
:1012D000BF01FF2793585F4F2AF09E3F510568F0EA
:1012E000B6C000C15F3FECF3983EDCF3869577957E
:1012F0006795B795F7959F5FC9F7880F911D9695EC
:10130000879597F90895E1E0660F771F881FBB1F47
:10131000621773078407BA0720F0621B730B840BF4
:10132000BA0BEE1F88F7E095089504D06894B111C8
:10133000D9C00895BCD088F09F5790F0B92F992755
:10134000B751A0F0D1F0660F771F881F991F1AF0D0
:10135000BA95C9F712C0B13081F0C3D0B1E0089599
:10136000C0C0672F782F8827B85F39F0B93FCCF31A
:10137000869577956795B395D9F73EF490958095C6
:10138000709561957F4F8F4F9F4F0895E89409C0E6
:1013900097FB3EF490958095709561957F4F8F4FA8
:1013A0009F4F9923A9F0F92F96E9BB279395F695BE
:1013B000879577956795B795F111F8CFFAF4BB0F3C
:1013C00011F460FF1BC06F5F7F4F8F4F9F4F16C0A0
:1013D000882311F096E911C0772321F09EE8872F2A
:1013E000762F05C0662371F096E8862F70E060E0E6
:1013F0002AF09A95660F771F881FDAF7880F96955F
:10140000879597F90895990F0008550FAA0BE0E802
:10141000FEEF16161706E807F907C0F012161306B6
:10142000E407F50798F0621B730B840B950B39F4F6
:101430000A2661F0232B242B252B21F408950A265C
:1014400009F4A140A6958FEF811D811D089597F99C
:101450009F6780E870E060E008959FEF80EC08955A
:1014600000240A9416161706180609060895002483
:101470000A9412161306140605060895092E0394FD
:10148000000C11F4882352F0BB0F40F4BF2B11F471
:1014900060FF04C06F5F7F4F8F4F9F4F089557FDD0
:1014A0009058440F551F59F05F3F71F04795880FD2
:1014B00097FB991F61F09F3F79F087950895121669
:1014C00013061406551FF2CF4695F1DF08C0161615
:1014D00017061806991FF1CF8695710561050894C6
:1014E0000895E894BB2766277727CB0197F90895DD
:1014F0008ADF08F48FEF08950BD0C0CFB1DF28F05A
:10150000B6DF18F0952309F0A2CFA7CF1124EACFB8
:10151000C6DFA0F3959FD1F3950F50E0551F629F52
:10152000F001729FBB27F00DB11D639FAA27F00D3C
:10153000B11DAA1F649F6627B00DA11D661F829F63
:101540002227B00DA11D621F739FB00DA11D621F48
:10155000839FA00D611D221F749F3327A00D611D65
:10156000231F849F600D211D822F762F6A2F112447
:101570009F5750408AF0E1F088234AF0EE0FFF1F9A
:10158000BB1F661F771F881F91505040A9F79E3FD1
:10159000510570F05CCFA6CF5F3FECF3983EDCF3D3
:1015A000869577956795B795F795E7959F5FC1F70E
:1015B000FE2B880F911D9695879597F9089511F444
:1015C0000EF44BCF3EC073DFD0F39923D9F3CEF3A3
:1015D0009F57550B87FF43D00024A0E640EA9001B7
:1015E00080585695979528F4805C660F771F881F62
:1015F00020F026173707480730F4621B730B840B63
:10160000202931294A2BA6951794079420253125A6
:101610004A2758F7660F771F881F20F026173707CD
:10162000480730F4620B730B840B200D311D411DF4
:10163000A09581F7B901842F9158880F96958795C9
:1016400008959F3F31F0915020F4879577956795E5
:10165000B795880F911D9695879597F908959150A4
:101660005040660F771F881FD2F70895A1E21A2E07
:10167000AA1BBB1BFD010DC0AA1FBB1FEE1FFF1F36
:10168000A217B307E407F50720F0A21BB30BE40B86
:10169000F50B661F771F881F991F1A9469F76095CD
:1016A0007095809590959B01AC01BD01CF01089587
:1016B000052E97FB16F400940FD057FD05D0D6DF0A
:1016C00007FC02D046F408C050954095309521950E
:1016D0003F4F4F4F5F4F089590958095709561955E
:1016E0007F4F8F4F9F4F0895EE0FFF1F881F8BBFB7
:0C16F0000790F691E02D1994F894FFCFBC
:1016FC00000000000D02E5017903B40364032C0320
:0A170C000B03D702B60260022802A8
:00000001FF
