:020000040800F2
:1000000078F40020A91E0008B1040008B304000819
:10001000B7040008BB040008BF040008000000008B
:10002000000000000000000000000000C304000801
:10003000C504000800000000C7040008C904000847
:10004000C31E0008C31E0008C31E0008C31E00080C
:10005000C31E0008C31E0008C31E0008C31E0008FC
:10006000C31E0008C31E0008C31E0008C31E0008EC
:10007000C31E0008C31E0008C31E0008C31E0008DC
:10008000C31E0008C31E0008C31E0008C31E0008CC
:10009000C31E0008C31E0008C31E0008C31E0008BC
:1000A000C31E0008C31E0008C31E0008C31E0008AC
:1000B000C31E0008C31E0008C31E0008C31E00089C
:1000C000C31E0008C31E0008C31E0008C31E00088C
:1000D000C31E00081F1E0008C31E0008C31E000820
:1000E000C31E0008C31E0008C31E0008C31E00086C
:1000F000C31E0008C31E0008C31E0008C31E00085C
:10010000C31E0008C31E0008C31E0008C31E00084B
:10011000C31E0008C31E0008C31E0008C31E00083B
:10012000C31E0008C31E0008C31E0008C31E00082B
:1001300000F002F800F03AF80AA090E8000C8244BF
:100140008344AAF10107DA4501D100F02FF8AFF29C
:10015000090EBAE80F0013F0010F18BFFB1A43F0A5
:10016000010318473852000058520000103A24BFCB
:1001700078C878C1FAD8520724BF30C830C144BF0C
:1001800004680C607047000000230024002500264E
:10019000103A28BF78C1FBD8520728BF30C148BFEA
:1001A0000B6070471FB51FBD10B510BD02F0B8FF42
:1001B0001146FFF7F7FF00F017F902F0D6FF03B47E
:1001C000FFF7F2FF03BC01F0CFFD00002DE9F84F6F
:1001D00006460F4614461D46DDF82880294640464F
:1001E00003F046FF39460090204603F041FF834666
:1001F0005946304603F0D6FC8246009903F030FEA3
:100200008146294603F060FCBDE8F88F2DE9FF4FD9
:100210008BB00E4617469846DDF860A000200346D6
:100220003A46314600900B9800F0C4FE0A90002038
:1002300003463A46314600900B9800F0BBFE099009
:10024000B14606EBD970401040B20397009007EB1F
:10025000D770401043B23A4631460B9800F0AAFEE0
:1002600008907E48008807907C48008806907B486C
:1002700000880590584603F093FD039078480023CA
:10028000784A794900900398FFF7A0FF814603F070
:1002900067FDC0B2049000256BE0002466E068B200
:1002A00063B23A46314600900B9800F083FE8146D7
:1002B0006E49484603F0A0FD02D24FF01F0B23E029
:1002C0006B49484603F098FD02D24FF4FC6B1BE0EB
:1002D0006449484603F090FD02D24FF6E07B13E0FC
:1002E000484603F0C5FB0022624BCDE9020103F052
:1002F0009BF902D24FF4784B06E05F49484603F081
:100300007BFD01D24FF6074B1FFA8BF00AFB05FC71
:100310000CF10A0C1FFA8CF308FB04FC0CF10A0C1C
:100320001FFA8CF20AFB05FC1FFA8CF108FB04FC97
:1003300000901FFA8CF000F0F1FC48460A9903F097
:100340005BFE06D8CDF828904449049831F8100097
:1003500007904846099903F04FFD06D8CDF8249040
:100360003E49049831F810000690641CBC4296DBAC
:100370006D1CB54291DB0120202140A24FF478434F
:10038000CDE9002102901A464FF4B471462001F0E5
:10039000A4FB0A9803F0E4FC8146102004234A469B
:1003A0004FF4B4710090C82001F0B4F9012020216D
:1003B00037A24FF47843CDE90021029000224FF498
:1003C000C871462001F089FB099803F0C9FC8146F9
:1003D000102004234A464FF4C8710090C82001F051
:1003E00099F90FB0BDE8F08FADF5825D01F026FC04
:1003F0004FF4A06001F078FD4FF4E13001F0C3FC50
:1004000000F054F900F08BFB00F0A0F925E040214A
:10041000244800F00EFA2020009010AB082211466C
:100420000190204800F0EAFE00200A210B4620221D
:10043000CDE90010114610A8FFF7E8FE00201A4988
:1004400008604FF4FA7001F061FC01201749C1F80F
:1004500094014FF4FA7001F059FCD8E75A410008B2
:1004600000007F430000F041000060410000E041D7
:100470000000E8410040404000000C424D4158203F
:1004800054656D70657261747572653A00000000A4
:100490004D494E2054656D70657261747572653A90
:1004A000000000003C000020940123420000234291
:1004B000704700BFFEE700BFFEE700BFFEE700BFDA
:1004C000FEE7704770477047704700000CB500208A
:1004D000019000906C48006840F480306A490860E0
:1004E00000BF6948006800F4003000900198401C8B
:1004F0000190009818B90198B0F5A06FF1D1624849
:10050000006800F4003010B10120009001E00020EC
:1005100000900098012843D15C48006840F010002A
:100520005A4908600846006820F003000860084641
:10053000006840F002000860534840685249486033
:100540000846406848600846406840F4806048605B
:100550000846406820F47C1048600846406840F433
:10056000E81048600846006840F08070086000BFEE
:100570004548006800F000700028F9D04248406803
:1005800020F00300404948600846406840F00200FF
:10059000486000BF3C48406800F00C000828F9D1D2
:1005A0000CBD10B5FFF792FF10BD10B536480068BE
:1005B00040F001003449086008464068344908406A
:1005C0003149486008460068324908402E490860B1
:1005D0000846006820F4802008600846406820F43F
:1005E000FE0048604FF41F008860FFF7DAFF4FF00D
:1005F00000602949086010BD10B5002100200022CC
:10060000214B5B6803F00C0121B1042906D00829B5
:1006100028D107E0214B224C236027E01F4B204CC0
:10062000236023E0184B5B6803F47010164B5B6883
:1006300003F48032022303EB904022B9194B434369
:10064000174C23600DE0104B5B6803F4003323B1BB
:10065000144B4343124C236003E0104B4343104CB4
:10066000236003E00D4B0E4C236000BF00BF064B20
:100670005B68C3F303130C4CE15C094B1B68CB4074
:10068000074C236010BD0000001002400020024013
:100690000000FFF8FFFFF6FE08ED00E000127A0010
:1006A0000000002000093D000400002008B50121E1
:1006B000482002F0A9FA2020ADF8000010208DF8A3
:1006C000030003208DF8020069460D4801F0E0FFA9
:1006D00020210B4802F089F86220ADF8000069463D
:1006E000084801F0D5FF0221064802F07EF82021DB
:1006F000044802F07AF84021024802F076F808BD7A
:10070000000C01400018014070B505460C4600F091
:1007100065FBD22000F095FB00F0F1FB18B100F072
:100720007CFB012070BD284600F08BFB00F0E7FB4E
:10073000204600F086FB00F0E2FB18B100F06DFBF4
:100740000120EFE700F069FB0020EBE710B500F0B7
:100750001FFB00210846FFF7D7FF3F210120FFF7CD
:10076000D3FF00210220FFF7CFFF10BD70B5064672
:100770000C46154600F032FBD22000F062FB00F080
:10078000BEFB18B100F049FB012070BD304600F0FF
:1007900058FB00F0B4FB00F021FBD32000F051FB2C
:1007A00000F0ADFB0FE0012C05D100F083FB2870B9
:1007B00000F0E1FB04E000F07DFB287000F0BFFBDF
:1007C000601EC4B26D1C002CEDD100F026FB002091
:1007D000DBE770B50446C4F30A0504F4004038B101
:1007E000284603F0F5FA0646002103F036FC70BDFA
:1007F000284603F0EDFAFAE72DE9F8436A460221AC
:100800000E20FFF7B3FF9DF800009DF8011040EAAD
:100810000124E0B2FFF7DDFF814603F029F9074626
:1008200000221D4B02F03CFF054602F0ABFCBDE888
:10083000F8832DE9F04FA5B0064689464FF0000B2E
:1008400004AA80210846FFF791FF00241FE06006FC
:100850004FEA106B04A810F80B1004AA0BF101006A
:10086000105C41EA002A0AF0FF00FFF7B2FF019096
:1008700003F0FEF807460022084B02F011FFCDE915
:10088000020102F07FFC054646F82450641C4C45EA
:10089000DDDB25B0BDE8F08F0000B03F0000D03FA9
:1008A000FE4908807047FD49891C0880704700B5E3
:1008B00002461046FFF7F7FF00BDF84A1080921C71
:1008C0001180704700B5F6490889FFF7E9FF00BDC0
:1008D00000B502460B46F2494889FFF7E1FF1012C6
:1008E000FFF7E1FFD0B2FFF7DEFF511C0812FFF760
:1008F000DAFF511C88B2FFF7D6FFE9498889FFF774
:10090000CFFF1812FFF7CFFFD8B2FFF7CCFF591C6B
:100910000812FFF7C8FF591C88B2FFF7C4FFFFF7A2
:10092000D1FF00BD30B504460D4629462046FFF7ED
:10093000CFFFDC480088FFF7B6FF30BD30B5044676
:100940000D46D7494889FFF7ABFF2012FFF7ABFFF1
:10095000E0B2FFF7A8FF1012FFF7A5FFD0B2FFF734
:10096000A2FFCF498889FFF79BFF2812FFF79BFF63
:10097000E8B2FFF798FF1812FFF795FFD8B2FFF71C
:1009800092FFFFF79FFF30BD70B50446002500269B
:10099000C3484088401E83B2C1480088401E82B2CE
:1009A00000210846FFF7CAFF00BF08E0002503E06A
:1009B000BA48801C04806D1CA02DF9D3761CB6F5B6
:1009C000707FF3D370BD00B59FB00121080202F023
:1009D0000EF9012140F2791002F016F90120ADF86C
:1009E000780010208DF87B0003208DF87A001EA976
:1009F000AD4801F04DFE2020ADF8780010208DF8B4
:100A00007B0003208DF87A001EA9A84801F040FE63
:100A10004CF23370ADF8780018208DF87B0003207D
:100A20008DF87A001EA9A24801F032FE4FF68070C0
:100A3000ADF8780018208DF87B0003208DF87A003F
:100A40001EA99C4801F024FE41F20100ADF8780097
:100A500018208DF87B0003208DF87A001EA9964897
:100A600001F016FE01200890002009900F200A9046
:100A700000200B900C900D900E9002200190002011
:100A800002900520039000200490059006900790A6
:100A900006200F900020109011901020129000203E
:100AA000139015901490169017904FF48050189052
:100AB000002019904FF480401A9000201B9008A845
:100AC0001C9001A81D900FA801F0C8FA0121062072
:100AD00001F02CFC1FB000BD10B520207349486107
:100AE000642001F013F9202070490861322001F0E0
:100AF0000DF910BD00B52A20694948812B20888155
:100B00002C200881002088714FF4A07008804FF4D9
:100B1000F0704880C8213620FFF7CFFE00BD10B529
:100B2000FFF751FFFFF7D8FFF120FFF7B9FE36209E
:100B3000FFF7B9FE0420FFF7B6FE0020FFF7B3FE73
:100B40003C20FFF7B0FE0F20FFF7ADFE8F20FFF730
:100B5000AAFEF220FFF7A4FE1820FFF7A4FEA320B0
:100B6000FFF7A1FE1220FFF79EFE0220FFF79BFE7B
:100B7000B220FFF798FE1220FFF795FEFF20FFF747
:100B800092FE1020FFF78FFE0020FFF78CFEF8206A
:100B9000FFF786FE2120FFF786FE0420FFF783FE85
:100BA000F920FFF77DFE0020FFF77DFE0820FFF70C
:100BB0007AFE3620FFF774FE0820FFF774FEB4209B
:100BC000FFF76EFE0020FFF76EFEB620FFF768FE0F
:100BD0000220FFF768FE2220FFF765FEC120FFF725
:100BE0005FFE4120FFF75FFEC520FFF759FE0020A2
:100BF000FFF759FE1820FFF756FEE020FFF750FEE2
:100C00000F20FFF750FE1F20FFF74DFE1C20FFF7BF
:100C10004AFE0C20FFF747FE0F20FFF744FE082096
:100C2000FFF741FE4820FFF73EFE9820FFF73BFE0E
:100C30003720FFF738FE0A20FFF735FE1320FFF7B5
:100C400032FE0420FFF72FFE1120FFF72CFE0D20AF
:100C5000FFF729FE0020FFF726FEE120FFF720FE28
:100C60000F20FFF720FE3220FFF71DFE2E20FFF79A
:100C70001AFE0B20FFF717FE0D20FFF714FE0520CC
:100C8000FFF711FE4720FFF70EFE7520FFF70BFE62
:100C90003720FFF708FE062010E00000FE07006C7A
:100CA0003C01002014000020000C01400010014015
:100CB000001401400018014000200140FFF7F3FD3F
:100CC0001020FFF7F0FD0320FFF7EDFD2420FFF7D4
:100CD000EAFD2020FFF7E7FD0020FFF7E4FD3A20C2
:100CE000FFF7DEFD5520FFF7DEFD1120FFF7D8FDF1
:100CF0003620FFF7D5FDC820FFF7D5FD782001F09D
:100D000005F82920FFF7CCFDFFF7F4FE01201D496F
:100D100008604FF6FF70FFF737FE10BD2DE9F84F62
:100D200006460F4614461D46DDF82890A01B401CC1
:100D30001FFA80FAE81B401C1FFA80FB0BFB0AF02D
:100D40000090681E83B2601E82B239463046FFF7BB
:100D5000F5FD4FF0000804E00B48A0F8009008F102
:100D6000010800988045F7D308484088401E83B2A8
:100D700006480088401E82B200210846FFF7DEFDCB
:100D8000BDE8F88F808121420008006C3C01002002
:100D900008B50121082001F037FFC020ADF80000A0
:100DA00010208DF8030003208DF8020069467E486C
:100DB00001F06EFCC0217C4801F017FD08BD08B5AC
:100DC0008020ADF8000010208DF8030003208DF87E
:100DD00002006946744801F05BFC08BD10B5FFF7DE
:100DE000EEFF012071490860042000F06BFF012034
:100DF0006F49C1F89801042000F064FF00206B499E
:100E00000860042000F05EFF00206949C1F89801E5
:100E1000042000F057FF012010BD10B5FFF7CFFFF1
:100E2000002062490860042000F04CFF0120604966
:100E3000C1F89801042000F045FF01205B490860DB
:100E400010BD70B50446FFF7BAFF002523E004F09B
:100E5000800018B101205549086002E00020534984
:100E60000860042000F02EFF01205049091F08608F
:100E7000042000F027FF00204D49C1F89801072DFC
:100E800002D10120494908606006040E042000F0E8
:100E900019FF681CC5B2082DD9DB70BD08B58020CC
:100EA000ADF8000004208DF8030069463E4801F0CB
:100EB000EFFB08BD70B501203C490860FFF7EEFF6D
:100EC0000024002517E06006040E01203749091FA1
:100ED0000860042000F0F6FE3548D0F81C0108B187
:100EE000601CC4B200203149091F0860042000F0D2
:100EF000E9FE681CC5B2082DE5DB204670BD10B5C3
:100F000001202A490860FFF7C9FF042000F0DAFE3B
:100F100001202749C1F89801042000F0D3FE23489E
:100F20008038006808B1012400E0002400201F4937
:100F3000091F0860042000F0C5FE204610BD10B552
:100F4000FFF73DFF002019490860042000F0BAFEB9
:100F500001201749C1F89801042000F0B3FE0020D9
:100F60001249091F0860042000F0ACFE012010495E
:100F7000C1F89C0110BD10B5FFF721FF01200B49FE
:100F80000860042000F09EFE01200949C1F8980184
:100F9000042000F097FE00200449091F0860042087
:100FA00000F090FE10BD0000000C01409C81214229
:100FB0000080214230B50546039C002B00DA002357
:100FC000002C00DA0024934201DB501E43B28C4215
:100FD00001DB481E44B204FB023055F8200030BD4E
:100FE00070B5DDE90445002B01DB934200DB70BDE9
:100FF000002C01DB8C4200DBF9E704FB023640F8F1
:10100000265000BFF3E72DE9F04FA1B00446894612
:10101000206802F02DFD05460E46E06802F028FD2E
:10102000CDE90401D4E9010103F022F8019002F0B6
:101030001FFD07460022BF4B02F032FBCDE9020143
:10104000DDE9042302F0D0F882462A46334602F056
:1010500025FCCDE90801484602F00AFDCDE906016C
:10106000DDE9082302F01CFBCDE90C01E06802F089
:10107000FFFCCDE90801A06802F0FAFC0546002259
:10108000AD4B02F00DFBCDE90401606802F0F0FC0D
:1010900005460022A94B02F003FB0746884620685C
:1010A00002F0E6FC054600224FF0804302F0F8FA19
:1010B00082463A46434602F0F1FBCDE90201DDE902
:1010C000042302F091F8CDE90601DDE9082302F0DE
:1010D000E5FBCDE90A01DDE90C2302F085F8CDE955
:1010E0001001484602F0C4FCCDE90E01DDE91023F1
:1010F00002F0D6FACDE914012168A06802F0B8FF29
:10110000054602F0B5FCCDE91201DDE9142302F039
:101110006BF8CDE91801484602F0AAFC054600220A
:10112000874B02F0BDFACDE91601DDE9182302F084
:10113000B7FACDE91C01606802F09AFCCDE91A010A
:10114000DDE91C2302F050F8CDE91E0102F01AF887
:101150002090209821B0BDE8F08F7FB504460E4660
:1011600015460020009001900290039031462046E1
:10117000FFF749FF0090314604F11000FFF743FFED
:101180000190314604F12000FFF73DFF0290314607
:1011900004F13000FFF737FF039029466846FFF758
:1011A00032FF04B070BD2DE9FF4F81B00E461746E7
:1011B0009846DDE90E9A4FF0FF341AE0601C06EB0A
:1011C000001B4FF0FF3510E00AEB040040B2009026
:1011D00009EB050043B2424639460198FFF7EAFEA3
:1011E000691C4BF82100681C45B2032DECDB601C28
:1011F00044B2032CE2DB05B0BDE8F08F2DE9FF4FD0
:1012000099B00C461546DDE92669484602F0F8F922
:10121000074600224B4B02F041FBCDE90401284672
:1012200002F0EEF907460022464B02F037FBCDE90B
:101230000201DDE9042302F08BF8824601F0A2FFEF
:101240001890304602F0DCF9074600223D4B02F0D0
:1012500025FBCDE90201204602F0D2F90746002223
:10126000384B02F01BFB8246DDE9022302F070F8E6
:10127000CDE9040101F086FF1790002755E04FF0FB
:1012800000084EE0404602F0A3FD0390189902F0DA
:10129000E7FD8246384602F09BFD0390179902F065
:1012A000DFFD8346584602F03FFD40B203905046B2
:1012B00002F03AFD40B20290DDE902012B462246DF
:1012C000CDE9000107A91998FFF76DFF504602F01C
:1012D0002BFD029002F064FD5146039002F0BDFE2A
:1012E0000690584602F020FD029002F059FD594642
:1012F000039002F0B2FE059007A8DDE90521FFF793
:101300002CFF049079B204984FFA88F34A46CDE94D
:10131000001031461C98FFF763FE08F1010000F051
:10132000FF08C845AEDB781CC7B2B742A7DB1DB0CB
:10133000BDE8F08F0000084000001040000014409D
:101340000000E03F0000F03F70B505460E46144631
:1013500031462846FFF7BCFA2046FFF7A8FA70BDD1
:101360002DE9FF4F85B081468A4600200490039006
:101370000798A0EB09050898A0EB0A06CDF808909D
:10138000CDF804A0002D01DD012705E00DB90027EF
:1013900002E04FF0FF376D42002E02DD4FF00108F2
:1013A00006E016B94FF0000802E04FF0FF38764231
:1013B000B54201DD2C4600E034464FF0000B21E041
:1013C000019A91B2029A90B2FFF7ACFA04982844BD
:1013D00004900398304403900498A04205DD0498DB
:1013E000001B04900298384402900398A04205DD47
:1013F0000398001B03900198404401900BF10100F9
:101400001FFA80FB601C8345DADD09B0BDE8F08F70
:101410002DE9F04104460D4616461F462B4632463E
:1014200029462046FFF79CFF3B4622462946204698
:10143000FFF796FF3B46324639462046FFF790FFBE
:101440003B46324629463046FFF78AFFBDE8F08129
:10145000F8B504460D4616461F46F84800883B4638
:101460003246294600902046FFF758FCF8BD2DE98A
:10147000F04104460D4616461F46DDF81880EA196D
:1014800091B2A21990B24246FFF75EFFEA1991B2FB
:10149000A21B90B24246FFF757FFEA1B91B2A21976
:1014A00090B24246FFF750FFEA1B91B2A21B90B2E6
:1014B0004246FFF749FFAA1991B2E21990B242469B
:1014C000FFF742FFAA1991B2E21B90B24246FFF722
:1014D0003BFFAA1B91B2E21990B24246FFF734FFDC
:1014E000AA1B91B2E21B90B24246FFF72DFFBDE866
:1014F000F0812DE9FF4F81B0824617469846DDF80E
:1015000038B0002445464FEA4800C0F10306BBF15D
:10151000000F1FD01BE0A14608E04B462246009773
:1015200050460299FFF7A3FF09F10109A945F4DD2F
:10153000002E04DA042000FB0460861D06E0601B18
:10154000042101FB006000F10A066D1E641CAC4220
:10155000E1DD18E015E02B4622460097504602993F
:10156000FFF785FF002E04DA042000FB0460861DCF
:1015700006E0601B042101FB006000F10A066D1EFD
:10158000641CAC42E7DD05B0BDE8F08F2DE9FF4FEC
:1015900083B081468A469346DDE91064A7480088F7
:1015A0000290A6F12000C6B204EBD47009EB6000F3
:1015B000401E82B20AEB0400401E83B251464846E8
:1015C0000194FFF7BBF9129850BB002525E00C2CC5
:1015D00007D106EB46009A4901EB800010F8058020
:1015E00004E0984800EB061010F8058000270DE095
:1015F00008F0010018B15846FFF759F902E00698C3
:10160000FFF755F94FEA6808781CC7B204EBD471AC
:10161000B7EB610FECDB681CC5B2A542D7DB2DE050
:10162000002529E00C2C07D106EB4600844901EB8C
:10163000800010F8058004E0824800EB061010F8E6
:101640000580002711E07D48A0F800B008F00100F7
:1016500038B10AEB050291B209EB070290B2FFF72D
:1016600061F94FEA6808781CC7B204EBD471B7EB94
:10167000610FE8DB681CC5B2A542D3DB6F49029855
:10168000088071484088401E83B26F480088401E21
:1016900082B200210846FFF751F907B0BDE8F08F8C
:1016A0002DE9FE4306460F4615461C46DDF8288008
:1016B0001DE065480088401EB04204DB6248408857
:1016C000401EB84201DABDE8FE8320788DE8210192
:1016D0005E4803885948028839463046FFF756FF6E
:1016E000284605EBD07106EB61018EB2641C2078B0
:1016F0007E2802DC20782028DBDA00BFE3E710B583
:101700000246012000E050430B1EA1F10104E1B2AA
:10171000F9D110BD2DE9FF4F83B0074691461E4613
:10172000109C4FF0000A002543E0701B401EC1B220
:101730000A20FFF7E4FFB9FBF0F00A21B0FBF1F259
:1017400001FB1208BAF1000F1BD1701EA84218DD70
:10175000B8F1000F13D100202021A346CDE90014D9
:10176000029004EBDB71491001FB057188B2374927
:101770000B8832490A880499FFF708FF17E04FF0F9
:10178000010A002108F13000C0B2A346CDE90141B1
:10179000009004EBDB71491001FB057188B22B4905
:1017A0000B8826490A880499FFF7F0FE00BF681CE1
:1017B000C5B2B542B9DB07B0BDE8F08F2DE9FC5FDB
:1017C0000546884691469A46DDF830B000950620D9
:1017D000019000246CE004EB04101D4911F8100086
:1017E0009BF80010884260D104EB0410184901EB0B
:1017F000400040789BF80110884256D108F10F0054
:1018000083B205F10F0082B241462846FFF796F8F1
:10181000002648E0002741E00D98F8B904EB0410D9
:101820000B4901EB4000801C805D8021394108405C
:1018300080B14846FFF73BF82EE00000140000207E
:101840005A430008CE4700083C0100201600002043
:10185000BE4D00085046FFF72AF81DE0F248A0F8F8
:10186000009004EB0410F14901EB4000801C805D06
:1018700080213941084018B141462846FFF752F807
:10188000681C85B20098281A102805D1009D08F11F
:1018900001001FFA80F803E0781CC7B2082FBBDBF9
:1018A00000BF701CC6B2202EB4DB00BF601C84B227
:1018B000019884428FDBDE484088401E83B2DC48BA
:1018C0000088401E82B200210846FFF737F8BDE8C5
:1018D000FC9F2DE9FC5F0546884691469A46DDF857
:1018E00030B0009507200190002467E004EB8400ED
:1018F00000EB4410CF4911F810009BF8001088420B
:1019000059D104EB840000EB4410CA4901EB4000BC
:1019100040789BF8011088424DD108F1170083B23E
:1019200005F1170082B241462846FFF707F8002666
:101930003FE0002738E00D98A0B904EB840000EBED
:101940004410BC4901EB4000801C805D802139417E
:10195000084018B14846FEF7AAFF23E05046FEF7BC
:10196000A6FF1FE0B048A0F8009004EB840000EB55
:101970004410B04901EB4000801C805D802139415A
:10198000084018B141462846FEF7CCFF681C85B2D6
:101990000098281A182805D1009D08F101001FFAA7
:1019A00080F803E0781CC7B2082FC4DB00BF701CAE
:1019B000C6B2482EBDDB00BF601C84B201988442D1
:1019C00094DB9B484088401E83B299480088401EA3
:1019D00082B200210846FEF7B1FFBDE8FC9F2DE969
:1019E000FC5F0546884691469A46DDF830B0009582
:1019F0000620019000245FE004EB84108E4911F86A
:101A000010009BF80010884253D104EB84108A49DF
:101A100001EB400040789BF80110884249D108F161
:101A20001F0083B205F11F0082B241462846FEF72F
:101A300085FF00263BE0002734E00D9890B904EBC9
:101A400084107D4901EB4000801C805D802139417C
:101A5000084018B14846FEF72AFF21E05046FEF73D
:101A600026FF1DE07048A0F8009004EB8410724936
:101A700001EB4000801C805D80213941084018B195
:101A800041462846FEF74EFF681C85B20098281A8A
:101A9000202805D1009D08F101001FFA80F803E01D
:101AA000781CC7B2082FC8DB00BF701CC6B2802EDE
:101AB000C1DB00BF601C84B2019884429CDB5C489F
:101AC0004088401E83B25A480088401E82B20021DE
:101AD0000846FEF733FFBDE8FC9F2DE9FF4F83B0BA
:101AE000064688469146DDE91147109DB2464FF003
:101AF000000B71E0BBF1000F40D104EBD4714C4AF4
:101B00001288A2EB6101B14204DB49494988091BF3
:101B1000414502DA07B0BDE8F08F2878802802DD61
:101B20004FF0010B58E028780D2806D108EB04008F
:101B30001FFA80F856466D1C1EE0102C0DDD10219A
:101B400028788DE883004A4641463046069BFFF7D9
:101B50001DFD06F1080086B20EE028788DE89100A0
:101B60004A4641463046069BFFF710FD204604EBEF
:101B7000D07106EB61018EB26D1C2DE02C480088FF
:101B8000001BB04204DB2A484088001B404500DAB5
:101B9000C0E74FF0000B202C08D1CDE900574A4692
:101BA00041463046069BFFF71AFF12E0182C08D179
:101BB000CDE900574A4641463046069BFFF789FE6D
:101BC00007E0CDE900574A4641463046069BFFF7FD
:101BD000F5FDAD1C301986B2287800288AD100BFE7
:101BE00098E72DE9FF4F83B004460F469046DDE9A4
:101BF000119A109D284601F070FA86B20C490988A6
:101C0000A1EBC60000EBD071C1F34F0B04EB0B014D
:101C100088B28DE8200642463946069BFFF75DFFF5
:101C200007B0BDE8F08F000014000020BE4D000892
:101C30003C0100208A4E00089050000810B56FF05B
:101C4000040000F0A0F9434800684349B0FBF1F0FC
:101C50004249087008460078092190FBF1F040499C
:101C600008703E48007800EB4001C1EBC0104FF611
:101C7000FF7101EAC0003B49088010BD0146384AA7
:101C800012784A434FF0E0235A6100229A611A46C3
:101C9000126942F001021A6100BF4FF0E0221069A0
:101CA00000F001021AB100F48032002AF5D04FF0A2
:101CB000E022126922F001024FF0E0231A610022B3
:101CC0009A6170470146254A12784A434FF0E02353
:101CD0005A6100229A611A46126942F001021A61A1
:101CE00000BF4FF0E022106900F001021AB100F4C9
:101CF0008032002AF5D04FF0E022126922F0010272
:101D00004FF0E0231A6100229A6170470146154A9C
:101D100012884A434FF0E0235A6100229A611A4622
:101D2000126942F001021A6100BF4FF0E02210690F
:101D300000F001021AB100F48032002AF5D04FF011
:101D4000E022126922F001024FF0E0231A61002222
:101D50009A6170470000002000127A001B000020EA
:101D60001A0000201C000020014600BF704700BF81
:101D7000494A128802F04002002AF9D0C2B2464B0A
:101D80001B1D1A80704710B586B00446012144F22D
:101D9000040000F039FF4FF40070ADF81400032088
:101DA0008DF8160018208DF8170005A93B4800F0A3
:101DB0006FFC4FF48060ADF8140004208DF817001C
:101DC00005A9364800F064FC25208DF800000320AA
:101DD0008DF801008DF8020001208DF8030068469F
:101DE00000F087F801940020ADF80800ADF80A0073
:101DF000ADF80C00ADF810000C20ADF80E0001A9F4
:101E0000254800F0A8FF012240F22551224801F0A8
:101E10003AF80121204801F02AF806B010BD10B5AB
:101E200040F225511C4801F013F910B31A4801F093
:101E30008FF8C4B21A48008800F40040C8B91848A6
:101E4000008800F4804060B10A2C03D000201449BF
:101E5000088020E01248008840F4004010490880C3
:101E600019E00D2C06D10E48008840F480400C4942
:101E7000088010E00A480088C0F30D0009490C549E
:101E800007480088401C0649088008460088C72883
:101E900001DD0020088010BD00380140000801402D
:101EA000240000204A0100200948804709480047D3
:101EB000FEE7FEE7FEE7FEE7FEE7FEE7FEE7FEE7FA
:101EC000FEE7FEE704480549054A064B7047000057
:101ED000AB050008310100087802002078F40020EA
:101EE000780400207804002031490143314A116010
:101EF000704770B5002100230F22C47804B32D4C25
:101F0000246804F4E064C4F5E064210AC1F1040328
:101F1000CA40447804FA03F184781440214309014B
:101F2000254C0678A155047804F01F050124AC4027
:101F300005786D11AD0005F1E025C5F8004109E017
:101F4000047804F01F050124AC401C4D067876117E
:101F500045F8264070BD1A4A0A400243154B1B1F24
:101F60001A60704739B1134A121D12680243114BAF
:101F70001B1D1A6006E00F4A121D126882430D4BAA
:101F80001B1D1A607047042808D14FF0E021096931
:101F900041F004014FF0E022116107E04FF0E02131
:101FA000096921F004014FF0E0221161704700003F
:101FB0000000FA050CED00E000E400E080E100E044
:101FC00080FFFF1F30B943F2DB028100A1F1C04165
:101FD0000A6005E043F2D2028100A1F1C0410A602B
:101FE0006FF07042411C8900A1F1C0410A6081007C
:101FF000A1F1C041C1F80421704710280AD118216D
:102000004FF020421166402151664FF0FC3191663D
:10201000D16610E01821F74A116040214FF02042AC
:10202000C2F884104FF0FC31F24A083211604FF0D0
:102030002042C2F88C1070471820EE492031086009
:1020400000200906C1F8A4004FF0FC30E94928310E
:102050000860091D0860091D08607047D0E9011279
:102060001143C268114302691143426911438269F5
:102070001143C2691143026A1143426A1143826AE1
:102080001143C26A1143026B114302689200A2F12C
:10209000C0421160816808290BD101688900A1F153
:1020A000C041096841F0400201688900A1F1C041C6
:1020B0000A60416B0968426B526841EA0211426B47
:1020C000926841EA0221426B928941EA0241426BE5
:1020D000128A41EA0251426B127D41EA0261426B6F
:1020E000926911430268521C9200A2F1C042116031
:1020F000C16AB1F5804F1BD1816B0968826B526850
:1021000041EA0211826B926841EA0221826B128AD3
:1021100041EA0251826B127D41EA0261826B92694F
:10212000114302689200A2F1C042C2F8041107E014
:102130006FF0704201688900A1F1C041C1F804212B
:10214000704730B5002100220023446844F00804A1
:1021500085682C43C5682C4305692C43456944EACE
:102160004524856944EA4531C4692468C5696D68B8
:1021700044EA0524C5692D8944EA0544C5692D7BD7
:1021800044EA0562046A2468056A6D6844EA052425
:10219000056A2D8944EA0544056A2D7B44EA0563F6
:1021A0000468102C05D14FF020442166A266E36636
:1021B00008E0904C21604FF02044C4F888208D4CFA
:1021C0000C34236030BD016841F01001426841EADF
:1021D0004221826841EA4231864A20321160C16858
:1021E0000968C268526841EA0221C268128941EA5C
:1021F0000241C268127B41EA02617E4A28321160C4
:10220000016909680269526841EA0221026912897A
:1022100041EA02410269127B41EA0261754A2C32AD
:102220001160416909684269526841EA02214269C4
:10223000128941EA02414269127B41EA02614FF090
:102240002042C2F8B01070470021016002214160B5
:1022500000218160C160016141618161C1610162F0
:102260004FF480514162490081620021C1620163E3
:102270000F21426B1160426B5160FF21426B9160F4
:102280000F21426BD160426B1161426B51610021A1
:10229000426B91610F21826B1160826B5160FF2153
:1022A000826B91600F21826BD160826B1161826BB6
:1022B00051610021826B9161704710210160002102
:1022C00041608160C160016141618161FC21C2693D
:1022D0001160C2695160C2699160C269D160026ACD
:1022E0001160026A5160026A9160026AD1607047AF
:1022F0000021016041608160FC21C2681160C268F8
:102300005160C2689160C268D1600269116002695F
:102310005160026991600269D1604269116042694D
:102320005160426991604269D160704751B1820049
:10233000A2F1C042126842F001038200A2F1C04241
:10234000136009E08200A2F1C04212682A4B1A40D1
:102350008300A3F1C0431A60704799B1102808D1D7
:102360004FF02042126E42F004024FF020431A66F2
:102370001DE0204A126842F004024FF02043C3F8E7
:10238000802014E0102809D14FF02042126E1A4B21
:10239000DB1E1A404FF020431A6608E0154A126807
:1023A000154BDB1E1A404FF02043C3F880207047C6
:1023B00048B110492031096841F004014FF0204232
:1023C000C2F8A01009E00B49203109680A4AD21E60
:1023D00011404FF02042C2F8A0107047B9B1102848
:1023E0000CD14FF02042126E42F040024FF02043D9
:1023F0001A661FE0800000A0FEFF0F00724A1268FC
:1024000042F040024FF02043C3F8802012E0102831
:1024100008D14FF02042126E6C4B1A404FF020430F
:102420001A6607E0684A1268684B1A404FF020436A
:10243000C3F88020704701460020102903D14FF0D7
:102440002042506F02E0604A14321068704710B5A5
:10245000F2B1102807D14FF020435B6E0B434FF0D1
:102460002044636632E0B0F5807F08D1564B1B1DD7
:102470001B680B434FF02044C4F8843026E0524BD5
:1024800024331B680B434FF02044C4F8A4301DE0F4
:10249000102807D14FF020435B6E8B434FF0204450
:1024A000636613E0B0F5807F08D1474B1B1D1B68A6
:1024B0008B434FF02044C4F8843007E0424B243370
:1024C0001B688B434FF02044C4F8A43010BD10B5F6
:1024D000024600200023102A03D14FF02044636EEF
:1024E00009E0B2F5807F03D1374C241D236802E058
:1024F000354C2434236803EA01040CB1012000E0C8
:10250000002010BD102807D14FF02042526E8A43A0
:102510004FF020435A6613E0B0F5807F08D12A4A75
:10252000121D12688A434FF02043C3F8842007E04D
:10253000254A243212688A434FF02043C3F8A4206E
:10254000704770B502460020002300240025102AA1
:1025500003D14FF02046736E09E0B2F5807F03D1BE
:10256000194E361D336802E0174E2436336803EAED
:10257000010403EAD10514B10DB1012000E00020EF
:1025800070BD102808D14FF02042526E22EAD102CD
:102590004FF020435A6615E0B0F5807F09D10A4A12
:1025A000121D126822EAD1024FF02043C3F88420A2
:1025B00008E0054A2432126822EAD1024FF0204393
:1025C000C3F8A42070470000800000A0BFFF0F00E8
:1025D00010B50446CC48844208D10121042000F003
:1025E0002DFB0021042000F029FB46E0C74884426F
:1025F00008D10121082000F021FB0021082000F073
:102600001DFB3AE0C248844208D10121102000F0AD
:1026100015FB0021102000F011FB2EE0BD48844284
:1026200008D10121202000F009FB0021202000F02A
:1026300005FB22E0B848844208D10121402000F087
:10264000FDFA0021402000F0F9FA16E0B348844278
:1026500008D10121802000F0F1FA0021802000F053
:10266000EDFA0AE0AE48844207D10121801500F05E
:10267000E5FA0021A01500F0E1FA10BD10B5012126
:10268000084600F0DBFA0021012000F0D7FA10BD67
:102690002DE9F041024600250026002000230024F9
:1026A000002791F803C00CF00F0591F803C00CF05F
:1026B000100CBCF1000F03D091F802C04CEA0505E4
:1026C00091F800C0BCF1000F31D0146800202BE05D
:1026D0004FF0010C0CFA00F3B1F800C00CEA03064D
:1026E0009E4220D183004FF00F0C0CFA03F7BC433D
:1026F00005FA03FC4CEA040491F803C0BCF1280F6E
:1027000006D14FF0010C0CFA00FCC2F814C00AE02C
:1027100091F803C0BCF1480F05D14FF0010C0CFA41
:1027200000FCC2F810C0401C0828D1D31460B1F8D6
:1027300000C0BCF1FF0F34DD546800202EE000F132
:10274000080C4FF0010808FA0CF3B1F800C00CEACD
:1027500003069E4221D183004FF00F0C0CFA03F7C1
:10276000BC4305FA03FC4CEA040491F803C0BCF135
:10277000280F05D100F1080C08FA0CF8C2F81480F3
:1027800091F803C0BCF1480F07D100F1080C4FF0DD
:10279000010808FA0CF8C2F81080401C0828CED3B3
:1027A0005460BDE8F0814FF6FF7101800221817015
:1027B0000421C17070470246002093680B400BB1A2
:1027C000012000E0002070470146886880B2704711
:1027D00002460020D3680B400BB1012000E000202E
:1027E00070470146C86880B2704701617047416117
:1027F00070470AB1016100E041617047C1607047F4
:102800004FF480320A438261816182618269826908
:10281000704702460020434B18684FF680731840FB
:1028200040EA021008433F4B186070473E49C861B8
:102830007047F0B50A46002300240021002500F06F
:102840000046B6F1004F02D1364EF16901E0354E37
:102850007168C0F3034583B200F44016B6F5401F1B
:1028600008D121F070612F4E766826F070662D4FEA
:102870007E6012E000F48016B6F5801F06D10326B4
:1028800006FA05F4A14341F0706106E0460D3601F9
:1028900003FA06F6B14341F0706122B1460D3601EC
:1028A00003FA06F6314300F00046B6F1004F02D1BC
:1028B0001C4EF16101E01B4E7160F0BD30B500228D
:1028C0008B071C0F0F2303FA04F2164B08338C10EE
:1028D00053F824309343134C08348D1044F82530BA
:1028E00023468C1053F824308C07240F00FA04F48C
:1028F00023430C4C08348D1044F8253030BD0A4970
:10290000DC3108607047000000080140000C014005
:10291000001001400014014000180140001C01405B
:10292000002001400000014000002042DF48006814
:1029300040F00100DD49086008464068DC49084075
:10294000DA49486008460068DA490840D749086013
:102950000846006820F4802008600846406820F49B
:10296000FE0048604FF41F0088607047CF49096837
:1029700021F48031CD4A11601146096821F480218B
:102980001160B0F5803F03D0B0F5802F0ED106E086
:10299000C649096841F48031C44A116007E0C3495F
:1029A000096841F4A021C14A116000E000BF00BFE6
:1029B000704710B501460022002300204A11012A69
:1029C00002D1BA4C236806E0022A02D1B74C236A2E
:1029D00001E0B64C636A01F01F02012494401C40E0
:1029E0000CB1012000E0002010BD38B5002000909F
:1029F0000024002500BF3120FFF7DBFF05460098CB
:102A0000401C00900098B0F5A06F01D0002DF2D0CE
:102A10003120FFF7CEFF08B1012400E0002420465A
:102A200038BD01460020A14A106820F0F80040EAB5
:102A3000C10010607047A04908607047024600203E
:102A40009A4B586820F47C1042EA01031843974BD4
:102A50005860704798490866704701460020934ABD
:102A6000506820F003000843506070478F4840686A
:102A700000F00C007047014600208C4A506820F09E
:102A8000F00008435060704701460020874A5068B4
:102A900020F4E06008435060704701460020834AFC
:102AA000506820F4605040EAC1005060704729B17E
:102AB0007E4A527A02437D4B5A7204E07B4A527A34
:102AC00082437A4B5A7270477B49D831086070470D
:102AD00001460020754A506820F440400843506089
:102AE00070470021714A20321170704A82F820101C
:102AF000012802D004280AD104E001216B4A2032C7
:102B0000117005E00521694A2032117000E000BF14
:102B100000BF70476949086070476449096A01430A
:102B2000624A11627047654944390860704730B5A0
:102B300000210022002400235C4D6D6805F00C018B
:102B400021B1042905D0082923D105E05C4D056099
:102B500022E05B4D05601FE0544D6D6805F4701276
:102B6000524D6D6805F48034022505EB92421CB984
:102B7000544D554305600BE04C4D6D6805F4003530
:102B80001DB1504D5543056002E04D4D5543056064
:102B900002E04B4D056000BF00BF444D6D6805F07D
:102BA000F0010909484D6B5C0568DD4045603F4D0B
:102BB0006D6805F4E061090A434D6B5C4568DD40D2
:102BC00085603A4D6D6805F46051C90A3E4D6B5CF5
:102BD0004568DD40C560354D6D6805F44041890BA1
:102BE0003A4D6B5CC568B5FBF3F5056130BD29B1A5
:102BF0002E4A526902432D4B5A6104E02B4A526916
:102C000082432A4B5A61704729B1284A926902438C
:102C1000264B9A6104E0254A92698243234B9A61CC
:102C2000704729B1214AD2690243204BDA6104E09E
:102C30001E4AD26982431D4BDA61704729B11B4A93
:102C4000D2680243194BDA6004E0184AD268824322
:102C5000164BDA60704729B1144A12690243134BCC
:102C60001A6104E0114A12698243104B1A617047DD
:102C700012494039086070470F49C86470470B49D2
:102C8000C87170470948406A40F08070074948623F
:102C9000704701460020054A92680A400AB10120A7
:102CA00000E0002070470149887270470010024020
:102CB0000000FFF8FFFFF6FE00004242800442429F
:102CC00000127A0000093D00260000203600002096
:102CD00010B50446FB48844209D101218803FFF75F
:102CE000ADFF00214FF48040FFF7A8FF32E0F64827
:102CF000844209D101214804FFF7ADFF00214FF4C0
:102D00000030FFF7A8FF25E0F048844209D10121F7
:102D10008804FFF7A0FF00214FF48020FFF79BFFFE
:102D200018E0EB48844209D10121C804FFF793FF62
:102D300000214FF40020FFF78EFF0BE0E5488442AE
:102D400008D101210805FFF786FF00214FF480100C
:102D5000FFF781FF10BD2DE9F04786B005460E460E
:102D60000024A24600BFA1460027B08900B100BFE1
:102D70002F462C8A4CF6FF700440F08804432C82C6
:102D8000AC894EF6F3100440B0883189084371894C
:102D900008430443AC81AC8A4FF6FF400440B0893D
:102DA0000443AC8201A8FFF7C2FEC648874202D1A5
:102DB000DDF810A001E0DDF80CA0A88900F40040C7
:102DC00040B10AEBCA0000EB0A1031684900B0FBC1
:102DD000F1F807E00AEBCA0000EB0A10316889003D
:102DE000B0FBF1F86420B8FBF0F004012009642185
:102DF00001FB1089A88900F4004040B1322000EBAB
:102E0000C900B0FBF1F000F00700044308E03220F5
:102E100000EB09106421B0FBF1F000F00F00044357
:102E20002C8106B0BDE8F0874FF4165101600021F7
:102E30008180C18001810C21418100218181704705
:102E400010B502460020108A4FF2FF0318400B888D
:102E50004C8823438C882343CC8823431843108217
:102E600010BD0021018041808180C180704721B167
:102E7000828942F40052828104E082894DF6FF7318
:102E80001A4082817047F0B50346002400260025D1
:102E9000002040F66A17B94200D100BF1846C1F3BE
:102EA000421401F01F06012707FA06F5012C01D193
:102EB0000C3004E0022C01D1103000E014301AB1C3
:102EC00007682F43076002E00768AF430760F0BD63
:102ED0001AB1838A0B43838202E0838A8B43838205
:102EE0007047028A4FF6F0731A400282028A0A4340
:102EF0000282704782894FF2FF731A408281828971
:102F00000A438281704721B1828942F002028281A4
:102F100004E082894FF6FD731A4082817047028A6D
:102F20004FF6DF731A400282028A0A430282704718
:102F300021B1028A42F48042028204E0028A4BF606
:102F4000FF731A4002827047C1F308028280704703
:102F500001468888C0F308007047818941F001016B
:102F600081817047028BD2B20283028B42EA012236
:102F700002837047028B02F47F420283028B0A4372
:102F80000283704721B1828A42F02002828204E0EB
:102F9000828A4FF6DF731A408282704721B1828A9B
:102FA00042F01002828204E0828A4FF6EF731A40E8
:102FB0008282704721B1828A42F00802828204E054
:102FC000828A4FF6F7731A408282704721B1828954
:102FD00042F40042828103E08289C2F30E028281C0
:102FE000704721B1828A42F40062828204E0828AC0
:102FF0004FF2FF731A4082827047828A4FF6FB734A
:103000001A408282828A0A438282704721B1828A70
:1030100042F00202828204E0828A4FF6FD731A4077
:103020008282704702460020B1F5007F00D100BFC8
:1030300013880B400BB1012000E00020704701F421
:103040000072B2F5007F00D100BFCA430280704712
:1030500070B50246002400230025002040F66A16C1
:10306000B14200D100BFC1F3421501F01F03012698
:1030700006FA03F3012D02D19689334006E0022DB2
:1030800002D1168A334001E0968A33400C120126A1
:1030900006FA04F41688344013B10CB1012000E0A4
:1030A000002070BD10B50022002340F66A14A14232
:1030B00000D100BF0A1201249440A3B2DC43048073
:1030C00010BD0000003801400044004000480040AE
:1030D000004C004000500040704710B5431C02E017
:1030E00010F8011B71B18107FAD14FF0013202C80B
:1030F0008C1A8C4314EAC211F9D0C01A0A0603D004
:10310000C01E10BDC01A10BD0A0401D0801E10BD23
:103110000902FCD0401E10BD7047704770477047D1
:10312000754600F02BF8AE4605006946534620F080
:103130000700854618B020B5FEF7C4FEBDE8204064
:103140004FF000064FF000074FF000084FF0000B63
:1031500021F00701AC46ACE8C009ACE8C009ACE816
:10316000C009ACE8C0098D46704710B50446AFF3FE
:1031700000802046BDE81040FDF721B800487047A8
:103180001402002021F00042A2F16052B2F5801F2B
:1031900001F0004328BFD2F17F6C0BD95FEA001C1D
:1031A00043EAC20242EB507018BF704728BF20F0BC
:1031B00001007047B2F5801FBCBF184670474FEA48
:1031C000410C1CF5001F02D2084600F010BF70B57C
:1031D00000F010FB00000089FFF7F6BF4FF0004041
:1031E000A0F580007047000010B591EA030F48BFBA
:1031F00083F0004300F15A83841A71EB030C05D26B
:10320000121943EB0C03001B61EB0C01DFF824E106
:103210004FEA1154A4EB135C1EEA430F18BF9EEA59
:10322000445F73D023EA0E03DCF1200E21EA04513F
:1032300043F4801332D322FA0CFE10EB0E0023FA73
:103240000CFE41EB0E01CCF1200E03FA0EFE10EB4A
:103250000E0051F10001B1F5801FCCF1200E32D2E9
:1032600001EB045112FA0EF2BDE8104058BF70474E
:10327000401C38BF5FEA420218BF7047002814BFE5
:1032800020F0010041F100014FEA410313F5001F56
:1032900038BF7047A1F1C04100F0FABA012A43EBF0
:1032A0000302ACF1200CDCF11F0E32BF4FF0000E18
:1032B00023FA0CF310EB030041EB0451B4EB115F64
:1032C000D0D0A1EB045101F5801149085FEA30002C
:1032D00001EB04510ED350F1000038BF12FA0EFE7C
:1032E00008D1BDE81040C9E7401C38BF5FEA420280
:1032F000CAD1C3E7BDE810404FEA410313F5001FF0
:1033000038BF7047A1F1C04100F0C2BA9EEA445FE5
:1033100008D011EA5E0FBDE8104004BF01F0004183
:1033200000207047BDE8104070B500F063FA00BFA0
:1033300064FBBE3E0000E0FF491058BFC1F14041B0
:103340005B1058BFC3F140438B42EFF300807047DE
:103350002DE9C04130B4DFF8A0C23CEA111418BF17
:103360003CEA131400F0EC8081EA03051CEA111416
:1033700044EAD57418BF1CEA131500F0C780A4EB0B
:1033800005044FF0004545EAC12145EAC32341EA5F
:10339000505143EA525304F17F74994204F50034CA
:1033A0004FEAC0204FEAC22208BF904200F09C8042
:1033B0004FEA13650FF24016765D4FEA134506FBA0
:1033C00005F7C7F1807706FB07F74FEAD737A7FB6A
:1033D00003687642C8F58038A7FB06CE38BFA8F14F
:1033E000010807FB08E64FF0000EA6FB028CE6FB87
:1033F00003CEDCF1000CCEF1004E38BFAEF1010E71
:10340000A6FB0C584FF000074FF00005E6FB0E87B7
:10341000A1FB08C6A0FB07CE16EB0E0645F1000582
:10342000E1FB076515F1E04E7EBFA4F580345FEA4D
:1034300046066D4116F1800745F100054FEA172752
:103440004FEA066647EA0567A6F1DE46B6F1805FF9
:103450004FEA15251FD9384624F0010C05EBC4713D
:10346000BCF1FE6F01EB0C1102D8F0BCBDE800818D
:1034700024425CBF01F5801E9EEAC47F02D4F0BCEA
:10348000BDE80081244238D4F0BCA1F1C041BDE8C0
:10349000004100F0FDB94FEAD22242EA43524FEA1E
:1034A000D323A7FB02864FEAD02040EA415007FB16
:1034B00003661EEA0E0F4FEAD12105FB026658BFD4
:1034C000A6EB0056B6EB00564FEA520E4EEAC37E0C
:1034D00018EB0E0E56EB530EBDD518EB02085E41ED
:1034E0007F1C55F10005B6E74FF480154FF000073B
:1034F0004FF000064FF00008ADE7F0BC4FF00000C1
:1035000001F1C04101F00041BDE8008111EA0C1F4A
:103510000CEA131500D00CE013EA0C1F00F0258014
:103520004FF00000F0BC81EA030101F00041BDE86A
:103530000081F0BCBDE8004181EA030100F0A8B9B8
:10354000F0BCBDE8004170B500F054F9097EFC3EC6
:1035500000F007B881EA03014FF0000001F00041DC
:10356000704781EA030100F093B9F0BCBDE8004167
:103570004FF0000021497047FFFDFBF9F7F5F4F229
:10358000F0EEEDEBE9E8E6E4E3E1E0DEDDDBDAD8FE
:10359000D7D5D4D3D1D0CFCDCCCBCAC8C7C6C5C45C
:1035A000C2C1C0BFBEBDBCBBBAB9B8B7B6B5B4B373
:1035B000B2B1B0AFAEADACABAAA9A8A8A7A6A5A45E
:1035C000A3A3A2A1A09F9F9E9D9C9C9B9A99999822
:1035D0009797969595949393929191908F8F8E8EC5
:1035E0008D8C8C8B8B8A8989888887878685858452
:1035F00084838382828181800000FF070000F87F3E
:10360000B0FA80F310FA03F10AD0C3F11D0303F5F9
:1036100080634FEA41504FEA035202EBD1217047D9
:103620004FF000007047000051EA030C17D41CF55E
:10363000801F58BFBCF5801F00F10680994218BF5B
:10364000704708BF9042704707D711F5801F58BFD9
:1036500013F5801F19D499427047894270471CF5B1
:10366000801F08D5BCF5801FF7D58B4218BF704767
:1036700008BF824270474FF4001C1CEB410F38BF5B
:103680001CEB430F01D28B42704770B500F0B2F8CB
:10369000922449004FF000514FF08053FFF74CBE89
:1036A000DFF848C170B51CEA111E1EBF1CEA1315D5
:1036B0009EEA0C0F95EA0C0F00F06F8081EA03047C
:1036C00023EA4C134EEAD47E21EA4C1141F48011D6
:1036D00043F48013AE44A1FB024CA0FB0365AEF1A2
:1036E0007F7E361955EB0C05A1FB034C4CF1000312
:1036F000A0FB021C16EB0C06654153F100030942C6
:1037000018BF46F0010613F4007F0BD14FEA0331D6
:103710004FEA0530340341EA155140EA16506FF084
:1037200003020AE04FEAC3214FEAC520F40241EA4E
:10373000555140EA56506FF0020202EB2E4201EB67
:10374000025585EACE710AD05FEA440C18BF24F016
:10375000004450F1000041F1000120EAD47040F231
:10376000FE7C624500D270BDA84214BF4FF0804479
:103770004FF04044002E08BF0024BEF1806FA8BF68
:10378000A1F1C041BDE8704080F282804FF000009E
:1037900001F1C04101F0004170479EEA0C0F0CEAB4
:1037A000131518BF95EA0C0F06D04FF0000081EA00
:1037B000030E0EF0004170BD00F01CF88900013EC0
:1037C00000F007B800F009B84FEA430C5FEA5C5C10
:1037D00008D081EA030100F05BB84FEA410C5FEAD0
:1037E0005C5CF6D14FF00000014970470000FF0714
:1037F0000000F87F0EF1020E2EF0030E5EF8046B4F
:10380000364205D4012A43EB030515F5001F12D8F3
:10381000012841EB010C1CF5001F0CD80ED14FEA1A
:10382000D17C15F5001F0CEB4C0C0CF1020C08BF01
:103830004CEBD37C04E04FF0080C01E04FEAD37C62
:103840000CEB4C0526FA05F606F00706B6F1040C5B
:1038500006D20EEB860CBDE870404CF0010C6047C0
:10386000DFE80CF0090B02024FF000414FF00000BE
:10387000A1F5002170BD19461046012851EB010445
:1038800018BFD4F5001484BF002001F0004170BDC2
:103890000808A0F500114FEA3101704710B591EA10
:1038A000030F48BF83F000433FF5A6AC841A71EBC9
:1038B000030C07D212198CF0004C43EB0C03001BD5
:1038C00061EB0C01DFF8A4E14FEA1154A4EB135CA7
:1038D0001EEA430F18BF9EEA445F00F0B08023EA5F
:1038E0006E03524221EA0451C3EB6E0338BF5B1EE4
:1038F000DCF1200E25D322FA0CFE10EB0E0043FA69
:103900000CFE41EB0E01CCF1200E03FA0EFE10EB83
:103910000E0051F10001CCF1200E29D412FA0EF262
:1039200001EB0451BDE8104058BF7047401C1CBF5C
:10393000B2F1004F704700280CBF491C20F0010075
:10394000704712EB020E43EB030218BF4FF0010E5B
:103950004EEA4202ACF1200CDCF11E0E54D943FABF
:103960000CFE10EB0E0051F1FF31CCF11E0ED5D53F
:103970000EF1010E12FA0EFE404141EB010101EB86
:10398000445C5FEA5C5C10D910EBDE7001EB045123
:1039900038BFBEF1004FBDE8104018BF7047002887
:1039A0000CBF491C20F00100704730D24FEAD42CE4
:1039B00011F5001124F400641BD0B1FA81F20B3A26
:1039C000A41AA41ED2F12003914030FA03F3194344
:1039D000904001EBCC71002C01EB0451BDE810408C
:1039E000A8BF704701F1C0414FF0000001F0004155
:1039F0007047B0FA80F310FA03F100D110BDE41A59
:103A0000173C4805C90AE4E701EB045110BD491011
:103A100001EB0451BDE810404FEA300002E04FF0E6
:103A2000000170474A0008BF0042F8D0B2F5001FFD
:103A300028BF704701F000414FF0000070479EEA38
:103A4000445F07D011EA5E0FBDE8104004BF0021BB
:103A500000207047BDE8104070B5FFF7CBFE00BFF7
:103A600040DFF63E83F00041104670470000E0FF63
:103A700043004FEAD30C4FEA3C0C43401FBF4007C2
:103A80000CF1605113F0FE4F70471CF0006F03D132
:103A900000200CF0004170470CF0004343EA5070E6
:103AA00010B540EACC0000F05CFA00BF00000092C4
:103AB0004FEA0001FFF7ECBE4FF000414FF000006D
:103AC000A1F500217047000090EA010F48BF81F086
:103AD000004100F1D482421A3CBF801A89184FEA93
:103AE000D0524FF07F4C1CEA410FA2EBD15318BFCC
:103AF0009CEA026F00F03B804FF0004C4CEA002043
:103B00004CEA012121FA03FC10EB0C0C1ED202F14D
:103B1000FF325FEA1C2040EBC25038BF70471CF0F8
:103B20007F0F4FEA400C18BFBCF17F4F38BF704782
:103B3000C3F12003994008BF20F00100BCF17F4F82
:103B400038BF7047A0F1C04000F051BA4FEA3C00C6
:103B5000000A40EBC25028BF1CF0FF0F4FEA400C98
:103B6000E6D018BFBCF17F4F38BF7047EAE79CEA48
:103B7000026F05D010EA5C0F08BF00F000407047EC
:103B800010B500F0EEF900BF64FBBE3E401058BF18
:103B9000C0F14040491058BFC1F140418142EFF3AC
:103BA000008070474FF47F0C1CEAD0121EBF1CEA45
:103BB000D11392EA0C0F93EA0C0F00F0858090EA83
:103BC000010F48BF42F4807240F4000C41F4000041
:103BD0002CF07F4120F07F4000B58142A2EB030230
:103BE0000FF2081CACEB504EC0F100009EF800E054
:103BF0004FEA4E0E00FB0EFC38BF49004FEA2C1C6A
:103C000002F5FA020CFB0EF34FEACE1E4FEA112C1E
:103C10004FEAC1210EEB635E42EB22420EFB0CFC2D
:103C20004FEA1C5300FB03114FEA112C4FEA0131FC
:103C30000EFB0CFC4FEADC4C00FB0C11C14228BF10
:103C400009184CEB03335DF804EB10EB410143EB37
:103C5000C250B2F57C0F38BF704729D512F0F00F73
:103C60001CBF00F1C04000F000407047008182831B
:103C70008485868788898B8C8D8E8F91929395967B
:103C800097999A9C9D9FA0A2A3A5A7A8AAACAEB005
:103C9000B2B3B5B7B9BCBEC0C2C5C7C9CCCED1D40A
:103CA000D7D9DCDFE2E6E9ECF0F3F7FAFE0000003A
:103CB0004FEA400C0CF1807CBCF17E4F28BF70476E
:103CC000B0F1C04000F093B990EA010F0CEAD113B3
:103CD00048BF42F48072624538BF634507D213F48F
:103CE0007F0F16D080EA010000F00040704710B549
:103CF00000F037F9097EFC3E00F005B880EA0100CB
:103D000000F00040704780EA010000F0004000F041
:103D10006EB912F47F0F04BF0248704780EA0100B9
:103D200000F065B90000C07F41000B0ED3F19E0288
:103D300008D950F400034FEA032323FA02F048BFE6
:103D40004042704710B500F00CF900BF4992248042
:103D5000002070476FF0004282EA200070470000A8
:103D6000C10DD1F19E0206DB4FEA002343F0004370
:103D700023FA02F07047004207D54FEA4001B1F143
:103D8000FE4F02D24FF00000704710B500F0E9F886
:103D900049922480002070476FEA2000704700009D
:103DA00010F0004148BF4042B0FA80F310FA03F22D
:103DB000C3F19D030BD051EAC35101EB122053060E
:103DC00038BF704700F1010008BF20F001007047C4
:103DD000B0FA80F310FA03F2C3F19D030AD0D905BB
:103DE00001EB1220530638BF704700F1010008BFF5
:103DF00020F001007047000050EA010C00F1138030
:103E00001CF5000F58BFBCF5000F01D48842704765
:103E100007D710F5000F58BF11F5000F15D48842D1
:103E20007047894270471CF5000F04D5BCF5000FA0
:103E3000F7D5814270474FF0807C1CEB400F38BFB4
:103E40001CEB410F01D28142704710B500F089F898
:103E5000922449004FF000504FF08051FFF796BE7A
:103E60004FF47F0C1CEAD0121EBF1CEAD11392EA59
:103E70000C0F93EA0C0F00F0478090EA010F48BF47
:103E800042F480724FF0004C4CEA00204CEA0121D1
:103E900002EB0302A0FB0113A2F50002002918BFE8
:103EA00043F001035B0028BF4FEA330342EB224299
:103EB0005FEA132C4CEBC2502EBFBCEB436FB2F544
:103EC0007C0F70474FEA036CBCF1004F08BF20F035
:103ED0000100B2F57C0F38BF70470BD582F0FF02AE
:103EE00012F5803FC8BF704700F1C040D8BF00F056
:103EF0000040704700F5000C5FEA4C0C48BF70476B
:103F0000B0F1C04000F073B890EA010F0CEAD11391
:103F100048BF42F48072624538BF634504D280EAEC
:103F2000010000F00040704710B500F01AF800BF23
:103F30008900013E00F007B800F009B85FEA410CC3
:103F40005FEA1C6C08D080EA010000F050B85FEA1C
:103F5000400C5FEA1C6CF6D14FF00040A0F58000E9
:103F600070470EF1020E2EF0030E5EF8044B244251
:103F700004D44FEA4102B2F17F4F11D84FEA400317
:103F8000B3F17F4F0CD80ED14FEAD07CB2F17F4F06
:103F90000CEB4C0C0CF1020C08BF4CEBD17C04E098
:103FA0004FF0080C01E04FEAD17C0CEB4C0324FAF3
:103FB00003F404F00704B4F1040C06D20EEB840CF5
:103FC000BDE810404CF0010C6047DFE80CF007083A
:103FD00002024FF00040A0F5800010BD08464200EC
:103FE00018BFD2F1807288BF00F0004010BDFF21E1
:103FF00041EAD050C005704751EA000C00F113802F
:104000001CF5000F58BFBCF5000F01D4814270476A
:1040100007D711F5000F58BF10F5000F15D48142D6
:104020007047894270471CF5000F04D5BCF5000F9E
:10403000F7D5884270474FF0807C1CEB410F38BFAA
:104040001CEB400F01D28842704780EA010081EAF0
:10405000000180EA0100FFF7F8BE80F0004090EA1E
:10406000010F7FF538AD81F0004100F008B8000085
:1040700090EA010F48BF81F000413FF52CAD421A94
:1040800004D882F00042A0EB020011444FEAD05263
:104090004FF07F4C1CEA410FA2EBD15318BF9CEAB2
:1040A000026F4AD04FF0004C4CEA00204CEA01214C
:1040B00021FA03FCB0EB0C0C0FD412F0FE0F36D03B
:1040C0005FEA4C001DD5001240EBC25038BF70476C
:1040D0001CF03F0F18BF70470BE0A2F101025FEA2E
:1040E0001C2040EBC25038BF70471CF07F0F18BF38
:1040F0007047C3F12003994014BF401E20F0010017
:10410000704780084FEA122308BF7047B0FA80FC5E
:10411000A2EB0C02CCF1280C60FA0CF093EA122FFF
:1041200004BF00EBC25070474FEAC3707047130AD8
:104130005FEADC1008BF7047F6E79CEA026F04D024
:1041400010EA5C0F08BF0020704710B5FFF709FFA9
:1041500040DFF63E81F0004070470F480F400F40AF
:104160000F40104010381038103810381030103010
:10417000103010281028102810281020102010208F
:104180001018101811181118111011101110110811
:104190001108110811001100110011001100310067
:1041A00031005100720072009200B200B200D200E1
:1041B000F200F20012013201520152017201920129
:1041C0009201B201D201F301F3011302330253024F
:1041D000530273029302B302D302D302F302130316
:1041E00033033303530373039403B403D403D4039B
:1041F000F403140434045404740474049404B404E0
:10420000D404F40414053405340554055405740528
:1042100074057305730573057205720572057105E2
:1042200091059105900590058F058F058F058E05E9
:10423000AE05AE05AD05AD05AD05AC05AC05AB05F0
:10424000CB05CB05CA05CA05CA05C905C905C805F8
:10425000E805E805E705E705E605E605E605E50501
:10426000E505040604060406030603060206020624
:104270000106210621062006200620062006200E23
:10428000200E400E40164016401E401E402640267E
:10429000402E602E60366036603E603E603E604676
:1042A0006046604E804E80568056805E805E80669E
:1042B0008066806EA06EA076A076A07EA07EA0868E
:1042C000A086A08EC08EC096C096C09EC09EC0A67E
:1042D000C0AEC0AEE0B6E0B6E0BEE0BEE0C6E0C64E
:1042E000E0CEE0CEE0D600D700DFE0DEC0DEA0DE2C
:1042F00080DE80DE60E640E620E600E6E0E5C0E540
:10430000A0E580E560E540E520E500E5E0E4C0E407
:10431000A0E480E460E440EC20EC00ECE0EBC0EBD7
:10432000A0EB80EB60EB40EB20EB00EBE0EAC0EAB7
:10433000A0EA80EA60EA40EA20F200F2E0F1C0F18F
:10434000A0F180F160F140F100F1E0F0C0F0A0F0E8
:1043500080F060F040F020F000F800000000000065
:104360000000000000000000040404040404000431
:10437000000000140A0A0000000000000000000015
:1043800014143F140A3F0A0A000000041E15050613
:104390000C14150F0400000012150D0A142C2A121B
:1043A00000000000040A0A1E15150936000000026C
:1043B00002010000000000000000002010080808B2
:1043C000080808102000000204080808080808046B
:1043D000020000000004150E0E150400000000008D
:1043E0000404041F04040400000000000000000096
:1043F00000000002020100000000001F0000000099
:10440000000000000000000000000002000000109A
:104410000808080404020202010000000E11111134
:104420001111110E00000000040604040404040E1F
:10443000000000000E1111080402011F000000001E
:104440000E11100C1010110E00000000080C0A0ACA
:10445000091E0818000000001F01010F1010110EA6
:10446000000000000E09010F1111110E00000000E4
:104470001F09080404040404000000000E11110EBA
:104480001111110E000000000E1111111E10120E5C
:104490000000000000000400000000040000000014
:1044A00000000004000000040400002010080402C2
:1044B000040810200000000000001F00001F000082
:1044C0000000000204081020100804020000000090
:1044D0000E11110804040004000000000E1119154B
:1044E000151D011E0000000004040C0A0A1E1233F0
:1044F000000000000F12120E1212120F0000000036
:104500001E1101010101110E000000000F12121214
:104510001212120F000000001F120A0E0A02121FD0
:10452000000000001F120A0E0A020207000000002D
:104530001C1201013911120C000000003312121E6E
:1045400012121233000000001F0404040404041FAC
:10455000000000003E0808080808080907000000DD
:1045600037120A060A0A1237000000000702020288
:104570000202223F000000001B1B1B1B1515151516
:10458000000000003B1216161A1A12170000000055
:104590000E1111111111110E000000000F12120E58
:1045A00002020207000000000E1111111117190E6E
:1045B000180000000F12120E0A121237000000003D
:1045C0001E1101060810110F000000001F15040441
:1045D0000404040E00000000331212121212120C16
:1045E000000000003312120A0A0C0404000000004C
:1045F0001515150E0A0A0A0A000000001B0A0A0413
:10460000040A0A1B000000001B0A0A040404040E2A
:10461000000000001F0908040402121F0000001C13
:1046200004040404040404041C0000020202040440
:10463000080808100000000E080808080808080804
:104640000E0000040A00000000000000000000004E
:104650000000000000000000003F00040000000017
:1046600000000000000000000000000C121C123CC2
:10467000000000000302020E1212120E00000000E1
:104680000000001C1202021C000000001810101C88
:104690001212123C000000000000000C121E021C4E
:1046A000000000003804041E0404041E0000000082
:1046B0000000003C120C021E221C00000302020E2D
:1046C0001212123700000000040000060404040E59
:1046D000000000000800000C080808080807000097
:1046E0000302023A0A0E1237000000000704040415
:1046F0000404041F000000000000000F151515152C
:10470000000000000000000F12121237000000002D
:104710000000000C1212120C000000000000000F3C
:104720001212120E020700000000001C1212121CCE
:10473000103800000000001B060202070000000005
:104740000000001E020C101E000000000004040EF9
:1047500004040418000000000000001B1212123CA8
:104760000000000000000037120A0C0400000000E6
:1047700000000015150E0A0A000000000000001BD2
:104780000A040A1B0000000000000037120A0C0493
:10479000040300000000001E0804041E00000018AE
:1047A0000808080408080808180008080808080885
:1047B000080808080808000604040408040404049F
:1047C00006000225180000000000000000000000A4
:1047D00000000000000000000000000000000000D9
:1047E0000008080808080808000018180000004819
:1047F0006C24120000000000000000000000000017
:10480000002424247F1212127F12121200000000D2
:10481000081C2A2A0A0C1828282A2A1C0808000022
:104820000022251515152A58545454220000000062
:10483000000C1212120A76252911916E0000000652
:10484000060403000000000000000000000000401B
:104850002010100808080808081010204000000266
:1048600004080810101010101008080402000000BE
:10487000000008086B1C1C6B08080000000000000A
:104880000000080808087F08080808000000000069
:104890000000000000000000000006060403000005
:1048A000000000000000FE0000000000000000000A
:1048B00000000000000000000000060600000000EC
:1048C000804040202010100808040402020000006C
:1048D0000018244242424242424224180000000092
:1048E00000080E08080808080808083E0000000034
:1048F000003C4242422020100804427E000000009A
:10490000003C4242201820404042221C000000008F
:1049100000203028242422227E202078000000005D
:10492000007E0202021A26404042221C00000000C3
:1049300000382402021A26424242241800000000D5
:10494000007E222210100808080808080000000055
:10495000003C4242422418244242423C00000000F3
:1049600000182442424264584040241C00000000C9
:1049700000000000181800000000181800000000D7
:10498000000000000008000000000008080400000B
:10499000004020100804020408102040000000001D
:1049A000000000007F0000007F0000000000000009
:1049B000000204081020402010080402000000003B
:1049C000003C424246402010100018180000000031
:1049D000001C225A555555552D42221C000000003E
:1049E000000808181414243C224242E7000000008A
:1049F000001F2222221E22424242221F00000000EB
:104A0000007C4242010101010142221C0000000021
:104A1000001F2242424242424242221F0000000046
:104A2000003F4212121E12120242423F00000000DA
:104A3000003F4212121E1212020202070000000082
:104A4000003C2222010101712122221C00000000F1
:104A500000E7424242427E42424242E700000000FA
:104A6000003E0808080808080808083E0000000082
:104A7000007C10101010101010101010110F0000FA
:104A8000007722120A0E0A1212222277000000007A
:104A900000070202020202020202427F000000003E
:104AA0000077363636362A2A2A2A2A6B000000007A
:104AB00000E346464A4A52525262624700000000F2
:104AC000001C2241414141414141221C00000000A3
:104AD000003F424242423E02020202070000000042
:104AE000001C2241414141414D53321C60000000F5
:104AF000003F4242423E1212222242C70000000002
:104B0000007C4242020418204042423E0000000065
:104B1000007F4908080808080808081C0000000071
:104B200000E74242424242424242423C0000000010
:104B300000E7424222242414141808080000000050
:104B4000006B494949495555362222220000000090
:104B500000E7422424181818242442E7000000002B
:104B600000772222141408080808081C000000001E
:104B7000007E2120101008040442423F000000780B
:104B8000080808080808080808080808780000004D
:104B90000202040408080810102020204040001ED3
:104BA0001010101010101010101010101E000038EF
:104BB00044000000000000000000000000000000B1
:104BC00000000000000000000000000000FF0006E0
:104BD00008000000000000000000000000000000CD
:104BE00000000000003C4278444242FC000000000B
:104BF00000030202021A26424242261A0000000066
:104C000000000000003844020202443800000000A6
:104C10000060404040784442424264D800000000B6
:104C200000000000003C427E0202423C0000000006
:104C300000F08808087E08080808083E0000000008
:104C400000000000007C22221C023C42423C00008A
:104C500000030202023A4642424242E700000000DC
:104C6000000C0C00000E08080808083E00000000B8
:104C7000003030000038202020202020221E00009C
:104C8000000302020272120A1612227700000000CC
:104C9000000E0808080808080808083E0000000080
:104CA00000000000007F9292929292B700000000F4
:104CB00000000000003B4642424242E70000000084
:104CC00000000000003C42424242423C0000000022
:104CD00000000000001B26424242221E0207000084
:104CE00000000000007844424242447840E0000066
:104CF0000000000000774C040404041F00000000C2
:104D000000000000007C42023C40423E00000000E7
:104D100000000008083E08080808083000000000ED
:104D20000000000000634242424262DC00000000DA
:104D30000000000000E742242414080800000000DE
:104D40000000000000EB49495555222200000000F8
:104D500000000000007624181818246E00000000DF
:104D60000000000000E7422424141808080700008F
:104D700000000000007E22100808447E000000C0F1
:104D8000202020202010202020202020C0001010D3
:104D9000101010101010101010101010101000062D
:104DA00008080808081008080808080806000C3257
:104DB000C2000000000000000000000000004040B1
:104DC000C05F5555D5555555555F40404000206052
:104DD0003F251515FF904729112D438080000404BD
:104DE0000404F49495969494F4040404040000FEDE
:104DF00002027A4A4A4A4A4A7A0282FE0000008047
:104E000060F80700FC848484FE82838280000100B5
:104E100000FF0000FF402000418E3040F80010608D
:104E2000028C0000FE9292929292FE000000040416
:104E30007E01407E42427E427E42427E4000000031
:104E4000FC242424FC252624FC24242404004030B3
:104E50008F80844C55252525554C8080800000008E
:104E60000000000000000000000000000000000042
:104E700036360000000000000000000000000000C6
:104E80000000000000000000000000000000000022
:104E9000FC94949494949494949494FEFC00000054
:104EA000000000040404FCFC95949494FC04242465
:104EB000E4242425A5E426040000000018180F0FA0
:104EC000080804047F444222110A0C0E11302020ED
:104ED0000000000010101010D0D05050525C5850FC
:104EE0005050D050101010180000000000F0F010CA
:104EF0001717D2525252525252D2171010F0F000DD
:104F000000000000007F3F0000000F0404040404C0
:104F1000040F0020207F3F00000000000000C0B808
:104F20000E0400F01010101030F808080C040000F7
:104F3000000000080403FFFF000000FF0404040455
:104F4000047FC404040406040000000000007F3F46
:104F50000000001F08040C12700001070C18103E1E
:104F6000000000800004081800C000F848484848C5
:104F700048484848FC000000000000000107807815
:104F80000700E02F2424E42424E424242FE020003C
:104F900000000001013F3F2020203F2020203F2033
:104FA000203F2020203F2030200000000000F01093
:104FB00010101030D0121C1C1010F050101098104F
:104FC0000000000000C0FF0101414141DF494949A3
:104FD00049495FC14101010100000020180700405C
:104FE0004040202011120C080C12113020206020AB
:104FF0002000000000000000000000000000000091
:1050000000000000000000000000000000000000A0
:105010000000000000000000000000000000000090
:105020000000000000000000000000000000000080
:105030000000000000000C1E1E1E0000000000000A
:105040000000000000000000000000000000000060
:105050000000000000000C1E1E0E000000000000FA
:105060000000000000000000000000000000000040
:105070000000000000000000000000000000000030
:105080000000000000000000000000000000000020
:105090000000000000000000F8F8888888888888F0
:1050A00088888888888888FCF8080000000000004C
:1050B000000020202020E0F02F2F24242424E424AA
:1050C000242424242424342F2F20B038302000001E
:1050D000000000000000FFFF121212121212FF0067
:1050E0008181831D61C181E1791F070100000000FA
:1050F0000000040C0C0407070202020301013F41F7
:1051000020201008040303060C1C183010100000A7
:1051100000004040404040404040404040444878CB
:1051200070404040404040404040404060400000AF
:105130000000000000000000817E222222222222A4
:1051400022222222227E7F020000000000000000B6
:1051500000000000FFFE02020202FAF21212121216
:10516000121212F2FA1202020202FEFF0200000004
:10517000000000007F3F000000000F070202020253
:105180000202020F0700101030707F3F0000000085
:1051900000000000000080E07C1808008000808093
:1051A000808080C0C04060203030200000000000BF
:1051B00000008060380EFFFD00000000FFFF8080CF
:1051C0008080809FFF808080808080C08000000081
:1051D000000100000000FFFF00000000FFFF0000D2
:1051E000000000000F7EE080000000000080000052
:1051F0000000000000007F3F000000001F1F0C04A3
:10520000060E1970200001070E1C38303E610000A8
:10521000000000000818706000008000F8F0101016
:105220001010101010101010F810000000000000F6
:105230000000081870200080700F0000FFFF42423D
:105240004242424242424242FF000000000000004F
:1052500000004040C0E0FC070000FCF8090808F826
:10526000F8080808F8F8080808F8FC08000000002A
:10527000000000003F3F002020203F3F2020203F33
:105280003F2020203F3F2020203F3F2030300000A3
:105290000000000000E0C0404040404040C04044AA
:1052A0005878504040C0404040406070604000002E
:1052B0000000000000FFFF080808080808FFFF09B9
:1052C0000808080808FFFF0908080C0C080000007F
:1052D00000000000F07F030000000808081B6BC9F5
:1052E0000909090989EB7B3C180000000000000057
:1052F0000040300E0340404040202020101018088D
:105300000D07060F0D1818103030307030000000F7
:10531000000000000000000000000000000000008D
:10532000000000000000000000000000000000007D
:10533000000000000000000000000000000000006D
:10534000000000000000000000000000000000005D
:10535000000000000C1E1E1E0000000000000000E7
:10536000000000000000000000000000000000003D
:10537000000000000C1E1E0E0000000000000000D7
:10538000000000000000000000000000000000001D
:10539000000000000000000000000000BC530008F6
:1053A000000000203C0000006C010008F8530008D9
:1053B0003C0000203CF400008801000800A24A04E0
:1053C00000000000000000000102030406070809B5
:1053D0000000FFFF000000000000000000000000CF
:1053E000000000000000010203040102030406079C
:0853F000080902040608000090
:0400000508000131BD
:00000001FF
