:020000040800F2
:10000000F8080020D5100008650300086703000801
:100010006B0300086F030008730300080000000072
:10002000000000000000000000000000770300084E
:1000300079030008000000007B0300087D0300082E
:10004000EF100008EF100008EF100008EF10000894
:10005000EF100008EF100008EF100008EF10000884
:10006000EF100008EF100008EF100008EF10000874
:10007000EF100008EF100008EF100008EF10000864
:10008000EF100008EF100008EF100008EF10000854
:10009000EF100008EF100008EF100008EF10000844
:1000A000EF100008EF100008EF100008EF10000834
:1000B000EF100008EF100008EF100008EF10000824
:1000C000EF100008EF100008EF100008EF10000814
:1000D000EF1000084B100008EF100008EF100008A8
:1000E000EF100008EF100008EF100008EF100008F4
:1000F000EF100008EF100008EF100008EF100008E4
:10010000EF100008EF100008EF100008EF100008D3
:10011000EF100008EF100008EF100008EF100008C3
:10012000EF100008EF100008EF100008EF100008B3
:1001300000F002F800F03AF80AA090E8000C8244BF
:100140008344AAF10107DA4501D100F02FF8AFF29C
:10015000090EBAE80F0013F0010F18BFFB1A43F0A5
:1001600001031847502A0000702A0000103A24BFEB
:1001700078C878C1FAD8520724BF30C830C144BF0C
:1001800004680C607047000000230024002500264E
:10019000103A28BF78C1FBD8520728BF30C148BFEA
:1001A0000B6070471FB51FBD10B510BD02F0AFF852
:1001B0001146FFF7F7FF00F098F802F0CDF803B40E
:1001C000FFF7F2FF03BC00F0E5FE00002DE9F84F59
:1001D00006460F4614461D46DDF82880294640464F
:1001E00002F072FC39460090204602F06DFC834616
:1001F0005946304602F088FA8246009902F08EFB9A
:100200008146294602F012FABDE8F88F2DE9F8433D
:10021000064600240025002700BF20E000241AE045
:1002200036F8170005EB850C4FF0280808EBCC03D7
:1002300004EB840C08EBCC0205EB850C4FEACC01F7
:1002400004EB840C00904FEACC0000F0C1FC781C59
:1002500087B2601CC4B2082CE2DB681CC5B2082D52
:10026000DCDBBDE8F88370B5054600243AE055F8BC
:100270002400334902F01EFB04D21F20314921F82B
:1002800014002DE055F824002F4902F013FB04D28E
:100290001F202C4921F8140022E055F824002B4996
:1002A00002F008FB05D24FF4FC60264921F8140047
:1002B00016E055F82400264902F0FCFA05D24FF466
:1002C0007840204921F814000AE055F8240021491B
:1002D00002F0F0FA04D24FF607401A4921F8140050
:1002E000601CC4B2402CC2DB70BD00F0BDFD4FF4F9
:1002F000A06000F00FFF4FF4E13000F05AFE00F074
:100300002FF900F066FB00F07BF918E0402112485D
:1003100000F0E9F91048FFF7A6FF0A48FFF776FF5B
:1003200000200E4908604FF4FA7000F005FE01202D
:100330000B49C1F894014FF4FA7000F0FDFDE5E7B8
:10034000000020413C0100200000A0410000C84105
:100350000000F04100000C423C00002094012342C8
:1003600000002342704700BFFEE700BFFEE700BF6A
:10037000FEE700BFFEE77047704770477047000018
:100380000CB50020019000906C48006840F480306B
:100390006A49086000BF6948006800F400300090B6
:1003A0000198401C0190009818B90198B0F5A06F11
:1003B000F1D16248006800F4003010B101200090D3
:1003C00001E0002000900098012843D15C480068BB
:1003D00040F010005A4908600846006820F0030009
:1003E00008600846006840F0020008605348406812
:1003F000524948600846406848600846406840F4F2
:10040000806048600846406820F47C1048600846D8
:10041000406840F4E81048600846006840F080708A
:10042000086000BF4548006800F000700028F9D05F
:100430004248406820F00300404948600846406850
:1004400040F00200486000BF3C48406800F00C00EB
:100450000828F9D10CBD10B5FFF792FF10BD10B5FB
:100460003648006840F0010034490860084640689A
:10047000344908403149486008460068324908401C
:100480002E4908600846006820F48020086008466D
:10049000406820F4FE0048604FF41F008860FFF7BA
:1004A000DAFF4FF000602949086010BD10B5002147
:1004B00000200022214B5B6803F00C0121B10429CC
:1004C00006D0082928D107E0214B224C236027E0E1
:1004D0001F4B204C236023E0184B5B6803F4701023
:1004E000164B5B6803F48032022303EB904022B981
:1004F000194B4343174C23600DE0104B5B6803F42A
:10050000003323B1144B4343124C236003E0104BE0
:100510004343104C236003E00D4B0E4C236000BF9F
:1005200000BF064B5B68C3F303130C4CE15C094B43
:100530001B68CB40074C236010BD00000010024038
:10054000002002400000FFF8FFFFF6FE08ED00E08B
:1005500000127A000000002000093D000400002085
:1005600008B50121482001F065FC2020ADF800000D
:1005700010208DF8030003208DF8020069460D4815
:1005800001F09CF920210B4801F045FA6220ADF8FA
:1005900000006946084801F091F90221064801F07F
:1005A0003AFA2021044801F036FA4021024801F0CD
:1005B00032FA08BD000C01400018014070B5054634
:1005C0000C4600F065FBD22000F095FB00F0F1FB3B
:1005D00018B100F07CFB012070BD284600F08BFBB9
:1005E00000F0E7FB204600F086FB00F0E2FB18B1CC
:1005F00000F06DFB0120EFE700F069FB0020EBE766
:1006000010B500F01FFB00210846FFF7D7FF3F2180
:100610000120FFF7D3FF00210220FFF7CFFF10BD1D
:1006200070B506460C46154600F032FBD22000F0AD
:1006300062FB00F0BEFB18B100F049FB012070BD69
:10064000304600F058FB00F0B4FB00F021FBD32053
:1006500000F051FB00F0ADFB0FE0012C05D100F0E4
:1006600083FB287000F0E1FB04E000F07DFB2870C4
:1006700000F0BFFB601EC4B26D1C002CEDD100F079
:1006800026FB0020DBE770B50446C4F30A0504F43A
:10069000004038B1284602F0F9F80646002102F081
:1006A00009FA70BD284602F0F1F8FAE72DE9F8439F
:1006B0006A4602210E20FFF7B3FF9DF800009DF867
:1006C000011040EA0124E0B2FFF7DDFF814601F0AE
:1006D00081FF074600221D4B01F07EFE054601F01A
:1006E00049FEBDE8F8832DE9F04FA5B006468946DE
:1006F0004FF0000B04AA80210846FFF791FF002469
:100700001FE060064FEA106B04A810F80B1004AA53
:100710000BF10100105C41EA002A0AF0FF00FFF72C
:10072000B2FF019001F056FF07460022084B01F08E
:1007300053FECDE9020101F01DFE054646F82450A6
:10074000641C4C45DDDB25B0BDE8F08F0000B03FF8
:100750000000D03FFE4908807047FD49891C088091
:10076000704700B502461046FFF7F7FF00BDF84A94
:100770001080921C1180704700B5F6490889FFF778
:10078000E9FF00BD00B502460B46F2494889FFF774
:10079000E1FF1012FFF7E1FFD0B2FFF7DEFF511CBF
:1007A0000812FFF7DAFF511C88B2FFF7D6FFE949BC
:1007B0008889FFF7CFFF1812FFF7CFFFD8B2FFF7F6
:1007C000CCFF591C0812FFF7C8FF591C88B2FFF76D
:1007D000C4FFFFF7D1FF00BD30B504460D462946E2
:1007E0002046FFF7CFFFDC480088FFF7B6FF30BD9B
:1007F00030B504460D46D7494889FFF7ABFF2012B4
:10080000FFF7ABFFE0B2FFF7A8FF1012FFF7A5FF5D
:10081000D0B2FFF7A2FFCF498889FFF79BFF2812CC
:10082000FFF79BFFE8B2FFF798FF1812FFF795FF5D
:10083000D8B2FFF792FFFFF79FFF30BD70B50446B7
:1008400000250026C3484088401E83B2C148008866
:10085000401E82B200210846FFF7CAFF00BF08E031
:10086000002503E0BA48801C04806D1CA02DF9D33C
:10087000761CB6F5707FF3D370BD00B59FB0012133
:10088000080201F0CAFA012140F2791001F0D2FA0F
:100890000120ADF8780010208DF87B0003208DF842
:1008A0007A001EA9AD4801F009F82020ADF87800C3
:1008B00010208DF87B0003208DF87A001EA9A8482F
:1008C00000F0FCFF4CF23370ADF8780018208DF882
:1008D0007B0003208DF87A001EA9A24800F0EEFFED
:1008E0004FF68070ADF8780018208DF87B0003205B
:1008F0008DF87A001EA99C4800F0E0FF41F201004B
:10090000ADF8780018208DF87B0003208DF87A0070
:100910001EA9964800F0D2FF0120089000200990FF
:100920000F200A9000200B900C900D900E9002204A
:100930000190002002900520039000200490059073
:100940000690079006200F90002010901190102024
:1009500012900020139015901490169017904FF459
:1009600080501890002019904FF480401A90002079
:100970001B9008A81C9001A81D900FA800F084FCF3
:100980000121062000F0E8FD1FB000BD10B52020B9
:1009900073494861642000F0CFFA20207049086153
:1009A000322000F0C9FA10BD00B52A2069494881FB
:1009B0002B2088812C200881002088714FF4A070A2
:1009C00008804FF4F0704880C8213620FFF7CFFE32
:1009D00000BD10B5FFF751FFFFF7D8FFF120FFF77B
:1009E000B9FE3620FFF7B9FE0420FFF7B6FE00205F
:1009F000FFF7B3FE3C20FFF7B0FE0F20FFF7ADFE80
:100A00008F20FFF7AAFEF220FFF7A4FE1820FFF7C1
:100A1000A4FEA320FFF7A1FE1220FFF79EFE0220F6
:100A2000FFF79BFEB220FFF798FE1220FFF795FE1E
:100A3000FF20FFF792FE1020FFF78FFE0020FFF748
:100A40008CFEF820FFF786FE2120FFF786FE0420AB
:100A5000FFF783FEF920FFF77DFE0020FFF77DFE04
:100A60000820FFF77AFE3620FFF774FE0820FFF714
:100A700074FEB420FFF76EFE0020FFF76EFEB62076
:100A8000FFF768FE0220FFF768FE2220FFF765FEF1
:100A9000C120FFF75FFE4120FFF75FFEC520FFF793
:100AA00059FE0020FFF759FE1820FFF756FEE02000
:100AB000FFF750FE0F20FFF750FE1F20FFF74DFEFF
:100AC0001C20FFF74AFE0C20FFF747FE0F20FFF720
:100AD00044FE0820FFF741FE4820FFF73EFE982025
:100AE000FFF73BFE3720FFF738FE0A20FFF735FE01
:100AF0001320FFF732FE0420FFF72FFE1120FFF72F
:100B00002CFE0D20FFF729FE0020FFF726FEE12036
:100B1000FFF720FE0F20FFF720FE3220FFF71DFE1B
:100B20002E20FFF71AFE0B20FFF717FE0D20FFF710
:100B300014FE0520FFF711FE4720FFF70EFE75207B
:100B4000FFF70BFE3720FFF708FE062010E000003D
:100B5000FE07006CBC01002014000020000C0140C6
:100B60000010014000140140001801400020014025
:100B7000FFF7F3FD1020FFF7F0FD0320FFF7EDFD79
:100B80002420FFF7EAFD2020FFF7E7FD0020FFF714
:100B9000E4FD3A20FFF7DEFD5520FFF7DEFD1120D2
:100BA000FFF7D8FD3620FFF7D5FDC820FFF7D5FDAC
:100BB000782000F0C1F92920FFF7CCFDFFF7F4FE03
:100BC00001201D4908604FF6FF70FFF737FE10BD8A
:100BD0002DE9F84F06460F4614461D46DDF82890CD
:100BE000A01B401C1FFA80FAE81B401C1FFA80FB68
:100BF0000BFB0AF00090681E83B2601E82B2394679
:100C00003046FFF7F5FD4FF0000804E00B48A0F870
:100C1000009008F1010800988045F7D30848408803
:100C2000401E83B206480088401E82B2002108465A
:100C3000FFF7DEFDBDE8F88F808121420008006CDF
:100C4000BC01002008B50121082001F0F3F8C02004
:100C5000ADF8000010208DF8030003208DF802008D
:100C600069467E4800F02AFEC0217C4800F0D3FE91
:100C700008BD08B58020ADF8000010208DF80300F5
:100C800003208DF802006946744800F017FE08BD85
:100C900010B5FFF7EEFF012071490860042000F055
:100CA00027F901206F49C1F89801042000F020F9CC
:100CB00000206B490860042000F01AF900206949FF
:100CC000C1F89801042000F013F9012010BD10B5FF
:100CD000FFF7CFFF002062490860042000F008F908
:100CE00001206049C1F89801042000F001F90120B9
:100CF0005B49086010BD70B50446FFF7BAFF0025D8
:100D000023E004F0800018B101205549086002E09A
:100D1000002053490860042000F0EAF801205049FF
:100D2000091F0860042000F0E3F800204D49C1F8D5
:100D30009801072D02D10120494908606006040E80
:100D4000042000F0D5F8681CC5B2082DD9DB70BDB1
:100D500008B58020ADF8000004208DF80300694636
:100D60003E4800F0ABFD08BD70B501203C4908606D
:100D7000FFF7EEFF0024002517E06006040E0120B7
:100D80003749091F0860042000F0B2F83548D0F850
:100D90001C0108B1601CC4B200203149091F086061
:100DA000042000F0A5F8681CC5B2082DE5DB20463C
:100DB00070BD10B501202A490860FFF7C9FF042063
:100DC00000F096F801202749C1F89801042000F0AE
:100DD0008FF823488038006808B1012400E000241F
:100DE00000201F49091F0860042000F081F82046F8
:100DF00010BD10B5FFF73DFF002019490860042021
:100E000000F076F801201749C1F89801042000F09D
:100E10006FF800201249091F0860042000F068F8EC
:100E200001201049C1F89C0110BD10B5FFF721FF4A
:100E300001200B490860042000F05AF801200949FC
:100E4000C1F89801042000F053F800200449091F5C
:100E50000860042000F04CF810BD0000000C0140B8
:100E60009C8121420080214210B56FF0040000F007
:100E7000A0F9434800684349B0FBF1F042490870CB
:100E800008460078092190FBF1F0404908703E487F
:100E9000007800EB4001C1EBC0104FF6FF7101EA92
:100EA000C0003B49088010BD0146384A12784A43C9
:100EB0004FF0E0235A6100229A611A46126942F00B
:100EC00001021A6100BF4FF0E022106900F0010238
:100ED0001AB100F48032002AF5D04FF0E0221269F6
:100EE00022F001024FF0E0231A6100229A6170475C
:100EF0000146254A12784A434FF0E0235A61002206
:100F00009A611A46126942F001021A6100BF4FF05D
:100F1000E022106900F001021AB100F48032002AC8
:100F2000F5D04FF0E022126922F001024FF0E023E9
:100F30001A6100229A6170470146154A12884A4395
:100F40004FF0E0235A6100229A611A46126942F07A
:100F500001021A6100BF4FF0E022106900F00102A7
:100F60001AB100F48032002AF5D04FF0E022126965
:100F700022F001024FF0E0231A6100229A617047CB
:100F80000000002000127A001B0000201A00002040
:100F90001C000020014600BF704700BF494A12886C
:100FA00002F04002002AF9D0C2B2464B1B1D1A8043
:100FB000704710B586B00446012144F2040000F0E9
:100FC00039FF4FF40070ADF8140003208DF81600BF
:100FD00018208DF8170005A93B4800F06FFC4FF46E
:100FE0008060ADF8140004208DF8170005A936487C
:100FF00000F064FC25208DF8000003208DF801002E
:101000008DF8020001208DF80300684600F087F893
:1010100001940020ADF80800ADF80A00ADF80C000E
:10102000ADF810000C20ADF80E0001A9254800F025
:10103000A8FF012240F22551224801F03AF801218F
:10104000204801F02AF806B010BD10B540F2255135
:101050001C4801F013F910B31A4801F08FF8C4B21C
:101060001A48008800F40040C8B91848008800F405
:10107000804060B10A2C03D000201449088020E091
:101080001248008840F400401049088019E00D2CF7
:1010900006D10E48008840F480400C49088010E0DA
:1010A0000A480088C0F30D0009490C54074800881D
:1010B000401C0649088008460088C72801DD00203A
:1010C000088010BD003801400008014024000020C5
:1010D000CA0100200948804709480047FEE7FEE7AB
:1010E000FEE7FEE7FEE7FEE7FEE7FEE7FEE7FEE7D8
:1010F00004480549054A064B704700005F04000894
:1011000031010008F8020020F8080020F80400204F
:10111000F804002031490143314A1160704770B52D
:10112000002100230F22C47804B32D4C246804F45A
:10113000E064C4F5E064210AC1F10403CA404478C4
:1011400004FA03F18478144021430901254C067800
:10115000A155047804F01F050124AC4005786D11F9
:10116000AD0005F1E025C5F8004109E0047804F080
:101170001F050124AC401C4D0678761145F8264029
:1011800070BD1A4A0A400243154B1B1F1A60704774
:1011900039B1134A121D12680243114B1B1D1A600C
:1011A00006E00F4A121D126882430D4B1B1D1A6088
:1011B0007047042808D14FF0E021096941F004018B
:1011C0004FF0E022116107E04FF0E021096921F0C2
:1011D00004014FF0E0221161704700000000FA05A1
:1011E0000CED00E000E400E080E100E080FFFF1F84
:1011F00030B943F2DB028100A1F1C0410A6005E091
:1012000043F2D2028100A1F1C0410A606FF0704246
:10121000411C8900A1F1C0410A608100A1F1C041D7
:10122000C1F80421704710280AD118214FF020423C
:101230001166402151664FF0FC319166D16610E095
:101240001821F74A116040214FF02042C2F8841063
:101250004FF0FC31F24A083211604FF02042C2F8E0
:101260008C1070471820EE492031086000200906D4
:10127000C1F8A4004FF0FC30E94928310860091D8D
:101280000860091D08607047D0E901121143C26867
:101290001143026911434269114382691143C269D2
:1012A0001143026A1143426A1143826A1143C26ABE
:1012B0001143026B114302689200A2F1C042116017
:1012C000816808290BD101688900A1F1C041096832
:1012D00041F0400201688900A1F1C0410A60416B00
:1012E0000968426B526841EA0211426B926841EA16
:1012F0000221426B928941EA0241426B128A41EA21
:101300000251426B127D41EA0261426B92691143C4
:101310000268521C9200A2F1C0421160C16AB1F58C
:10132000804F1BD1816B0968826B526841EA0211C0
:10133000826B926841EA0221826B128A41EA025171
:10134000826B127D41EA0261826B926911430268ED
:101350009200A2F1C042C2F8041107E06FF070429F
:1013600001688900A1F1C041C1F80421704730B57E
:10137000002100220023446844F0080485682C43BF
:10138000C5682C4305692C43456944EA45248569B1
:1013900044EA4531C4692468C5696D6844EA052496
:1013A000C5692D8944EA0544C5692D7B44EA056277
:1013B000046A2468056A6D6844EA0524056A2D8973
:1013C00044EA0544056A2D7B44EA05630468102C51
:1013D00005D14FF020442166A266E36608E0904CF8
:1013E00021604FF02044C4F888208D4C0C342360D9
:1013F00030BD016841F01001426841EA4221826833
:1014000041EA4231864A20321160C1680968C268E7
:10141000526841EA0221C268128941EA0241C26867
:10142000127B41EA02617E4A283211600169096833
:101430000269526841EA02210269128941EA0241C5
:101440000269127B41EA0261754A2C3211604169DE
:1014500009684269526841EA02214269128941EAF7
:1014600002414269127B41EA02614FF02042C2F818
:10147000B0107047002101600221416000218160AD
:10148000C160016141618161C16101624FF48051BC
:101490004162490081620021C16201630F21426BF8
:1014A0001160426B5160FF21426B91600F21426BD2
:1014B000D160426B1161426B51610021426B9161BD
:1014C0000F21826B1160826B5160FF21826B9160F2
:1014D0000F21826BD160826B1161826B516100219F
:1014E000826B916170471021016000214160816031
:1014F000C160016141618161FC21C2691160C26901
:101500005160C2699160C269D160026A1160026A69
:101510005160026A9160026AD160704700210160E7
:1015200041608160FC21C2681160C2685160C2687C
:101530009160C268D16002691160026951600269FC
:1015400091600269D16042691160426951604269EB
:1015500091604269D160704751B18200A2F1C042EE
:10156000126842F001038200A2F1C042136009E058
:101570008200A2F1C04212682A4B1A408300A3F1F4
:10158000C0431A60704799B1102808D14FF020422B
:10159000126E42F004024FF020431A661DE0204A0A
:1015A000126842F004024FF02043C3F8802014E098
:1015B000102809D14FF02042126E1A4BDB1E1A4040
:1015C0004FF020431A6608E0154A1268154BDB1EDF
:1015D0001A404FF02043C3F88020704748B11049AB
:1015E0002031096841F004014FF02042C2F8A010F8
:1015F00009E00B49203109680A4AD21E11404FF018
:101600002042C2F8A0107047B9B110280CD14FF099
:101610002042126E42F040024FF020431A661FE053
:10162000800000A0FEFF0F00724A126842F04002E4
:101630004FF02043C3F8802012E0102808D14FF06B
:101640002042126E6C4B1A404FF020431A6607E09E
:10165000684A1268684B1A404FF02043C3F8802054
:10166000704701460020102903D14FF02042506FEF
:1016700002E0604A14321068704710B5F2B11028C9
:1016800007D14FF020435B6E0B434FF0204463665D
:1016900032E0B0F5807F08D1564B1B1D1B680B4311
:1016A0004FF02044C4F8843026E0524B24331B68AA
:1016B0000B434FF02044C4F8A4301DE0102807D19C
:1016C0004FF020435B6E8B434FF02044636613E082
:1016D000B0F5807F08D1474B1B1D1B688B434FF033
:1016E0002044C4F8843007E0424B24331B688B430A
:1016F0004FF02044C4F8A43010BD10B502460020BD
:101700000023102A03D14FF02044636E09E0B2F5A4
:10171000807F03D1374C241D236802E0354C2434EC
:10172000236803EA01040CB1012000E0002010BD91
:10173000102807D14FF02042526E8A434FF02043C9
:101740005A6613E0B0F5807F08D12A4A121D12684C
:101750008A434FF02043C3F8842007E0254A24320F
:1017600012688A434FF02043C3F8A420704770B535
:1017700002460020002300240025102A03D14FF048
:101780002046736E09E0B2F5807F03D1194E361DF5
:10179000336802E0174E2436336803EA010403EA93
:1017A000D10514B10DB1012000E0002070BD10285A
:1017B00008D14FF02042526E22EAD1024FF020436E
:1017C0005A6615E0B0F5807F09D10A4A121D1268E9
:1017D00022EAD1024FF02043C3F8842008E0054AF2
:1017E0002432126822EAD1024FF02043C3F8A42029
:1017F00070470000800000A0BFFF0F0010B5044636
:10180000CC48844208D10121042000F02DFB0021A6
:10181000042000F029FB46E0C748844208D101219A
:10182000082000F021FB0021082000F01DFB3AE019
:10183000C248844208D10121102000F015FB00218C
:10184000102000F011FB2EE0BD48844208D1012198
:10185000202000F009FB0021202000F005FB22E001
:10186000B848844208D10121402000F0FDFA00214F
:10187000402000F0F9FA16E0B348844208D1012173
:10188000802000F0F1FA0021802000F0EDFA0AE05B
:10189000AE48844207D10121801500F0E5FA00210D
:1018A000A01500F0E1FA10BD10B50121084600F0C6
:1018B000DBFA0021012000F0D7FA10BD2DE9F0413C
:1018C000024600250026002000230024002791F86E
:1018D00003C00CF00F0591F803C00CF0100CBCF124
:1018E000000F03D091F802C04CEA050591F800C042
:1018F000BCF1000F31D0146800202BE04FF0010C38
:101900000CFA00F3B1F800C00CEA03069E4220D1A5
:1019100083004FF00F0C0CFA03F7BC4305FA03FCED
:101920004CEA040491F803C0BCF1280F06D14FF033
:10193000010C0CFA00FCC2F814C00AE091F803C0D4
:10194000BCF1480F05D14FF0010C0CFA00FCC2F8B5
:1019500010C0401C0828D1D31460B1F800C0BCF1FD
:10196000FF0F34DD546800202EE000F1080C4FF02A
:10197000010808FA0CF3B1F800C00CEA03069E4215
:1019800021D183004FF00F0C0CFA03F7BC4305FA8A
:1019900003FC4CEA040491F803C0BCF1280F05D104
:1019A00000F1080C08FA0CF8C2F8148091F803C092
:1019B000BCF1480F07D100F1080C4FF0010808FAFC
:1019C0000CF8C2F81080401C0828CED35460BDE843
:1019D000F0814FF6FF710180022181700421C170F6
:1019E00070470246002093680B400BB1012000E0D5
:1019F000002070470146886880B270470246002088
:101A0000D3680B400BB1012000E000207047014675
:101A1000C86880B2704701617047416170470AB180
:101A2000016100E041617047C16070474FF480324E
:101A30000A438261816182618269826970470246DC
:101A40000020434B18684FF68073184040EA02109C
:101A500008433F4B186070473E49C8617047F0B576
:101A60000A46002300240021002500F00046B6F1BC
:101A7000004F02D1364EF16901E0354E7168C0F376
:101A8000034583B200F44016B6F5401F08D121F09B
:101A900070612F4E766826F070662D4F7E6012E0E2
:101AA00000F48016B6F5801F06D1032606FA05F469
:101AB000A14341F0706106E0460D360103FA06F6D7
:101AC000B14341F0706122B1460D360103FA06F6CA
:101AD000314300F00046B6F1004F02D11C4EF161D7
:101AE00001E01B4E7160F0BD30B500228B071C0F6A
:101AF0000F2303FA04F2164B08338C1053F82430EA
:101B00009343134C08348D1044F8253023468C1031
:101B100053F824308C07240F00FA04F423430C4CB0
:101B200008348D1044F8253030BD0A49DC31086096
:101B30007047000000080140000C01400010014007
:101B40000014014000180140001C01400020014029
:101B50000000014000002042DF48006840F0010022
:101B6000DD49086008464068DC490840DA494860B9
:101B700008460068DA490840D74908600846006806
:101B800020F4802008600846406820F4FE00486089
:101B90004FF41F0088607047CF49096821F48031F5
:101BA000CD4A11601146096821F480211160B0F519
:101BB000803F03D0B0F5802F0ED106E0C6490968FA
:101BC00041F48031C44A116007E0C349096841F417
:101BD000A021C14A116000E000BF00BF704710B5EE
:101BE00001460022002300204A11012A02D1BA4CEA
:101BF000236806E0022A02D1B74C236A01E0B64C02
:101C0000636A01F01F02012494401C400CB10120C2
:101C100000E0002010BD38B5002000900024002511
:101C200000BF3120FFF7DBFF05460098401C009005
:101C30000098B0F5A06F01D0002DF2D03120FFF751
:101C4000CEFF08B1012400E00024204638BD014643
:101C50000020A14A106820F0F80040EAC10010609E
:101C60007047A04908607047024600209A4B5868A8
:101C700020F47C1042EA01031843974B58607047E8
:101C800098490866704701460020934A506820F042
:101C900003000843506070478F48406800F00C0014
:101CA0007047014600208C4A506820F0F00008433D
:101CB0005060704701460020874A506820F4E06079
:101CC00008435060704701460020834A506820F462
:101CD000605040EAC1005060704729B17E4A527A94
:101CE00002437D4B5A7204E07B4A527A82437A4B1C
:101CF0005A7270477B49D83108607047014600200E
:101D0000754A506820F440400843506070470021F5
:101D1000714A20321170704A82F82010012802D0D6
:101D200004280AD104E001216B4A2032117005E039
:101D30000521694A2032117000E000BF00BF7047E2
:101D40006949086070476449096A0143624A11623F
:101D50007047654944390860704730B5002100225A
:101D6000002400235C4D6D6805F00C0121B10429AD
:101D700005D0082923D105E05C4D056022E05B4DCC
:101D800005601FE0544D6D6805F47012524D6D688A
:101D900005F48034022505EB92421CB9544D55439D
:101DA00005600BE04C4D6D6805F400351DB1504DDC
:101DB0005543056002E04D4D5543056002E04B4D33
:101DC000056000BF00BF444D6D6805F0F0010909D2
:101DD000484D6B5C0568DD4045603F4D6D6805F41E
:101DE000E061090A434D6B5C4568DD4085603A4D12
:101DF0006D6805F46051C90A3E4D6B5C4568DD4075
:101E0000C560354D6D6805F44041890B3A4D6B5CFA
:101E1000C568B5FBF3F5056130BD29B12E4A52699D
:101E200002432D4B5A6104E02B4A526982432A4BEC
:101E30005A61704729B1284A92690243264B9A6138
:101E400004E0254A92698243234B9A61704729B185
:101E5000214AD2690243204BDA6104E01E4AD2696A
:101E600082431D4BDA61704729B11B4AD268024395
:101E7000194BDA6004E0184AD2688243164BDA60E4
:101E8000704729B1144A12690243134B1A6104E0E6
:101E9000114A12698243104B1A6170471249403946
:101EA000086070470F49C86470470B49C871704794
:101EB0000948406A40F0807007494862704701460F
:101EC0000020054A92680A400AB1012000E0002083
:101ED0007047014988727047001002400000FFF807
:101EE000FFFFF6FE000042428004424200127A00E8
:101EF00000093D00260000203600002010B50446F1
:101F0000FB48844209D101218803FFF7ADFF00217E
:101F10004FF48040FFF7A8FF32E0F648844209D131
:101F200001214804FFF7ADFF00214FF40030FFF717
:101F3000A8FF25E0F048844209D101218804FFF779
:101F4000A0FF00214FF48020FFF79BFF18E0EB4833
:101F5000844209D10121C804FFF793FF00214FF407
:101F60000020FFF78EFF0BE0E548844208D10121F5
:101F70000805FFF786FF00214FF48010FFF781FF6F
:101F800010BD2DE9F04786B005460E460024A24656
:101F900000BFA1460027B08900B100BF2F462C8AA0
:101FA0004CF6FF700440F08804432C82AC894EF656
:101FB000F3100440B0883189084371890843044311
:101FC000AC81AC8A4FF6FF400440B0890443AC8238
:101FD00001A8FFF7C2FEC648874202D1DDF810A073
:101FE00001E0DDF80CA0A88900F4004040B10AEB44
:101FF000CA0000EB0A1031684900B0FBF1F807E0B5
:102000000AEBCA0000EB0A1031688900B0FBF1F856
:102010006420B8FBF0F004012009642101FB108961
:10202000A88900F4004040B1322000EBC900B0FBA9
:10203000F1F000F00700044308E0322000EB091043
:102040006421B0FBF1F000F00F0004432C8106B0D6
:10205000BDE8F0874FF41651016000218180C180F6
:1020600001810C21418100218181704710B5024618
:102070000020108A4FF2FF0318400B884C8823433E
:102080008C882343CC8823431843108210BD002141
:10209000018041808180C180704721B1828942F4F2
:1020A0000052828104E082894DF6FF731A408281DA
:1020B0007047F0B50346002400260025002040F6B6
:1020C0006A17B94200D100BF1846C1F3421401F0AB
:1020D0001F06012707FA06F5012C01D10C3004E098
:1020E000022C01D1103000E014301AB107682F43E0
:1020F000076002E00768AF430760F0BD1AB1838A4A
:102100000B43838202E0838A8B4383827047028A77
:102110004FF6F0731A400282028A0A430282704725
:1021200082894FF2FF731A40828182890A43828139
:10213000704721B1828942F00202828104E08289E3
:102140004FF6FD731A4082817047028A4FF6DF73A3
:102150001A400282028A0A430282704721B1028A2F
:1021600042F48042028204E0028A4BF6FF731A4076
:1021700002827047C1F30802828070470146888856
:10218000C0F308007047818941F0010181817047E7
:10219000028BD2B20283028B42EA01220283704791
:1021A000028B02F47F420283028B0A430283704750
:1021B00021B1828A42F02002828204E0828A4FF6B4
:1021C000DF731A408282704721B1828A42F0100286
:1021D000828204E0828A4FF6EF731A40828270474F
:1021E00021B1828A42F00802828204E0828A4FF69C
:1021F000F7731A408282704721B1828942F400420B
:10220000828103E08289C2F30E028281704721B18C
:10221000828A42F40062828204E0828A4FF2FF7373
:102220001A4082827047828A4FF6FB731A4082827C
:10223000828A0A438282704721B1828A42F0020276
:10224000828204E0828A4FF6FD731A4082827047D0
:1022500002460020B1F5007F00D100BF13880B407B
:102260000BB1012000E00020704701F40072B2F5CC
:10227000007F00D100BFCA430280704770B502469C
:10228000002400230025002040F66A16B14200D148
:1022900000BFC1F3421501F01F03012606FA03F344
:1022A000012D02D19689334006E0022D02D1168A13
:1022B000334001E0968A33400C12012606FA04F4FA
:1022C0001688344013B10CB1012000E0002070BD2D
:1022D00010B50022002340F66A14A14200D100BFCD
:1022E0000A1201249440A3B2DC43048010BD000014
:1022F000003801400044004000480040004C0040CD
:1023000000500040704770477047704770477546EF
:1023100000F02CF8AE4605006946534620F0070051
:10232000854618B020B5FEF7E3FEBDE820404FF02B
:1023300000064FF000074FF000084FF0000B21F0AF
:102340000701AC46ACE8C009ACE8C009ACE8C0097C
:10235000ACE8C0098D46704710B50446AFF3008065
:102360002046BDE81040FDF72ABF00000048704736
:102370009402002021F00042A2F16052B2F5801FC9
:1023800001F0004328BFD2F17F6C0BD95FEA001C3B
:1023900043EAC20242EB507018BF704728BF20F0DA
:1023A00001007047B2F5801FBCBF184670474FEA66
:1023B000410C1CF5001F02D2084600F076BB70B538
:1023C00000F0B4F800000089FFF7F6BF4FF00040BE
:1023D000A0F5800070470000DFF848C170B51CEA26
:1023E000111E1EBF1CEA13159EEA0C0F95EA0C0F76
:1023F00000F06F8081EA030423EA4C134EEAD47E96
:1024000021EA4C1141F4801143F48013AE44A1FB46
:10241000024CA0FB0365AEF17F7E361955EB0C052F
:10242000A1FB034C4CF10003A0FB021C16EB0C06B5
:10243000654153F10003094218BF46F0010613F449
:10244000007F0BD14FEA03314FEA0530340341EAF4
:10245000155140EA16506FF003020AE04FEAC3211B
:102460004FEAC520F40241EA555140EA56506FF058
:10247000020202EB2E4201EB025585EACE710AD030
:102480005FEA440C18BF24F0004450F1000041F111
:10249000000120EAD47040F2FE7C624500D270BD9B
:1024A000A84214BF4FF080444FF04044002E08BFB4
:1024B0000024BEF1806FA8BFA1F1C041BDE870400B
:1024C00080F282804FF0000001F1C04101F0004134
:1024D00070479EEA0C0F0CEA131518BF95EA0C0F13
:1024E00006D04FF0000081EA030E0EF0004170BDEF
:1024F00000F01CF88900013E00F007B800F009B8B0
:102500004FEA430C5FEA5C5C08D081EA030100F00B
:102510005BB84FEA410C5FEA5C5CF6D14FF000001B
:10252000014970470000FF070000F87F0EF1020E1E
:102530002EF0030E5EF8046B364205D4012A43EBFD
:10254000030515F5001F12D8012841EB010C1CF5FD
:10255000001F0CD80ED14FEAD17C15F5001F0CEBF3
:102560004C0C0CF1020C08BF4CEBD37C04E04FF098
:10257000080C01E04FEAD37C0CEB4C0526FA05F67B
:1025800006F00706B6F1040C06D20EEB860CBDE889
:1025900070404CF0010C6047DFE80CF0090B0202C0
:1025A0004FF000414FF00000A1F5002170BD194629
:1025B0001046012851EB010418BFD4F5001484BF64
:1025C000002001F0004170BD0808A0F500114FEA9D
:1025D0003101704743004FEAD30C4FEA3C0C4340B3
:1025E0001FBF40070CF1605113F0FE4F70471CF005
:1025F000006F03D100200CF0004170470CF0004345
:1026000043EA507010B540EACC0000F008FA00BF71
:10261000000000924FEA0001FFF7D6BF4FF00041E3
:102620004FF00000A1F500217047000090EA010F73
:1026300048BF81F0004100F14E82421A3CBF801A2F
:1026400089184FEAD0524FF07F4C1CEA410FA2EBA1
:10265000D15318BF9CEA026F00F03B804FF0004C52
:102660004CEA00204CEA012121FA03FC10EB0C0C8F
:102670001ED202F1FF325FEA1C2040EBC25038BF8D
:1026800070471CF07F0F4FEA400C18BFBCF17F4F22
:1026900038BF7047C3F12003994008BF20F0010004
:1026A000BCF17F4F38BF7047A0F1C04000F0FDB9CA
:1026B0004FEA3C00000A40EBC25028BF1CF0FF0F5D
:1026C0004FEA400CE6D018BFBCF17F4F38BF7047CF
:1026D000EAE79CEA026F05D010EA5C0F08BF00F041
:1026E0000040704710B500F09AF900BF64FBBE3E91
:1026F000401058BFC0F14040491058BFC1F140419F
:102700008142EFF3008070474FF47F0C1CEAD01237
:102710001EBF1CEAD11392EA0C0F93EA0C0F00F0D3
:10272000858090EA010F48BF42F4807240F4000CAB
:1027300041F400002CF07F4120F07F4000B5814241
:10274000A2EB03020FF2081CACEB504EC0F10000EC
:102750009EF800E04FEA4E0E00FB0EFC38BF490029
:102760004FEA2C1C02F5FA020CFB0EF34FEACE1EC8
:102770004FEA112C4FEAC1210EEB635E42EB22427D
:102780000EFB0CFC4FEA1C5300FB03114FEA112C0B
:102790004FEA01310EFB0CFC4FEADC4C00FB0C1144
:1027A000C14228BF09184CEB03335DF804EB10EB72
:1027B000410143EBC250B2F57C0F38BF704729D5B9
:1027C00012F0F00F1CBF00F1C04000F00040704755
:1027D000008182838485868788898B8C8D8E8F91FA
:1027E0009293959697999A9C9D9FA0A2A3A5A7A81E
:1027F000AAACAEB0B2B3B5B7B9BCBEC0C2C5C7C94A
:10280000CCCED1D4D7D9DCDFE2E6E9ECF0F3F7FAAD
:10281000FE0000004FEA400C0CF1807CBCF17E4FC2
:1028200028BF7047B0F1C04000F03FB990EA010FF7
:102830000CEAD11348BF42F48072624538BF634549
:1028400007D213F47F0F16D080EA010000F0004099
:10285000704710B500F0E3F8097EFC3E00F005B8C3
:1028600080EA010000F00040704780EA010000F0BB
:10287000004000F01AB912F47F0F04BF02487047FD
:1028800080EA010000F011B90000C07FB0FA80F3C7
:1028900010FA03F2C3F19D030AD0D90501EB12200F
:1028A000530638BF704700F1010008BF20F0010057
:1028B0007047000050EA010C00F113801CF5000F76
:1028C00058BFBCF5000F01D48842704707D710F5F8
:1028D000000F58BF11F5000F15D488427047894288
:1028E00070471CF5000F04D5BCF5000FF7D58142E9
:1028F00070474FF0807C1CEB400F38BF1CEB410F42
:1029000001D28142704710B500F089F89224490045
:102910004FF000504FF08051FFF7EABE4FF47F0CAC
:102920001CEAD0121EBF1CEAD11392EA0C0F93EAE4
:102930000C0F00F0478090EA010F48BF42F480720C
:102940004FF0004C4CEA00204CEA012102EB03025C
:10295000A0FB0113A2F50002002918BF43F00103F8
:102960005B0028BF4FEA330342EB22425FEA132C9D
:102970004CEBC2502EBFBCEB436FB2F57C0F7047DF
:102980004FEA036CBCF1004F08BF20F00100B2F524
:102990007C0F38BF70470BD582F0FF0212F5803FE5
:1029A000C8BF704700F1C040D8BF00F0004070477A
:1029B00000F5000C5FEA4C0C48BF7047B0F1C04016
:1029C00000F073B890EA010F0CEAD11348BF42F44B
:1029D0008072624538BF634504D280EA010000F08E
:1029E0000040704710B500F01AF800BF8900013EA2
:1029F00000F007B800F009B85FEA410C5FEA1C6C10
:102A000008D080EA010000F050B85FEA400C5FEAAD
:102A10001C6CF6D14FF00040A0F5800070470EF11D
:102A2000020E2EF0030E5EF8044B244204D44FEA4B
:102A30004102B2F17F4F11D84FEA4003B3F17F4F0B
:102A40000CD80ED14FEAD07CB2F17F4F0CEB4C0C7E
:102A50000CF1020C08BF4CEBD17C04E04FF0080CE9
:102A600001E04FEAD17C0CEB4C0324FA03F404F0B0
:102A70000704B4F1040C06D20EEB840CBDE8104040
:102A80004CF0010C6047DFE80CF0070802024FF041
:102A90000040A0F5800010BD0846420018BFD2F1EA
:102AA000807288BF00F0004010BDFF2141EAD05085
:102AB000C005704780F0004090EA010F7FF5BDAD82
:102AC00081F0004100F007B890EA010F48BF81F0A3
:102AD00000413FF5B2AD421A04D882F00042A0EBAB
:102AE000020011444FEAD0524FF07F4C1CEA410FD4
:102AF000A2EBD15318BF9CEA026F4AD04FF0004CB2
:102B00004CEA00204CEA012121FA03FCB0EB0C0C4A
:102B10000FD412F0FE0F36D05FEA4C001DD5001224
:102B200040EBC25038BF70471CF03F0F18BF7047D2
:102B30000BE0A2F101025FEA1C2040EBC25038BF5B
:102B400070471CF07F0F18BF7047C3F120039940F6
:102B500014BF401E20F00100704780084FEA122386
:102B600008BF7047B0FA80FCA2EB0C02CCF1280C35
:102B700060FA0CF093EA122F04BF00EBC2507047CA
:102B80004FEAC3707047130A5FEADC1008BF704752
:102B9000F6E79CEA026F04D010EA5C0F08BF002041
:102BA000704710B5FFF73BFF40DFF63E81F0004075
:102BB00070470000D42B0008000000203C000000FB
:102BC0006C010008102C00083C000020BC0800002C
:102BD0008801000800A24A04000000000000000074
:102BE00001020304060708090000FFFF00000000BF
:102BF00000000000000000000000000000000102D2
:102C00000304010203040607080902040608000081
:0400000508000131BD
:00000001FF
